{
  "address": "0x4c1E0e920a79f5cD3B18990F8c9505b34C455177",
  "abi": [
    {
      "inputs": [],
      "name": "CallerNotOwner",
      "type": "error"
    },
    {
      "inputs": [],
      "name": "ZeroAddressNotValid",
      "type": "error"
    },
    {
      "anonymous": false,
      "inputs": [
        {
          "indexed": false,
          "internalType": "uint8",
          "name": "version",
          "type": "uint8"
        }
      ],
      "name": "Initialized",
      "type": "event"
    },
    {
      "anonymous": false,
      "inputs": [
        {
          "indexed": false,
          "internalType": "bytes32",
          "name": "poolInfoHash",
          "type": "bytes32"
        },
        {
          "indexed": false,
          "internalType": "address",
          "name": "pool",
          "type": "address"
        }
      ],
      "name": "PoolCreated",
      "type": "event"
    },
    {
      "anonymous": false,
      "inputs": [
        {
          "indexed": true,
          "internalType": "bytes32",
          "name": "role",
          "type": "bytes32"
        },
        {
          "indexed": true,
          "internalType": "bytes32",
          "name": "previousAdminRole",
          "type": "bytes32"
        },
        {
          "indexed": true,
          "internalType": "bytes32",
          "name": "newAdminRole",
          "type": "bytes32"
        }
      ],
      "name": "RoleAdminChanged",
      "type": "event"
    },
    {
      "anonymous": false,
      "inputs": [
        {
          "indexed": true,
          "internalType": "bytes32",
          "name": "role",
          "type": "bytes32"
        },
        {
          "indexed": true,
          "internalType": "address",
          "name": "account",
          "type": "address"
        },
        {
          "indexed": true,
          "internalType": "address",
          "name": "sender",
          "type": "address"
        }
      ],
      "name": "RoleGranted",
      "type": "event"
    },
    {
      "anonymous": false,
      "inputs": [
        {
          "indexed": true,
          "internalType": "bytes32",
          "name": "role",
          "type": "bytes32"
        },
        {
          "indexed": true,
          "internalType": "address",
          "name": "account",
          "type": "address"
        },
        {
          "indexed": true,
          "internalType": "address",
          "name": "sender",
          "type": "address"
        }
      ],
      "name": "RoleRevoked",
      "type": "event"
    },
    {
      "anonymous": false,
      "inputs": [
        {
          "indexed": true,
          "internalType": "address",
          "name": "oldPoolImplementation",
          "type": "address"
        },
        {
          "indexed": true,
          "internalType": "address",
          "name": "newPoolImplementation",
          "type": "address"
        }
      ],
      "name": "UpdatePoolImplementation",
      "type": "event"
    },
    {
      "anonymous": false,
      "inputs": [
        {
          "indexed": true,
          "internalType": "address",
          "name": "oldVestingImplementation",
          "type": "address"
        },
        {
          "indexed": true,
          "internalType": "address",
          "name": "newVestingImplementation",
          "type": "address"
        }
      ],
      "name": "UpdateVestingImplementation",
      "type": "event"
    },
    {
      "anonymous": false,
      "inputs": [
        {
          "indexed": false,
          "internalType": "address",
          "name": "sender",
          "type": "address"
        },
        {
          "indexed": false,
          "internalType": "address",
          "name": "vesting",
          "type": "address"
        }
      ],
      "name": "VestingCreated",
      "type": "event"
    },
    {
      "inputs": [],
      "name": "DEFAULT_ADMIN_ROLE",
      "outputs": [
        {
          "internalType": "bytes32",
          "name": "",
          "type": "bytes32"
        }
      ],
      "stateMutability": "view",
      "type": "function"
    },
    {
      "inputs": [],
      "name": "LOCKUP_DURATION",
      "outputs": [
        {
          "internalType": "uint256",
          "name": "",
          "type": "uint256"
        }
      ],
      "stateMutability": "view",
      "type": "function"
    },
    {
      "inputs": [],
      "name": "MAXIMUM_CROWN_FUNDING_PARTICIPATION_FEE_PERCENTAGE",
      "outputs": [
        {
          "internalType": "uint16",
          "name": "",
          "type": "uint16"
        }
      ],
      "stateMutability": "view",
      "type": "function"
    },
    {
      "inputs": [],
      "name": "MAXIMUM_GALAXY_PARTICIPATION_FEE_PERCENTAGE",
      "outputs": [
        {
          "internalType": "uint16",
          "name": "",
          "type": "uint16"
        }
      ],
      "stateMutability": "view",
      "type": "function"
    },
    {
      "inputs": [],
      "name": "MAXIMUM_TGE_DATE_ADJUSTMENT",
      "outputs": [
        {
          "internalType": "uint256",
          "name": "",
          "type": "uint256"
        }
      ],
      "stateMutability": "view",
      "type": "function"
    },
    {
      "inputs": [],
      "name": "MAXIMUM_TGE_DATE_ADJUSTMENT_ATTEMPS",
      "outputs": [
        {
          "internalType": "uint256",
          "name": "",
          "type": "uint256"
        }
      ],
      "stateMutability": "view",
      "type": "function"
    },
    {
      "inputs": [],
      "name": "MINIMUM_CROWN_FUNDING_PARTICIPATION_FEE_PERCENTAGE",
      "outputs": [
        {
          "internalType": "uint16",
          "name": "",
          "type": "uint16"
        }
      ],
      "stateMutability": "view",
      "type": "function"
    },
    {
      "inputs": [],
      "name": "MINIMUM_GALAXY_PARTICIPATION_FEE_PERCENTAGE",
      "outputs": [
        {
          "internalType": "uint16",
          "name": "",
          "type": "uint16"
        }
      ],
      "stateMutability": "view",
      "type": "function"
    },
    {
      "inputs": [],
      "name": "OWNER_ROLE",
      "outputs": [
        {
          "internalType": "bytes32",
          "name": "",
          "type": "bytes32"
        }
      ],
      "stateMutability": "view",
      "type": "function"
    },
    {
      "inputs": [
        {
          "internalType": "address",
          "name": "owner",
          "type": "address"
        }
      ],
      "name": "__Base__init",
      "outputs": [],
      "stateMutability": "nonpayable",
      "type": "function"
    },
    {
      "inputs": [
        {
          "internalType": "address[2]",
          "name": "addrs",
          "type": "address[2]"
        },
        {
          "internalType": "uint256[18]",
          "name": "uints",
          "type": "uint256[18]"
        },
        {
          "internalType": "uint256",
          "name": "dbProjectId",
          "type": "uint256"
        }
      ],
      "name": "createPool",
      "outputs": [
        {
          "internalType": "address",
          "name": "pool",
          "type": "address"
        }
      ],
      "stateMutability": "nonpayable",
      "type": "function"
    },
    {
      "inputs": [],
      "name": "createVesting",
      "outputs": [
        {
          "internalType": "address",
          "name": "",
          "type": "address"
        }
      ],
      "stateMutability": "nonpayable",
      "type": "function"
    },
    {
      "inputs": [],
      "name": "getLockupDuration",
      "outputs": [
        {
          "internalType": "uint256",
          "name": "",
          "type": "uint256"
        }
      ],
      "stateMutability": "pure",
      "type": "function"
    },
    {
      "inputs": [],
      "name": "getMaxCrowdfundingParticipationFeePercentage",
      "outputs": [
        {
          "internalType": "uint16",
          "name": "",
          "type": "uint16"
        }
      ],
      "stateMutability": "pure",
      "type": "function"
    },
    {
      "inputs": [],
      "name": "getMaxGalaxyParticipationFeePercentage",
      "outputs": [
        {
          "internalType": "uint16",
          "name": "",
          "type": "uint16"
        }
      ],
      "stateMutability": "pure",
      "type": "function"
    },
    {
      "inputs": [],
      "name": "getMaximumTGEDateAdjustment",
      "outputs": [
        {
          "internalType": "uint256",
          "name": "",
          "type": "uint256"
        }
      ],
      "stateMutability": "pure",
      "type": "function"
    },
    {
      "inputs": [],
      "name": "getMaximumTGEDateAdjustmentAttempts",
      "outputs": [
        {
          "internalType": "uint256",
          "name": "",
          "type": "uint256"
        }
      ],
      "stateMutability": "pure",
      "type": "function"
    },
    {
      "inputs": [],
      "name": "getMinCrowdfundingParticipationFeePercentage",
      "outputs": [
        {
          "internalType": "uint16",
          "name": "",
          "type": "uint16"
        }
      ],
      "stateMutability": "pure",
      "type": "function"
    },
    {
      "inputs": [],
      "name": "getMinGalaxyParticipationFeePercentage",
      "outputs": [
        {
          "internalType": "uint16",
          "name": "",
          "type": "uint16"
        }
      ],
      "stateMutability": "pure",
      "type": "function"
    },
    {
      "inputs": [
        {
          "internalType": "bytes32",
          "name": "role",
          "type": "bytes32"
        }
      ],
      "name": "getRoleAdmin",
      "outputs": [
        {
          "internalType": "bytes32",
          "name": "",
          "type": "bytes32"
        }
      ],
      "stateMutability": "view",
      "type": "function"
    },
    {
      "inputs": [
        {
          "internalType": "bytes32",
          "name": "role",
          "type": "bytes32"
        },
        {
          "internalType": "address",
          "name": "account",
          "type": "address"
        }
      ],
      "name": "grantRole",
      "outputs": [],
      "stateMutability": "nonpayable",
      "type": "function"
    },
    {
      "inputs": [
        {
          "internalType": "bytes32",
          "name": "role",
          "type": "bytes32"
        },
        {
          "internalType": "address",
          "name": "account",
          "type": "address"
        }
      ],
      "name": "hasRole",
      "outputs": [
        {
          "internalType": "bool",
          "name": "",
          "type": "bool"
        }
      ],
      "stateMutability": "view",
      "type": "function"
    },
    {
      "inputs": [
        {
          "internalType": "address",
          "name": "_poolImplementationAddress",
          "type": "address"
        },
        {
          "internalType": "address",
          "name": "_vestingImplementationAddress",
          "type": "address"
        }
      ],
      "name": "initialize",
      "outputs": [],
      "stateMutability": "nonpayable",
      "type": "function"
    },
    {
      "inputs": [
        {
          "internalType": "address",
          "name": "sender",
          "type": "address"
        }
      ],
      "name": "isOwner",
      "outputs": [
        {
          "internalType": "bool",
          "name": "",
          "type": "bool"
        }
      ],
      "stateMutability": "view",
      "type": "function"
    },
    {
      "inputs": [],
      "name": "poolImplementationAddress",
      "outputs": [
        {
          "internalType": "address",
          "name": "",
          "type": "address"
        }
      ],
      "stateMutability": "view",
      "type": "function"
    },
    {
      "inputs": [
        {
          "internalType": "bytes32",
          "name": "role",
          "type": "bytes32"
        },
        {
          "internalType": "address",
          "name": "account",
          "type": "address"
        }
      ],
      "name": "renounceRole",
      "outputs": [],
      "stateMutability": "nonpayable",
      "type": "function"
    },
    {
      "inputs": [
        {
          "internalType": "bytes32",
          "name": "role",
          "type": "bytes32"
        },
        {
          "internalType": "address",
          "name": "account",
          "type": "address"
        }
      ],
      "name": "revokeRole",
      "outputs": [],
      "stateMutability": "nonpayable",
      "type": "function"
    },
    {
      "inputs": [
        {
          "internalType": "address",
          "name": "_poolImplementationAddress",
          "type": "address"
        }
      ],
      "name": "setPoolImplementation",
      "outputs": [],
      "stateMutability": "nonpayable",
      "type": "function"
    },
    {
      "inputs": [
        {
          "internalType": "address",
          "name": "_vestingImplementationAddress",
          "type": "address"
        }
      ],
      "name": "setVestingImplementation",
      "outputs": [],
      "stateMutability": "nonpayable",
      "type": "function"
    },
    {
      "inputs": [
        {
          "internalType": "bytes4",
          "name": "interfaceId",
          "type": "bytes4"
        }
      ],
      "name": "supportsInterface",
      "outputs": [
        {
          "internalType": "bool",
          "name": "",
          "type": "bool"
        }
      ],
      "stateMutability": "view",
      "type": "function"
    },
    {
      "inputs": [],
      "name": "vestingImplementationAddress",
      "outputs": [
        {
          "internalType": "address",
          "name": "",
          "type": "address"
        }
      ],
      "stateMutability": "view",
      "type": "function"
    }
  ],
  "transactionHash": "0x1678f5f9c628dc890edc036cad3c2a2cfdc853b69bc144b642faa937873bf561",
  "args": [],
  "numDeployments": 1,
  "solcInputHash": "70b6d9039f7c1c8b930371cd075ab95f",
  "bytecode": "0x608060405234801561001057600080fd5b50611387806100206000396000f3fe608060405234801561001057600080fd5b50600436106101e55760003560e01c806391d148541161010f578063cc6f0333116100a2578063d6f7489811610071578063d6f74898146103a8578063d8c12822146102d8578063e58378bb146103bb578063ee0ca4421461037257600080fd5b8063cc6f03331461037a578063ce1ee86a14610382578063d547741f14610395578063d6de71fd1461030e57600080fd5b8063b379c89a116100de578063b379c89a1461035f578063bc87783f14610369578063c1994af114610212578063c72967e21461037257600080fd5b806391d1485414610329578063a217fddf1461033c578063a5b62ff314610344578063abaf36df1461034c57600080fd5b806336568abe1161018757806362c1adc21161015657806362c1adc2146102fd57806370e4a63314610307578063884c45091461030e5780638b8efc631461031657600080fd5b806336568abe146102c5578063397a1cb3146102d8578063485cc955146102df578063605ff1bf146102f257600080fd5b806315ef4ddc116101c357806315ef4ddc14610259578063248a9ca31461026c5780632f2ff15d1461029d5780632f54bf6e146102b257600080fd5b806301ffc9a7146101ea5780631380d5d314610212578063159ce1351461022e575b600080fd5b6101fd6101f8366004610eb7565b6103d0565b60405190151581526020015b60405180910390f35b61021b61138881565b60405161ffff9091168152602001610209565b60ca54610241906001600160a01b031681565b6040516001600160a01b039091168152602001610209565b60c954610241906001600160a01b031681565b61028f61027a366004610ee1565b60009081526065602052604090206001015490565b604051908152602001610209565b6102b06102ab366004610f11565b610407565b005b6101fd6102c0366004610f3d565b610431565b6102b06102d3366004610f11565b61044b565b600061021b565b6102b06102ed366004610f58565b6104ce565b61028f6303c2670081565b6303c2670061028f565b600261028f565b61138861021b565b6102b0610324366004610f3d565b610612565b6101fd610337366004610f11565b6106a3565b61028f600081565b61028f600281565b61024161035a366004611001565b6106ce565b61028f6202a30081565b6202a30061028f565b61021b600081565b6102416107f7565b6102b0610390366004610f3d565b61085c565b6102b06103a3366004610f11565b6108dd565b6102b06103b6366004610f3d565b610902565b61028f60008051602061133283398151915281565b60006001600160e01b03198216637965db0b60e01b148061040157506301ffc9a760e01b6001600160e01b03198316145b92915050565b60008281526065602052604090206001015461042281610983565b61042c838361098d565b505050565b6000610401600080516020611332833981519152836106a3565b6001600160a01b03811633146104c05760405162461bcd60e51b815260206004820152602f60248201527f416363657373436f6e74726f6c3a2063616e206f6e6c792072656e6f756e636560448201526e103937b632b9903337b91039b2b63360891b60648201526084015b60405180910390fd5b6104ca8282610a13565b5050565b600054610100900460ff16158080156104ee5750600054600160ff909116105b806105085750303b158015610508575060005460ff166001145b61056b5760405162461bcd60e51b815260206004820152602e60248201527f496e697469616c697a61626c653a20636f6e747261637420697320616c72656160448201526d191e481a5b9a5d1a585b1a5e995960921b60648201526084016104b7565b6000805460ff19166001179055801561058e576000805461ff0019166101001790555b60c980546001600160a01b038086166001600160a01b03199283161790925560ca8054928516929091169190911790556105c86103243390565b801561042c576000805461ff0019169055604051600181527f7f26b83ff96e1f2b6a682f133852f6798a09c465da95921460cefb38474024989060200160405180910390a1505050565b600054610100900460ff166106395760405162461bcd60e51b81526004016104b7906110be565b6001600160a01b03811661066057604051633bf95ba760e01b815260040160405180910390fd5b610668610a7a565b610670610aa3565b6106886000805160206113328339815191528261098d565b6106a060008051602061133283398151915280610ad2565b50565b60009182526065602090815260408084206001600160a01b0393909316845291905290205460ff1690565b600080848433856040516020016106e8949392919061115e565b60408051601f19818403018152919052805160209091012060c954909150610719906001600160a01b031682610b1d565b604051636db6e03160e01b81529092506001600160a01b03831690636db6e0319061074c90889088903390600401611197565b600060405180830381600087803b15801561076657600080fd5b505af115801561077a573d6000803e3d6000fd5b505050506000858585604051602001610795939291906111cd565b60408051601f1981840301815282825280516020918201208084526001600160a01b0387169184019190915292507fa843b0068d872c047023d406f9e5cea249189566b6fe594909f554578e81656d910160405180910390a150509392505050565b60ca546000908190610811906001600160a01b0316610bba565b90507f2ee44d821b06c9aa990927d787f4adf9d8d3eb9bf798ef5c80415cd7a396560233604080516001600160a01b03928316815291841660208301520160405180910390a1919050565b61086533610431565b61088257604051632e6c18c960e11b815260040160405180910390fd5b61088b81610c54565b60ca80546001600160a01b038381166001600160a01b0319831681179093556040519116919082907f722ecaaadd945da6d0f5682999119f95d2be4f4bb04ce8883f85e86468f93c3090600090a35050565b6000828152606560205260409020600101546108f881610983565b61042c8383610a13565b61090b33610431565b61092857604051632e6c18c960e11b815260040160405180910390fd5b61093181610c54565b60c980546001600160a01b038381166001600160a01b0319831681179093556040519116919082907f0617fd31aa5ab95ec80eefc1eb61a2c477aa419d1d761b4e46f5f077e47852aa90600090a35050565b6106a08133610c7b565b61099782826106a3565b6104ca5760008281526065602090815260408083206001600160a01b03851684529091529020805460ff191660011790556109cf3390565b6001600160a01b0316816001600160a01b0316837f2f8788117e7eff1d82e926ec794901d17c78024a50270940304540a733656f0d60405160405180910390a45050565b610a1d82826106a3565b156104ca5760008281526065602090815260408083206001600160a01b0385168085529252808320805460ff1916905551339285917ff6391f5c32d9c69d2a47ea670b442974b53935d1edc7fd64eb21e047a839171b9190a45050565b600054610100900460ff16610aa15760405162461bcd60e51b81526004016104b7906110be565b565b600054610100900460ff16610aca5760405162461bcd60e51b81526004016104b7906110be565b610aa1610cd4565b600082815260656020526040808220600101805490849055905190918391839186917fbd79b86ffe0ab8e8776151514217cd7cacd52c909f66475c3af44e129f0b00ff9190a4505050565b6000763d602d80600a3d3981f3363d3d373d3d3d363d730000008360601b60e81c176000526e5af43d82803e903d91602b57fd5bf38360781b1760205281603760096000f590506001600160a01b0381166104015760405162461bcd60e51b815260206004820152601760248201527f455243313136373a2063726561746532206661696c656400000000000000000060448201526064016104b7565b6000763d602d80600a3d3981f3363d3d373d3d3d363d730000008260601b60e81c176000526e5af43d82803e903d91602b57fd5bf38260781b17602052603760096000f090506001600160a01b038116610c4f5760405162461bcd60e51b8152602060048201526016602482015275115490cc4c4d8dce8818dc99585d194819985a5b195960521b60448201526064016104b7565b919050565b6001600160a01b0381166106a057604051633bf95ba760e01b815260040160405180910390fd5b610c8582826106a3565b6104ca57610c9281610d02565b610c9d836020610d14565b604051602001610cae92919061121c565b60408051601f198184030181529082905262461bcd60e51b82526104b791600401611291565b600054610100900460ff16610cfb5760405162461bcd60e51b81526004016104b7906110be565b6001609755565b60606104016001600160a01b03831660145b60606000610d238360026112da565b610d2e9060026112f1565b67ffffffffffffffff811115610d4657610d46610f82565b6040519080825280601f01601f191660200182016040528015610d70576020820181803683370190505b509050600360fc1b81600081518110610d8b57610d8b611304565b60200101906001600160f81b031916908160001a905350600f60fb1b81600181518110610dba57610dba611304565b60200101906001600160f81b031916908160001a9053506000610dde8460026112da565b610de99060016112f1565b90505b6001811115610e61576f181899199a1a9b1b9c1cb0b131b232b360811b85600f1660108110610e1d57610e1d611304565b1a60f81b828281518110610e3357610e33611304565b60200101906001600160f81b031916908160001a90535060049490941c93610e5a8161131a565b9050610dec565b508315610eb05760405162461bcd60e51b815260206004820181905260248201527f537472696e67733a20686578206c656e67746820696e73756666696369656e7460448201526064016104b7565b9392505050565b600060208284031215610ec957600080fd5b81356001600160e01b031981168114610eb057600080fd5b600060208284031215610ef357600080fd5b5035919050565b80356001600160a01b0381168114610c4f57600080fd5b60008060408385031215610f2457600080fd5b82359150610f3460208401610efa565b90509250929050565b600060208284031215610f4f57600080fd5b610eb082610efa565b60008060408385031215610f6b57600080fd5b610f7483610efa565b9150610f3460208401610efa565b634e487b7160e01b600052604160045260246000fd5b6040805190810167ffffffffffffffff81118282101715610fc957634e487b7160e01b600052604160045260246000fd5b60405290565b604051610240810167ffffffffffffffff81118282101715610fc957634e487b7160e01b600052604160045260246000fd5b60008060006102a0848603121561101757600080fd5b84601f85011261102657600080fd5b61102e610f98565b80604086018781111561104057600080fd5b865b818110156110615761105381610efa565b845260209384019301611042565b5081955087605f88011261107457600080fd5b61107c610fcf565b925082915061028087018881111561109357600080fd5b5b808210156110af578135845260209384019390910190611094565b95989197505093359450505050565b6020808252602b908201527f496e697469616c697a61626c653a20636f6e7472616374206973206e6f74206960408201526a6e697469616c697a696e6760a81b606082015260800190565b8060005b60028110156111355781516001600160a01b031684526020938401939091019060010161110d565b50505050565b8060005b601281101561113557815184526020938401939091019060010161113f565b6102c0810161116d8287611109565b61117a604083018661113b565b6001600160a01b03939093166102808201526102a0015292915050565b6102a081016111a68286611109565b6111b3604083018561113b565b6001600160a01b0392909216610280919091015292915050565b6102a081016111dc8286611109565b6111e9604083018561113b565b82610280830152949350505050565b60005b838110156112135781810151838201526020016111fb565b50506000910152565b7f416363657373436f6e74726f6c3a206163636f756e74200000000000000000008152600083516112548160178501602088016111f8565b7001034b99036b4b9b9b4b733903937b6329607d1b60179184019182015283516112858160288401602088016111f8565b01602801949350505050565b60208152600082518060208401526112b08160408501602087016111f8565b601f01601f19169190910160400192915050565b634e487b7160e01b600052601160045260246000fd5b8082028115828204841417610401576104016112c4565b80820180821115610401576104016112c4565b634e487b7160e01b600052603260045260246000fd5b600081611329576113296112c4565b50600019019056feb19546dff01e856fb3f010c267a7b1c60363cf8a4664e21cc89c26224620214ea26469706673582212204e4d84b495586276d76f642f235cf2da32bfe336047a03720b9f0ac93a1dd64764736f6c63430008170033",
  "devdoc": {
    "author": "Paid",
    "events": {
      "Initialized(uint8)": {
        "details": "Triggered when the contract has been initialized or reinitialized."
      },
      "RoleAdminChanged(bytes32,bytes32,bytes32)": {
        "details": "Emitted when `newAdminRole` is set as ``role``'s admin role, replacing `previousAdminRole` `DEFAULT_ADMIN_ROLE` is the starting admin for all roles, despite {RoleAdminChanged} not being emitted signaling this. _Available since v3.1._"
      },
      "RoleGranted(bytes32,address,address)": {
        "details": "Emitted when `account` is granted `role`. `sender` is the account that originated the contract call, an admin role bearer except when using {AccessControl-_setupRole}."
      },
      "RoleRevoked(bytes32,address,address)": {
        "details": "Emitted when `account` is revoked `role`. `sender` is the account that originated the contract call:   - if using `revokeRole`, it is the admin role bearer   - if using `renounceRole`, it is the role bearer (i.e. `account`)"
      }
    },
    "kind": "dev",
    "methods": {
      "createPool(address[2],uint256[18],uint256)": {
        "details": "Only has one pool address respectively for one input params",
        "params": {
          "addrs": "Array of address includes: - address of IDO token, - address of purchase token",
          "dbProjectId": "Project Id in database",
          "uints": "Array of pool information includes: - max purchase amount for KYC user, - max purchase amount for Not KYC user, - token project fee percentage, // will be sent to admin if success or investor in vice versa - galaxy participation fee percentage, // will be sent to admin - crowdfunding participation fee percentage, // will be sent to admin - galaxy pool proportion, (ratio with all project) - early access proportion, (ratio with only crowdfunding pool) - total raise amount, - whale open time, - whale duration, - community duration, - rate of IDO token (based on formula in README), - decimal of IDO token (based on formula in README, is different from decimals in contract of IDO token), - TGE date, - TGE percentage, - vesting cliff, - vesting frequency, - number of vesting release"
        },
        "returns": {
          "pool": "Address of new pool"
        }
      },
      "getRoleAdmin(bytes32)": {
        "details": "Returns the admin role that controls `role`. See {grantRole} and {revokeRole}. To change a role's admin, use {_setRoleAdmin}."
      },
      "grantRole(bytes32,address)": {
        "details": "Grants `role` to `account`. If `account` had not been already granted `role`, emits a {RoleGranted} event. Requirements: - the caller must have ``role``'s admin role. May emit a {RoleGranted} event."
      },
      "hasRole(bytes32,address)": {
        "details": "Returns `true` if `account` has been granted `role`."
      },
      "initialize(address,address)": {
        "details": "Called only once",
        "params": {
          "_poolImplementationAddress": "Address of pool implementation"
        }
      },
      "renounceRole(bytes32,address)": {
        "details": "Revokes `role` from the calling account. Roles are often managed via {grantRole} and {revokeRole}: this function's purpose is to provide a mechanism for accounts to lose their privileges if they are compromised (such as when a trusted device is misplaced). If the calling account had been revoked `role`, emits a {RoleRevoked} event. Requirements: - the caller must be `account`. May emit a {RoleRevoked} event."
      },
      "revokeRole(bytes32,address)": {
        "details": "Revokes `role` from `account`. If `account` had been granted `role`, emits a {RoleRevoked} event. Requirements: - the caller must have ``role``'s admin role. May emit a {RoleRevoked} event."
      },
      "setPoolImplementation(address)": {
        "details": "Only admin can can call it",
        "params": {
          "_poolImplementationAddress": "Address of new pool implementation"
        }
      },
      "setVestingImplementation(address)": {
        "details": "Only admin can can call it",
        "params": {
          "_vestingImplementationAddress": "Address of new vesting implementation"
        }
      },
      "supportsInterface(bytes4)": {
        "details": "See {IERC165-supportsInterface}."
      }
    },
    "stateVariables": {
      "LOCKUP_DURATION": {
        "details": "Lockup duration after TGE Date"
      },
      "MAXIMUM_CROWN_FUNDING_PARTICIPATION_FEE_PERCENTAGE": {
        "details": "Minumum crown participation fee percentage for pool deployment"
      },
      "MAXIMUM_GALAXY_PARTICIPATION_FEE_PERCENTAGE": {
        "details": "Maximum galaxy participation fee percentage for pool deployment"
      },
      "MAXIMUM_TGE_DATE_ADJUSTMENT": {
        "details": "Maximum TGE Date adjustment when it comes to TGE Update"
      },
      "MAXIMUM_TGE_DATE_ADJUSTMENT_ATTEMPS": {
        "details": "Maximum TGE Date adjustment attemps when it comes to TGE Update"
      },
      "MINIMUM_CROWN_FUNDING_PARTICIPATION_FEE_PERCENTAGE": {
        "details": "Minimum crown participation fee percentage for pool deployment"
      },
      "MINIMUM_GALAXY_PARTICIPATION_FEE_PERCENTAGE": {
        "details": "Minimum galaxy participation fee percentage for pool deployment"
      },
      "poolImplementationAddress": {
        "details": "Address of pool implementation"
      },
      "vestingImplementationAddress": {
        "details": "Address of vesting implementation"
      }
    },
    "title": "Ignition Factory Contract",
    "version": 1
  },
  "userdoc": {
    "kind": "user",
    "methods": {
      "OWNER_ROLE()": {
        "notice": "keccak256(\"OWNER_ROLE\")"
      },
      "createPool(address[2],uint256[18],uint256)": {
        "notice": "Create new pool. One pool has 2 sub-pool: galaxy pool and crowfunding pool, with 2 different participation fee. In crowfunding pool, there is a part for WHALE to buy early (called EARLY ACCESS) and another for NORMAL user to buy (called NORMAL ACCESS). Duration of galaxy pool and EARLY ACCESS are same and before duration of NORMAL ACCESS. There are 3 types of fund: PARTICIPATION FEE, TOKEN FEE and COLLABORATOR FUND. Investors need to pay PURCHASE AMOUNT and PARTICIPATION FEE PURCHASE AMOUNT (purchase token) = TOKEN FEE + COLLABORATOR FUND = total raise amount (IDO token) * price Sale End -> TGE Date -> 14 days -> Lockup 14 days is a config variable in the system (constant) If project is success (not be cancelled by admin or funded enough IDO token or not emergency canceled in lockup duration),  - System's admin claims participation fee and token fee after lockup time    (call pool.claimParticipationFee(), pool.claimTokenFee())  - Collaborator claims collaborator fund (purchased amount - token fee) based on vesting rule after lockup time (vesting schedule start from TGE date)    (call pool.claimFund())  - Investors claim IDO token based on vesting rule after TGE date    (call vesting.claim())  - Collaborator withdraws redundant IDO token after TGE date    (call pool.withdrawRedundantIDOToken()) If project is fail before TGE Date (cancelled by admin or not be funded enough IDO token) (of course before TGE date)  - Investors withdraw purchased amount and participation fee after cancelled time or TGE date    (call pool.withdrawPurchasedAmountAndParticipationFee())  - Collaborator withdraws funded IDO token after cancelled time or TGE date    (call pool.withdrawRedundantIDOToken()) If project is fail after TGE Date and before Lockup time  - Investors claim IDO token based on vesting rule after TGE date and before cancelled time    (call vesting.claim())  - Investors withdraw purchased amount and participation fee at cancelled time    (call pool.withdrawPurchasedAmount())  - Collaborator withdraws redundant IDO token after TGE date and before cancelled time    (call pool.withdrawRedundantIDOToken())  - All remaining IDO will be locked in contract."
      },
      "createVesting()": {
        "notice": "create Vesting Proxy(clones) contract using Clone pattern"
      },
      "initialize(address,address)": {
        "notice": "Initialize pool factory with address of pool implementation"
      },
      "setPoolImplementation(address)": {
        "notice": "Set or change address of pool implementation"
      },
      "setVestingImplementation(address)": {
        "notice": "Set or change address of vesting implementation"
      }
    },
    "notice": "- Main contracts: IgnitionFactory, Pool, Vesting. - IgnitionFactory: This contract will be used to deploy a pair Pool + Vesting contract for collaborator. - Contract is upgradeable using `TransparentProxy` pattern. - Collaborator can create pool by calling `CreatePool` function. - Pool: This contract will be used as a main contract for investors, Collaborator for most IDO actions such as buy token, Claim IDO token, fund token, etc. - Pool Contract is using `Clone (Minimal proxy` pattern to reduce the gas fee during deployment. - Vesting: This contract will be used as a utility contract to separate logic vesting from Pool contract. - Vesting Contract is using `Clone (Minimal proxy` pattern to reduce the gas fee during deployment.",
    "version": 1
  },
  "storageLayout": {
    "storage": [
      {
        "astId": 416,
        "contract": "contracts/core/IgnitionFactory.sol:IgnitionFactory",
        "label": "_initialized",
        "offset": 0,
        "slot": "0",
        "type": "t_uint8"
      },
      {
        "astId": 419,
        "contract": "contracts/core/IgnitionFactory.sol:IgnitionFactory",
        "label": "_initializing",
        "offset": 1,
        "slot": "0",
        "type": "t_bool"
      },
      {
        "astId": 1043,
        "contract": "contracts/core/IgnitionFactory.sol:IgnitionFactory",
        "label": "__gap",
        "offset": 0,
        "slot": "1",
        "type": "t_array(t_uint256)50_storage"
      },
      {
        "astId": 1317,
        "contract": "contracts/core/IgnitionFactory.sol:IgnitionFactory",
        "label": "__gap",
        "offset": 0,
        "slot": "51",
        "type": "t_array(t_uint256)50_storage"
      },
      {
        "astId": 28,
        "contract": "contracts/core/IgnitionFactory.sol:IgnitionFactory",
        "label": "_roles",
        "offset": 0,
        "slot": "101",
        "type": "t_mapping(t_bytes32,t_struct(RoleData)23_storage)"
      },
      {
        "astId": 335,
        "contract": "contracts/core/IgnitionFactory.sol:IgnitionFactory",
        "label": "__gap",
        "offset": 0,
        "slot": "102",
        "type": "t_array(t_uint256)49_storage"
      },
      {
        "astId": 593,
        "contract": "contracts/core/IgnitionFactory.sol:IgnitionFactory",
        "label": "_status",
        "offset": 0,
        "slot": "151",
        "type": "t_uint256"
      },
      {
        "astId": 662,
        "contract": "contracts/core/IgnitionFactory.sol:IgnitionFactory",
        "label": "__gap",
        "offset": 0,
        "slot": "152",
        "type": "t_array(t_uint256)49_storage"
      },
      {
        "astId": 2554,
        "contract": "contracts/core/IgnitionFactory.sol:IgnitionFactory",
        "label": "poolImplementationAddress",
        "offset": 0,
        "slot": "201",
        "type": "t_address"
      },
      {
        "astId": 2557,
        "contract": "contracts/core/IgnitionFactory.sol:IgnitionFactory",
        "label": "vestingImplementationAddress",
        "offset": 0,
        "slot": "202",
        "type": "t_address"
      }
    ],
    "types": {
      "t_address": {
        "encoding": "inplace",
        "label": "address",
        "numberOfBytes": "20"
      },
      "t_array(t_uint256)49_storage": {
        "base": "t_uint256",
        "encoding": "inplace",
        "label": "uint256[49]",
        "numberOfBytes": "1568"
      },
      "t_array(t_uint256)50_storage": {
        "base": "t_uint256",
        "encoding": "inplace",
        "label": "uint256[50]",
        "numberOfBytes": "1600"
      },
      "t_bool": {
        "encoding": "inplace",
        "label": "bool",
        "numberOfBytes": "1"
      },
      "t_bytes32": {
        "encoding": "inplace",
        "label": "bytes32",
        "numberOfBytes": "32"
      },
      "t_mapping(t_address,t_bool)": {
        "encoding": "mapping",
        "key": "t_address",
        "label": "mapping(address => bool)",
        "numberOfBytes": "32",
        "value": "t_bool"
      },
      "t_mapping(t_bytes32,t_struct(RoleData)23_storage)": {
        "encoding": "mapping",
        "key": "t_bytes32",
        "label": "mapping(bytes32 => struct AccessControlUpgradeable.RoleData)",
        "numberOfBytes": "32",
        "value": "t_struct(RoleData)23_storage"
      },
      "t_struct(RoleData)23_storage": {
        "encoding": "inplace",
        "label": "struct AccessControlUpgradeable.RoleData",
        "members": [
          {
            "astId": 20,
            "contract": "contracts/core/IgnitionFactory.sol:IgnitionFactory",
            "label": "members",
            "offset": 0,
            "slot": "0",
            "type": "t_mapping(t_address,t_bool)"
          },
          {
            "astId": 22,
            "contract": "contracts/core/IgnitionFactory.sol:IgnitionFactory",
            "label": "adminRole",
            "offset": 0,
            "slot": "1",
            "type": "t_bytes32"
          }
        ],
        "numberOfBytes": "64"
      },
      "t_uint256": {
        "encoding": "inplace",
        "label": "uint256",
        "numberOfBytes": "32"
      },
      "t_uint8": {
        "encoding": "inplace",
        "label": "uint8",
        "numberOfBytes": "1"
      }
    }
  }
}