{
  "address": "0xFC1ef515F18217e689A31E686F6fDbB2873Ea7c4",
  "abi": [
    {
      "inputs": [],
      "name": "AlreadyClaimTotalAmount",
      "type": "error"
    },
    {
      "inputs": [],
      "name": "CallerNotOwner",
      "type": "error"
    },
    {
      "inputs": [],
      "name": "InvalidClaimableAmount",
      "type": "error"
    },
    {
      "inputs": [],
      "name": "NotAllowedToClaimIDOToken",
      "type": "error"
    },
    {
      "inputs": [],
      "name": "NotAllowedToDoAfterEmergencyCancelled",
      "type": "error"
    },
    {
      "inputs": [],
      "name": "NotAllowedToTransferBBeforeTGEDate",
      "type": "error"
    },
    {
      "inputs": [],
      "name": "ZeroAddressNotValid",
      "type": "error"
    },
    {
      "inputs": [],
      "name": "ZeroAmountNotValid",
      "type": "error"
    },
    {
      "anonymous": false,
      "inputs": [
        {
          "indexed": false,
          "internalType": "address",
          "name": "sender",
          "type": "address"
        },
        {
          "indexed": false,
          "internalType": "address",
          "name": "beneficiary",
          "type": "address"
        },
        {
          "indexed": false,
          "internalType": "uint256",
          "name": "claimableAmount",
          "type": "uint256"
        }
      ],
      "name": "ClaimIDOToken",
      "type": "event"
    },
    {
      "anonymous": false,
      "inputs": [
        {
          "indexed": false,
          "internalType": "bool",
          "name": "status",
          "type": "bool"
        }
      ],
      "name": "Funded",
      "type": "event"
    },
    {
      "anonymous": false,
      "inputs": [
        {
          "indexed": false,
          "internalType": "uint8",
          "name": "version",
          "type": "uint8"
        }
      ],
      "name": "Initialized",
      "type": "event"
    },
    {
      "anonymous": false,
      "inputs": [
        {
          "indexed": true,
          "internalType": "bytes32",
          "name": "role",
          "type": "bytes32"
        },
        {
          "indexed": true,
          "internalType": "bytes32",
          "name": "previousAdminRole",
          "type": "bytes32"
        },
        {
          "indexed": true,
          "internalType": "bytes32",
          "name": "newAdminRole",
          "type": "bytes32"
        }
      ],
      "name": "RoleAdminChanged",
      "type": "event"
    },
    {
      "anonymous": false,
      "inputs": [
        {
          "indexed": true,
          "internalType": "bytes32",
          "name": "role",
          "type": "bytes32"
        },
        {
          "indexed": true,
          "internalType": "address",
          "name": "account",
          "type": "address"
        },
        {
          "indexed": true,
          "internalType": "address",
          "name": "sender",
          "type": "address"
        }
      ],
      "name": "RoleGranted",
      "type": "event"
    },
    {
      "anonymous": false,
      "inputs": [
        {
          "indexed": true,
          "internalType": "bytes32",
          "name": "role",
          "type": "bytes32"
        },
        {
          "indexed": true,
          "internalType": "address",
          "name": "account",
          "type": "address"
        },
        {
          "indexed": true,
          "internalType": "address",
          "name": "sender",
          "type": "address"
        }
      ],
      "name": "RoleRevoked",
      "type": "event"
    },
    {
      "anonymous": false,
      "inputs": [
        {
          "indexed": false,
          "internalType": "bool",
          "name": "status",
          "type": "bool"
        }
      ],
      "name": "SetClaimableStatus",
      "type": "event"
    },
    {
      "anonymous": false,
      "inputs": [
        {
          "indexed": false,
          "internalType": "bool",
          "name": "status",
          "type": "bool"
        }
      ],
      "name": "SetEmergencyCancelled",
      "type": "event"
    },
    {
      "anonymous": false,
      "inputs": [
        {
          "indexed": false,
          "internalType": "address",
          "name": "IDOToken",
          "type": "address"
        }
      ],
      "name": "SetIDOTokenAddress",
      "type": "event"
    },
    {
      "anonymous": false,
      "inputs": [
        {
          "indexed": false,
          "internalType": "uint64",
          "name": "newTGEDate",
          "type": "uint64"
        }
      ],
      "name": "UpdateTGEDate",
      "type": "event"
    },
    {
      "anonymous": false,
      "inputs": [
        {
          "indexed": false,
          "internalType": "address",
          "name": "beneficiary",
          "type": "address"
        },
        {
          "indexed": false,
          "internalType": "uint256",
          "name": "redundantAmount",
          "type": "uint256"
        }
      ],
      "name": "WithdrawRedundantIDOToken",
      "type": "event"
    },
    {
      "inputs": [],
      "name": "DEFAULT_ADMIN_ROLE",
      "outputs": [
        {
          "internalType": "bytes32",
          "name": "",
          "type": "bytes32"
        }
      ],
      "stateMutability": "view",
      "type": "function"
    },
    {
      "inputs": [],
      "name": "IDOToken",
      "outputs": [
        {
          "internalType": "contract IERC20withDec",
          "name": "",
          "type": "address"
        }
      ],
      "stateMutability": "view",
      "type": "function"
    },
    {
      "inputs": [],
      "name": "OWNER_ROLE",
      "outputs": [
        {
          "internalType": "bytes32",
          "name": "",
          "type": "bytes32"
        }
      ],
      "stateMutability": "view",
      "type": "function"
    },
    {
      "inputs": [],
      "name": "PERCENTAGE_DENOMINATOR",
      "outputs": [
        {
          "internalType": "uint16",
          "name": "",
          "type": "uint16"
        }
      ],
      "stateMutability": "view",
      "type": "function"
    },
    {
      "inputs": [],
      "name": "TGEDate",
      "outputs": [
        {
          "internalType": "uint64",
          "name": "",
          "type": "uint64"
        }
      ],
      "stateMutability": "view",
      "type": "function"
    },
    {
      "inputs": [],
      "name": "TGEPercentage",
      "outputs": [
        {
          "internalType": "uint16",
          "name": "",
          "type": "uint16"
        }
      ],
      "stateMutability": "view",
      "type": "function"
    },
    {
      "inputs": [
        {
          "internalType": "address",
          "name": "owner",
          "type": "address"
        }
      ],
      "name": "__Base__init",
      "outputs": [],
      "stateMutability": "nonpayable",
      "type": "function"
    },
    {
      "inputs": [
        {
          "internalType": "address",
          "name": "_beneficiary",
          "type": "address"
        }
      ],
      "name": "claimIDOToken",
      "outputs": [],
      "stateMutability": "nonpayable",
      "type": "function"
    },
    {
      "inputs": [],
      "name": "claimable",
      "outputs": [
        {
          "internalType": "bool",
          "name": "",
          "type": "bool"
        }
      ],
      "stateMutability": "view",
      "type": "function"
    },
    {
      "inputs": [
        {
          "internalType": "address",
          "name": "_user",
          "type": "address"
        },
        {
          "internalType": "uint256",
          "name": "_totalAmount",
          "type": "uint256"
        }
      ],
      "name": "createVestingSchedule",
      "outputs": [],
      "stateMutability": "nonpayable",
      "type": "function"
    },
    {
      "inputs": [],
      "name": "emergencyCancelled",
      "outputs": [
        {
          "internalType": "bool",
          "name": "",
          "type": "bool"
        }
      ],
      "stateMutability": "view",
      "type": "function"
    },
    {
      "inputs": [],
      "name": "funded",
      "outputs": [
        {
          "internalType": "bool",
          "name": "",
          "type": "bool"
        }
      ],
      "stateMutability": "view",
      "type": "function"
    },
    {
      "inputs": [
        {
          "internalType": "address",
          "name": "user",
          "type": "address"
        }
      ],
      "name": "getClaimableAmount",
      "outputs": [
        {
          "internalType": "uint256",
          "name": "",
          "type": "uint256"
        }
      ],
      "stateMutability": "view",
      "type": "function"
    },
    {
      "inputs": [],
      "name": "getIDOToken",
      "outputs": [
        {
          "internalType": "contract IERC20withDec",
          "name": "",
          "type": "address"
        }
      ],
      "stateMutability": "view",
      "type": "function"
    },
    {
      "inputs": [],
      "name": "getInitialTGEDate",
      "outputs": [
        {
          "internalType": "uint64",
          "name": "",
          "type": "uint64"
        }
      ],
      "stateMutability": "view",
      "type": "function"
    },
    {
      "inputs": [
        {
          "internalType": "bytes32",
          "name": "role",
          "type": "bytes32"
        }
      ],
      "name": "getRoleAdmin",
      "outputs": [
        {
          "internalType": "bytes32",
          "name": "",
          "type": "bytes32"
        }
      ],
      "stateMutability": "view",
      "type": "function"
    },
    {
      "inputs": [],
      "name": "getTotalFundedAmount",
      "outputs": [
        {
          "internalType": "uint256",
          "name": "",
          "type": "uint256"
        }
      ],
      "stateMutability": "view",
      "type": "function"
    },
    {
      "inputs": [],
      "name": "getVestingInfo",
      "outputs": [
        {
          "internalType": "uint64",
          "name": "",
          "type": "uint64"
        },
        {
          "internalType": "uint16",
          "name": "",
          "type": "uint16"
        },
        {
          "internalType": "uint64",
          "name": "",
          "type": "uint64"
        },
        {
          "internalType": "uint64",
          "name": "",
          "type": "uint64"
        },
        {
          "internalType": "uint256",
          "name": "",
          "type": "uint256"
        }
      ],
      "stateMutability": "view",
      "type": "function"
    },
    {
      "inputs": [
        {
          "internalType": "address",
          "name": "_address",
          "type": "address"
        }
      ],
      "name": "getVestingInfoForAddress",
      "outputs": [
        {
          "internalType": "uint256",
          "name": "",
          "type": "uint256"
        },
        {
          "internalType": "uint256",
          "name": "",
          "type": "uint256"
        }
      ],
      "stateMutability": "view",
      "type": "function"
    },
    {
      "inputs": [
        {
          "internalType": "bytes32",
          "name": "role",
          "type": "bytes32"
        },
        {
          "internalType": "address",
          "name": "account",
          "type": "address"
        }
      ],
      "name": "grantRole",
      "outputs": [],
      "stateMutability": "nonpayable",
      "type": "function"
    },
    {
      "inputs": [
        {
          "internalType": "bytes32",
          "name": "role",
          "type": "bytes32"
        },
        {
          "internalType": "address",
          "name": "account",
          "type": "address"
        }
      ],
      "name": "hasRole",
      "outputs": [
        {
          "internalType": "bool",
          "name": "",
          "type": "bool"
        }
      ],
      "stateMutability": "view",
      "type": "function"
    },
    {
      "inputs": [],
      "name": "initialTGEDate",
      "outputs": [
        {
          "internalType": "uint64",
          "name": "",
          "type": "uint64"
        }
      ],
      "stateMutability": "view",
      "type": "function"
    },
    {
      "inputs": [
        {
          "internalType": "address",
          "name": "owner",
          "type": "address"
        },
        {
          "internalType": "address",
          "name": "_IDOToken",
          "type": "address"
        },
        {
          "internalType": "uint256",
          "name": "_TGEDate",
          "type": "uint256"
        },
        {
          "internalType": "uint256",
          "name": "_TGEPercentage",
          "type": "uint256"
        },
        {
          "internalType": "uint256",
          "name": "_vestingCliff",
          "type": "uint256"
        },
        {
          "internalType": "uint256",
          "name": "_vestingFrequency",
          "type": "uint256"
        },
        {
          "internalType": "uint256",
          "name": "_numberOfVestingRelease",
          "type": "uint256"
        }
      ],
      "name": "initialize",
      "outputs": [],
      "stateMutability": "nonpayable",
      "type": "function"
    },
    {
      "inputs": [],
      "name": "isClaimable",
      "outputs": [
        {
          "internalType": "bool",
          "name": "",
          "type": "bool"
        }
      ],
      "stateMutability": "view",
      "type": "function"
    },
    {
      "inputs": [],
      "name": "isEmergencyCancelled",
      "outputs": [
        {
          "internalType": "bool",
          "name": "",
          "type": "bool"
        }
      ],
      "stateMutability": "view",
      "type": "function"
    },
    {
      "inputs": [],
      "name": "isFunded",
      "outputs": [
        {
          "internalType": "bool",
          "name": "",
          "type": "bool"
        }
      ],
      "stateMutability": "view",
      "type": "function"
    },
    {
      "inputs": [
        {
          "internalType": "address",
          "name": "sender",
          "type": "address"
        }
      ],
      "name": "isOwner",
      "outputs": [
        {
          "internalType": "bool",
          "name": "",
          "type": "bool"
        }
      ],
      "stateMutability": "view",
      "type": "function"
    },
    {
      "inputs": [],
      "name": "isPrivateRaise",
      "outputs": [
        {
          "internalType": "bool",
          "name": "",
          "type": "bool"
        }
      ],
      "stateMutability": "view",
      "type": "function"
    },
    {
      "inputs": [],
      "name": "numberOfVestingRelease",
      "outputs": [
        {
          "internalType": "uint256",
          "name": "",
          "type": "uint256"
        }
      ],
      "stateMutability": "view",
      "type": "function"
    },
    {
      "inputs": [],
      "name": "privateRaise",
      "outputs": [
        {
          "internalType": "bool",
          "name": "",
          "type": "bool"
        }
      ],
      "stateMutability": "view",
      "type": "function"
    },
    {
      "inputs": [
        {
          "internalType": "bytes32",
          "name": "role",
          "type": "bytes32"
        },
        {
          "internalType": "address",
          "name": "account",
          "type": "address"
        }
      ],
      "name": "renounceRole",
      "outputs": [],
      "stateMutability": "nonpayable",
      "type": "function"
    },
    {
      "inputs": [
        {
          "internalType": "bytes32",
          "name": "role",
          "type": "bytes32"
        },
        {
          "internalType": "address",
          "name": "account",
          "type": "address"
        }
      ],
      "name": "revokeRole",
      "outputs": [],
      "stateMutability": "nonpayable",
      "type": "function"
    },
    {
      "inputs": [
        {
          "internalType": "bool",
          "name": "_status",
          "type": "bool"
        }
      ],
      "name": "setClaimableStatus",
      "outputs": [],
      "stateMutability": "nonpayable",
      "type": "function"
    },
    {
      "inputs": [
        {
          "internalType": "bool",
          "name": "_status",
          "type": "bool"
        }
      ],
      "name": "setEmergencyCancelled",
      "outputs": [],
      "stateMutability": "nonpayable",
      "type": "function"
    },
    {
      "inputs": [
        {
          "internalType": "uint256",
          "name": "fundedAmount",
          "type": "uint256"
        },
        {
          "internalType": "bool",
          "name": "_status",
          "type": "bool"
        }
      ],
      "name": "setFundedStatus",
      "outputs": [],
      "stateMutability": "nonpayable",
      "type": "function"
    },
    {
      "inputs": [
        {
          "internalType": "contract IERC20withDec",
          "name": "_IDOToken",
          "type": "address"
        }
      ],
      "name": "setIDOToken",
      "outputs": [],
      "stateMutability": "nonpayable",
      "type": "function"
    },
    {
      "inputs": [
        {
          "internalType": "bytes4",
          "name": "interfaceId",
          "type": "bytes4"
        }
      ],
      "name": "supportsInterface",
      "outputs": [
        {
          "internalType": "bool",
          "name": "",
          "type": "bool"
        }
      ],
      "stateMutability": "view",
      "type": "function"
    },
    {
      "inputs": [],
      "name": "totalFundedAmount",
      "outputs": [
        {
          "internalType": "uint256",
          "name": "",
          "type": "uint256"
        }
      ],
      "stateMutability": "view",
      "type": "function"
    },
    {
      "inputs": [
        {
          "internalType": "uint64",
          "name": "_TGEDate",
          "type": "uint64"
        }
      ],
      "name": "updateTGEDate",
      "outputs": [],
      "stateMutability": "nonpayable",
      "type": "function"
    },
    {
      "inputs": [
        {
          "internalType": "address",
          "name": "",
          "type": "address"
        }
      ],
      "name": "vestingAmountInfo",
      "outputs": [
        {
          "internalType": "uint256",
          "name": "totalAmount",
          "type": "uint256"
        },
        {
          "internalType": "uint256",
          "name": "claimedAmount",
          "type": "uint256"
        }
      ],
      "stateMutability": "view",
      "type": "function"
    },
    {
      "inputs": [],
      "name": "vestingCliff",
      "outputs": [
        {
          "internalType": "uint64",
          "name": "",
          "type": "uint64"
        }
      ],
      "stateMutability": "view",
      "type": "function"
    },
    {
      "inputs": [],
      "name": "vestingFrequency",
      "outputs": [
        {
          "internalType": "uint64",
          "name": "",
          "type": "uint64"
        }
      ],
      "stateMutability": "view",
      "type": "function"
    },
    {
      "inputs": [
        {
          "internalType": "address",
          "name": "_beneficiary",
          "type": "address"
        },
        {
          "internalType": "uint256",
          "name": "_redundantAmount",
          "type": "uint256"
        }
      ],
      "name": "withdrawRedundantIDOToken",
      "outputs": [],
      "stateMutability": "nonpayable",
      "type": "function"
    }
  ],
  "transactionHash": "0x979e19861194e002dcbb4983e591d85d59c8b36a19936ab6c9d7a8a779387b23",
  "args": [],
  "numDeployments": 1,
  "solcInputHash": "e09ccd2b05949c30fa8102d764961fd0",
  "bytecode": "0x608060405234801561001057600080fd5b50611dd4806100206000396000f3fe608060405234801561001057600080fd5b50600436106102695760003560e01c80637c65430311610151578063bdf618ba116100c3578063e37bcc2011610087578063e37bcc2014610600578063e3b37f3014610611578063e58378bb14610624578063edbf4ac214610639578063f3640e741461064c578063f3a504f21461066657600080fd5b8063bdf618ba14610530578063cb12872814610561578063d547741f1461057b578063dc25a3001461058e578063e12f3a61146105ed57600080fd5b80639aa74a8c116101155780639aa74a8c146104c1578063a217fddf146104d2578063af38d757146104da578063b3cd4254146104ec578063b458227614610508578063b57fa0db1461051d57600080fd5b80637c654303146104755780638488e5e61461048057806387e44935146104885780638b8efc631461049b57806391d14854146104ae57600080fd5b80633614ea4f116101ea5780635671e8c9116101ae5780635671e8c9146103e757806358e0fb55146103fa5780635dccc1e41461040d578063646fcfa91461042057806374478bb31461045257806378ecb4ee1461046257600080fd5b80633614ea4f14610369578063364d96041461037257806336568abe14610385578063419544a0146103985780634e76bad8146103ab57600080fd5b8063164e2c2a11610231578063164e2c2a146102e95780631db5efe6146102fb578063248a9ca3146103205780632f2ff15d146103435780632f54bf6e1461035657600080fd5b806301ffc9a71461026e57806303eed66a146102965780630c8f6d00146102ab5780630d00c2ee146102be5780631439aef2146102d2575b600080fd5b61028161027c3660046119e6565b610673565b60405190151581526020015b60405180910390f35b6102a96102a4366004611a1e565b6106aa565b005b6102a96102b9366004611a63565b61071d565b600554610281906301000000900460ff1681565b6102db60035481565b60405190815260200161028d565b6005546301000000900460ff16610281565b6000546001600160a01b03165b6040516001600160a01b03909116815260200161028d565b6102db61032e366004611a80565b6000908152606a602052604090206001015490565b6102a9610351366004611a99565b610798565b610281610364366004611a63565b6107c2565b6102db60025481565b6102a9610380366004611a63565b6107dc565b6102a9610393366004611a99565b610a4a565b6102a96103a6366004611abe565b610acd565b6103d26103b9366004611a63565b6004602052600090815260409020805460019091015482565b6040805192835260208301919091520161028d565b6102a96103f5366004611aea565b610b45565b6102a9610408366004611aea565b610bb4565b6102a961041b366004611abe565b610c25565b60015461043a90600160901b90046001600160401b031681565b6040516001600160401b03909116815260200161028d565b600554610100900460ff16610281565b6005546102819062010000900460ff1681565b60055460ff16610281565b6003546102db565b600054610308906001600160a01b031681565b6102a96104a9366004611a63565b610cd7565b6102816104bc366004611a99565b610d67565b60055462010000900460ff16610281565b6102db600081565b60055461028190610100900460ff1681565b6104f561271081565b60405161ffff909116815260200161028d565b6001546104f590600160401b900461ffff1681565b60015461043a906001600160401b031681565b6103d261053e366004611a63565b6001600160a01b0316600090815260046020526040902080546001909101549091565b60005461043a90600160a01b90046001600160401b031681565b6102a9610589366004611a99565b610d92565b60005460015460025460408051600160a01b9094046001600160401b039081168552600160401b840461ffff166020860152600160501b8404811691850191909152600160901b9092049091166060830152608082015260a00161028d565b6102db6105fb366004611a63565b610db7565b6001546001600160401b031661043a565b6102a961061f366004611b07565b610ebc565b6102db600080516020611d7f83398151915281565b6102a9610647366004611b30565b610f3d565b60015461043a90600160501b90046001600160401b031681565b6005546102819060ff1681565b60006001600160e01b03198216637965db0b60e01b14806106a457506301ffc9a760e01b6001600160e01b03198316145b92915050565b6106b3336107c2565b6106d057604051632e6c18c960e11b815260040160405180910390fd5b6005805460ff191682151590811790915560038390556040519081527f5cf6fb00ad75ebe42b35e396bfd4e9b28c58c9014908950f750c6791aa8c6b8b9060200160405180910390a15050565b610726336107c2565b61074357604051632e6c18c960e11b815260040160405180910390fd5b600080546001600160a01b0319166001600160a01b0383169081179091556040519081527f222c4e474522c0d864730dd6d2e687696a9f3427100f333e3b8c55bef5dce3a1906020015b60405180910390a150565b6000828152606a60205260409020600101546107b381611229565b6107bd8383611233565b505050565b60006106a4600080516020611d7f83398151915283610d67565b60055460ff1615806107f65750600554610100900460ff16155b156108145760405163e5e6d7af60e01b815260040160405180910390fd5b61081c6112b9565b600054600160a01b90046001600160401b031642101561084f576040516380e6639760e01b815260040160405180910390fd5b60055462010000900460ff16156108795760405163d66e246160e01b815260040160405180910390fd5b33600090815260046020526040902080546001820154106108ad5760405163c23ca7e360e01b815260040160405180910390fd5b60006108b833610db7565b9050600081116108db576040516316087e8160e11b815260040160405180910390fd5b6000546040516370a0823160e01b81523060048201526001600160a01b03909116906370a0823190602401602060405180830381865afa158015610923573d6000803e3d6000fd5b505050506040513d601f19601f820116820180604052508101906109479190611b92565b8111156109bf576000546040516370a0823160e01b81523060048201526001600160a01b03909116906370a0823190602401602060405180830381865afa158015610996573d6000803e3d6000fd5b505050506040513d601f19601f820116820180604052508101906109ba9190611b92565b6109c1565b805b9050808260010160008282546109d79190611bc1565b90915550506000546109f3906001600160a01b03168483611312565b604080513381526001600160a01b038516602082015280820183905290517fe0840c3affeed6114b4f967d5e1ff6d6859d1447352c8485505fe6bc4bbe89629181900360600190a15050610a476001609c55565b50565b6001600160a01b0381163314610abf5760405162461bcd60e51b815260206004820152602f60248201527f416363657373436f6e74726f6c3a2063616e206f6e6c792072656e6f756e636560448201526e103937b632b9903337b91039b2b63360891b60648201526084015b60405180910390fd5b610ac9828261136b565b5050565b610ad6336107c2565b610af357604051632e6c18c960e11b815260040160405180910390fd5b80600003610b1457604051631a30ee4d60e11b815260040160405180910390fd5b6001600160a01b03821660009081526004602052604081208054839290610b3c908490611bc1565b90915550505050565b610b4e336107c2565b610b6b57604051632e6c18c960e11b815260040160405180910390fd5b600580548215156101000261ff00199091161790556040517f35f55c7d97c6d087f4d4d1a887911235fe3d6e306297164b2d0cca084b46ae159061078d90831515815260200190565b610bbd336107c2565b610bda57604051632e6c18c960e11b815260040160405180910390fd5b60058054821515620100000262ff0000199091161790556040517f10182456b2a126663df5049e0b9db9bc573a77a85e1e4b7e31f2a4aec23c0acd9061078d90831515815260200190565b610c2e336107c2565b610c4b57604051632e6c18c960e11b815260040160405180910390fd5b610c536112b9565b80600003610c7457604051633bf95ba760e01b815260040160405180910390fd5b600054610c8b906001600160a01b03168383611312565b604080516001600160a01b0384168152602081018390527f4ca7919e8abba2df7c7cea8d1ee0027fbe3e7f9876ded2a52f29b6c3d72cd594910160405180910390a1610ac96001609c55565b600554600160281b900460ff16610d005760405162461bcd60e51b8152600401610ab690611bd4565b6001600160a01b038116610d2757604051633bf95ba760e01b815260040160405180910390fd5b610d2f6113d2565b610d376113fd565b610d4f600080516020611d7f83398151915282611233565b610a47600080516020611d7f8339815191528061142e565b6000918252606a602090815260408084206001600160a01b0393909316845291905290205460ff1690565b6000828152606a6020526040902060010154610dad81611229565b6107bd838361136b565b6001600160a01b0381166000908152600460208181526040808420815180830183528154808252600192830154948201859052915486546002549451633954a8c760e01b815296870193909352602486019490945261ffff600160401b85041660448601526001600160401b03600160a01b90920482166064860152600160501b840482166084860152600160901b9093041660a484015260c48301529073071Fe1027e1064390083019019e9182CB4Fb43FB90633954a8c79060e401602060405180830381865af4158015610e91573d6000803e3d6000fd5b505050506040513d601f19601f82011682018060405250810190610eb59190611b92565b9392505050565b610ec5336107c2565b610ee257604051632e6c18c960e11b815260040160405180910390fd5b6000805467ffffffffffffffff60a01b1916600160a01b6001600160401b038416908102919091179091556040519081527f6eebb3c93f528da9e353afdbc82826995d809ed26550991cd8db0734f38daae89060200161078d565b600554600160281b900460ff1615808015610f665750600554600164010000000090910460ff16105b80610f885750303b158015610f885750600554640100000000900460ff166001145b610feb5760405162461bcd60e51b815260206004820152602e60248201527f496e697469616c697a61626c653a20636f6e747261637420697320616c72656160448201526d191e481a5b9a5d1a585b1a5e995960921b6064820152608401610ab6565b6005805464ff000000001916640100000000179055801561101c576005805465ff00000000001916600160281b1790555b604051633881be4d60e21b81526004810186905273071Fe1027e1064390083019019e9182CB4Fb43FB9063e206f9349060240160006040518083038186803b15801561106757600080fd5b505af415801561107b573d6000803e3d6000fd5b5050600080546001600160a01b0319166001600160a01b038b16179055506110a4905086611479565b6001805467ffffffffffffffff19166001600160401b039290921691821790556000805467ffffffffffffffff60a01b1916600160a01b9092029190911790556110ed856114e5565b600160086101000a81548161ffff021916908361ffff16021790555061111284611479565b6001600a6101000a8154816001600160401b0302191690836001600160401b0316021790555061114183611479565b600180546001600160401b0392909216600160901b0267ffffffffffffffff60901b1990921691909117905560028290556000546001600160a01b0316611196576005805463ff000000191663010000001790555b6005805461ff0019166101001790556111bd600080516020611d7f83398151915289611548565b6111d5600080516020611d7f8339815191528061142e565b801561121f576005805465ff000000000019169055604051600181527f7f26b83ff96e1f2b6a682f133852f6798a09c465da95921460cefb38474024989060200160405180910390a15b5050505050505050565b610a478133611552565b61123d8282610d67565b610ac9576000828152606a602090815260408083206001600160a01b03851684529091529020805460ff191660011790556112753390565b6001600160a01b0316816001600160a01b0316837f2f8788117e7eff1d82e926ec794901d17c78024a50270940304540a733656f0d60405160405180910390a45050565b6002609c540361130b5760405162461bcd60e51b815260206004820152601f60248201527f5265656e7472616e637947756172643a207265656e7472616e742063616c6c006044820152606401610ab6565b6002609c55565b604080516001600160a01b038416602482015260448082018490528251808303909101815260649091019091526020810180516001600160e01b031663a9059cbb60e01b1790526107bd9084906115ab565b6001609c55565b6113758282610d67565b15610ac9576000828152606a602090815260408083206001600160a01b0385168085529252808320805460ff1916905551339285917ff6391f5c32d9c69d2a47ea670b442974b53935d1edc7fd64eb21e047a839171b9190a45050565b600554600160281b900460ff166113fb5760405162461bcd60e51b8152600401610ab690611bd4565b565b600554600160281b900460ff166114265760405162461bcd60e51b8152600401610ab690611bd4565b6113fb611680565b6000828152606a6020526040808220600101805490849055905190918391839186917fbd79b86ffe0ab8e8776151514217cd7cacd52c909f66475c3af44e129f0b00ff9190a4505050565b60006001600160401b038211156114e15760405162461bcd60e51b815260206004820152602660248201527f53616665436173743a2076616c756520646f65736e27742066697420696e203660448201526534206269747360d01b6064820152608401610ab6565b5090565b600061ffff8211156114e15760405162461bcd60e51b815260206004820152602660248201527f53616665436173743a2076616c756520646f65736e27742066697420696e203160448201526536206269747360d01b6064820152608401610ab6565b610ac98282611233565b61155c8282610d67565b610ac957611569816116a9565b6115748360206116bb565b604051602001611585929190611c43565b60408051601f198184030181529082905262461bcd60e51b8252610ab691600401611cb8565b6000611600826040518060400160405280602081526020017f5361666545524332303a206c6f772d6c6576656c2063616c6c206661696c6564815250856001600160a01b03166118569092919063ffffffff16565b90508051600014806116215750808060200190518101906116219190611ceb565b6107bd5760405162461bcd60e51b815260206004820152602a60248201527f5361666545524332303a204552433230206f7065726174696f6e20646964206e6044820152691bdd081cdd58d8d9595960b21b6064820152608401610ab6565b600554600160281b900460ff166113645760405162461bcd60e51b8152600401610ab690611bd4565b60606106a46001600160a01b03831660145b606060006116ca836002611d08565b6116d5906002611bc1565b6001600160401b038111156116ec576116ec611d1f565b6040519080825280601f01601f191660200182016040528015611716576020820181803683370190505b509050600360fc1b8160008151811061173157611731611d35565b60200101906001600160f81b031916908160001a905350600f60fb1b8160018151811061176057611760611d35565b60200101906001600160f81b031916908160001a9053506000611784846002611d08565b61178f906001611bc1565b90505b6001811115611807576f181899199a1a9b1b9c1cb0b131b232b360811b85600f16601081106117c3576117c3611d35565b1a60f81b8282815181106117d9576117d9611d35565b60200101906001600160f81b031916908160001a90535060049490941c9361180081611d4b565b9050611792565b508315610eb55760405162461bcd60e51b815260206004820181905260248201527f537472696e67733a20686578206c656e67746820696e73756666696369656e746044820152606401610ab6565b6060611865848460008561186d565b949350505050565b6060824710156118ce5760405162461bcd60e51b815260206004820152602660248201527f416464726573733a20696e73756666696369656e742062616c616e636520666f6044820152651c8818d85b1b60d21b6064820152608401610ab6565b600080866001600160a01b031685876040516118ea9190611d62565b60006040518083038185875af1925050503d8060008114611927576040519150601f19603f3d011682016040523d82523d6000602084013e61192c565b606091505b509150915061193d87838387611948565b979650505050505050565b606083156119b75782516000036119b0576001600160a01b0385163b6119b05760405162461bcd60e51b815260206004820152601d60248201527f416464726573733a2063616c6c20746f206e6f6e2d636f6e74726163740000006044820152606401610ab6565b5081611865565b61186583838151156119cc5781518083602001fd5b8060405162461bcd60e51b8152600401610ab69190611cb8565b6000602082840312156119f857600080fd5b81356001600160e01b031981168114610eb557600080fd5b8015158114610a4757600080fd5b60008060408385031215611a3157600080fd5b823591506020830135611a4381611a10565b809150509250929050565b6001600160a01b0381168114610a4757600080fd5b600060208284031215611a7557600080fd5b8135610eb581611a4e565b600060208284031215611a9257600080fd5b5035919050565b60008060408385031215611aac57600080fd5b823591506020830135611a4381611a4e565b60008060408385031215611ad157600080fd5b8235611adc81611a4e565b946020939093013593505050565b600060208284031215611afc57600080fd5b8135610eb581611a10565b600060208284031215611b1957600080fd5b81356001600160401b0381168114610eb557600080fd5b600080600080600080600060e0888a031215611b4b57600080fd5b8735611b5681611a4e565b96506020880135611b6681611a4e565b96999698505050506040850135946060810135946080820135945060a0820135935060c0909101359150565b600060208284031215611ba457600080fd5b5051919050565b634e487b7160e01b600052601160045260246000fd5b808201808211156106a4576106a4611bab565b6020808252602b908201527f496e697469616c697a61626c653a20636f6e7472616374206973206e6f74206960408201526a6e697469616c697a696e6760a81b606082015260800190565b60005b83811015611c3a578181015183820152602001611c22565b50506000910152565b7f416363657373436f6e74726f6c3a206163636f756e7420000000000000000000815260008351611c7b816017850160208801611c1f565b7001034b99036b4b9b9b4b733903937b6329607d1b6017918401918201528351611cac816028840160208801611c1f565b01602801949350505050565b6020815260008251806020840152611cd7816040850160208701611c1f565b601f01601f19169190910160400192915050565b600060208284031215611cfd57600080fd5b8151610eb581611a10565b80820281158282048414176106a4576106a4611bab565b634e487b7160e01b600052604160045260246000fd5b634e487b7160e01b600052603260045260246000fd5b600081611d5a57611d5a611bab565b506000190190565b60008251611d74818460208701611c1f565b919091019291505056feb19546dff01e856fb3f010c267a7b1c60363cf8a4664e21cc89c26224620214ea2646970667358221220bf5d87693af5573e90e3fb4a0fdee44065d5c086812c3c2bda6b031ed15d0bc264736f6c63430008170033",
  "deployedBytecode": "0x608060405234801561001057600080fd5b50600436106102695760003560e01c80637c65430311610151578063bdf618ba116100c3578063e37bcc2011610087578063e37bcc2014610600578063e3b37f3014610611578063e58378bb14610624578063edbf4ac214610639578063f3640e741461064c578063f3a504f21461066657600080fd5b8063bdf618ba14610530578063cb12872814610561578063d547741f1461057b578063dc25a3001461058e578063e12f3a61146105ed57600080fd5b80639aa74a8c116101155780639aa74a8c146104c1578063a217fddf146104d2578063af38d757146104da578063b3cd4254146104ec578063b458227614610508578063b57fa0db1461051d57600080fd5b80637c654303146104755780638488e5e61461048057806387e44935146104885780638b8efc631461049b57806391d14854146104ae57600080fd5b80633614ea4f116101ea5780635671e8c9116101ae5780635671e8c9146103e757806358e0fb55146103fa5780635dccc1e41461040d578063646fcfa91461042057806374478bb31461045257806378ecb4ee1461046257600080fd5b80633614ea4f14610369578063364d96041461037257806336568abe14610385578063419544a0146103985780634e76bad8146103ab57600080fd5b8063164e2c2a11610231578063164e2c2a146102e95780631db5efe6146102fb578063248a9ca3146103205780632f2ff15d146103435780632f54bf6e1461035657600080fd5b806301ffc9a71461026e57806303eed66a146102965780630c8f6d00146102ab5780630d00c2ee146102be5780631439aef2146102d2575b600080fd5b61028161027c3660046119e6565b610673565b60405190151581526020015b60405180910390f35b6102a96102a4366004611a1e565b6106aa565b005b6102a96102b9366004611a63565b61071d565b600554610281906301000000900460ff1681565b6102db60035481565b60405190815260200161028d565b6005546301000000900460ff16610281565b6000546001600160a01b03165b6040516001600160a01b03909116815260200161028d565b6102db61032e366004611a80565b6000908152606a602052604090206001015490565b6102a9610351366004611a99565b610798565b610281610364366004611a63565b6107c2565b6102db60025481565b6102a9610380366004611a63565b6107dc565b6102a9610393366004611a99565b610a4a565b6102a96103a6366004611abe565b610acd565b6103d26103b9366004611a63565b6004602052600090815260409020805460019091015482565b6040805192835260208301919091520161028d565b6102a96103f5366004611aea565b610b45565b6102a9610408366004611aea565b610bb4565b6102a961041b366004611abe565b610c25565b60015461043a90600160901b90046001600160401b031681565b6040516001600160401b03909116815260200161028d565b600554610100900460ff16610281565b6005546102819062010000900460ff1681565b60055460ff16610281565b6003546102db565b600054610308906001600160a01b031681565b6102a96104a9366004611a63565b610cd7565b6102816104bc366004611a99565b610d67565b60055462010000900460ff16610281565b6102db600081565b60055461028190610100900460ff1681565b6104f561271081565b60405161ffff909116815260200161028d565b6001546104f590600160401b900461ffff1681565b60015461043a906001600160401b031681565b6103d261053e366004611a63565b6001600160a01b0316600090815260046020526040902080546001909101549091565b60005461043a90600160a01b90046001600160401b031681565b6102a9610589366004611a99565b610d92565b60005460015460025460408051600160a01b9094046001600160401b039081168552600160401b840461ffff166020860152600160501b8404811691850191909152600160901b9092049091166060830152608082015260a00161028d565b6102db6105fb366004611a63565b610db7565b6001546001600160401b031661043a565b6102a961061f366004611b07565b610ebc565b6102db600080516020611d7f83398151915281565b6102a9610647366004611b30565b610f3d565b60015461043a90600160501b90046001600160401b031681565b6005546102819060ff1681565b60006001600160e01b03198216637965db0b60e01b14806106a457506301ffc9a760e01b6001600160e01b03198316145b92915050565b6106b3336107c2565b6106d057604051632e6c18c960e11b815260040160405180910390fd5b6005805460ff191682151590811790915560038390556040519081527f5cf6fb00ad75ebe42b35e396bfd4e9b28c58c9014908950f750c6791aa8c6b8b9060200160405180910390a15050565b610726336107c2565b61074357604051632e6c18c960e11b815260040160405180910390fd5b600080546001600160a01b0319166001600160a01b0383169081179091556040519081527f222c4e474522c0d864730dd6d2e687696a9f3427100f333e3b8c55bef5dce3a1906020015b60405180910390a150565b6000828152606a60205260409020600101546107b381611229565b6107bd8383611233565b505050565b60006106a4600080516020611d7f83398151915283610d67565b60055460ff1615806107f65750600554610100900460ff16155b156108145760405163e5e6d7af60e01b815260040160405180910390fd5b61081c6112b9565b600054600160a01b90046001600160401b031642101561084f576040516380e6639760e01b815260040160405180910390fd5b60055462010000900460ff16156108795760405163d66e246160e01b815260040160405180910390fd5b33600090815260046020526040902080546001820154106108ad5760405163c23ca7e360e01b815260040160405180910390fd5b60006108b833610db7565b9050600081116108db576040516316087e8160e11b815260040160405180910390fd5b6000546040516370a0823160e01b81523060048201526001600160a01b03909116906370a0823190602401602060405180830381865afa158015610923573d6000803e3d6000fd5b505050506040513d601f19601f820116820180604052508101906109479190611b92565b8111156109bf576000546040516370a0823160e01b81523060048201526001600160a01b03909116906370a0823190602401602060405180830381865afa158015610996573d6000803e3d6000fd5b505050506040513d601f19601f820116820180604052508101906109ba9190611b92565b6109c1565b805b9050808260010160008282546109d79190611bc1565b90915550506000546109f3906001600160a01b03168483611312565b604080513381526001600160a01b038516602082015280820183905290517fe0840c3affeed6114b4f967d5e1ff6d6859d1447352c8485505fe6bc4bbe89629181900360600190a15050610a476001609c55565b50565b6001600160a01b0381163314610abf5760405162461bcd60e51b815260206004820152602f60248201527f416363657373436f6e74726f6c3a2063616e206f6e6c792072656e6f756e636560448201526e103937b632b9903337b91039b2b63360891b60648201526084015b60405180910390fd5b610ac9828261136b565b5050565b610ad6336107c2565b610af357604051632e6c18c960e11b815260040160405180910390fd5b80600003610b1457604051631a30ee4d60e11b815260040160405180910390fd5b6001600160a01b03821660009081526004602052604081208054839290610b3c908490611bc1565b90915550505050565b610b4e336107c2565b610b6b57604051632e6c18c960e11b815260040160405180910390fd5b600580548215156101000261ff00199091161790556040517f35f55c7d97c6d087f4d4d1a887911235fe3d6e306297164b2d0cca084b46ae159061078d90831515815260200190565b610bbd336107c2565b610bda57604051632e6c18c960e11b815260040160405180910390fd5b60058054821515620100000262ff0000199091161790556040517f10182456b2a126663df5049e0b9db9bc573a77a85e1e4b7e31f2a4aec23c0acd9061078d90831515815260200190565b610c2e336107c2565b610c4b57604051632e6c18c960e11b815260040160405180910390fd5b610c536112b9565b80600003610c7457604051633bf95ba760e01b815260040160405180910390fd5b600054610c8b906001600160a01b03168383611312565b604080516001600160a01b0384168152602081018390527f4ca7919e8abba2df7c7cea8d1ee0027fbe3e7f9876ded2a52f29b6c3d72cd594910160405180910390a1610ac96001609c55565b600554600160281b900460ff16610d005760405162461bcd60e51b8152600401610ab690611bd4565b6001600160a01b038116610d2757604051633bf95ba760e01b815260040160405180910390fd5b610d2f6113d2565b610d376113fd565b610d4f600080516020611d7f83398151915282611233565b610a47600080516020611d7f8339815191528061142e565b6000918252606a602090815260408084206001600160a01b0393909316845291905290205460ff1690565b6000828152606a6020526040902060010154610dad81611229565b6107bd838361136b565b6001600160a01b0381166000908152600460208181526040808420815180830183528154808252600192830154948201859052915486546002549451633954a8c760e01b815296870193909352602486019490945261ffff600160401b85041660448601526001600160401b03600160a01b90920482166064860152600160501b840482166084860152600160901b9093041660a484015260c48301529073__$9fb2edb4e987366f36b33ed733baa6b7a5$__90633954a8c79060e401602060405180830381865af4158015610e91573d6000803e3d6000fd5b505050506040513d601f19601f82011682018060405250810190610eb59190611b92565b9392505050565b610ec5336107c2565b610ee257604051632e6c18c960e11b815260040160405180910390fd5b6000805467ffffffffffffffff60a01b1916600160a01b6001600160401b038416908102919091179091556040519081527f6eebb3c93f528da9e353afdbc82826995d809ed26550991cd8db0734f38daae89060200161078d565b600554600160281b900460ff1615808015610f665750600554600164010000000090910460ff16105b80610f885750303b158015610f885750600554640100000000900460ff166001145b610feb5760405162461bcd60e51b815260206004820152602e60248201527f496e697469616c697a61626c653a20636f6e747261637420697320616c72656160448201526d191e481a5b9a5d1a585b1a5e995960921b6064820152608401610ab6565b6005805464ff000000001916640100000000179055801561101c576005805465ff00000000001916600160281b1790555b604051633881be4d60e21b81526004810186905273__$9fb2edb4e987366f36b33ed733baa6b7a5$__9063e206f9349060240160006040518083038186803b15801561106757600080fd5b505af415801561107b573d6000803e3d6000fd5b5050600080546001600160a01b0319166001600160a01b038b16179055506110a4905086611479565b6001805467ffffffffffffffff19166001600160401b039290921691821790556000805467ffffffffffffffff60a01b1916600160a01b9092029190911790556110ed856114e5565b600160086101000a81548161ffff021916908361ffff16021790555061111284611479565b6001600a6101000a8154816001600160401b0302191690836001600160401b0316021790555061114183611479565b600180546001600160401b0392909216600160901b0267ffffffffffffffff60901b1990921691909117905560028290556000546001600160a01b0316611196576005805463ff000000191663010000001790555b6005805461ff0019166101001790556111bd600080516020611d7f83398151915289611548565b6111d5600080516020611d7f8339815191528061142e565b801561121f576005805465ff000000000019169055604051600181527f7f26b83ff96e1f2b6a682f133852f6798a09c465da95921460cefb38474024989060200160405180910390a15b5050505050505050565b610a478133611552565b61123d8282610d67565b610ac9576000828152606a602090815260408083206001600160a01b03851684529091529020805460ff191660011790556112753390565b6001600160a01b0316816001600160a01b0316837f2f8788117e7eff1d82e926ec794901d17c78024a50270940304540a733656f0d60405160405180910390a45050565b6002609c540361130b5760405162461bcd60e51b815260206004820152601f60248201527f5265656e7472616e637947756172643a207265656e7472616e742063616c6c006044820152606401610ab6565b6002609c55565b604080516001600160a01b038416602482015260448082018490528251808303909101815260649091019091526020810180516001600160e01b031663a9059cbb60e01b1790526107bd9084906115ab565b6001609c55565b6113758282610d67565b15610ac9576000828152606a602090815260408083206001600160a01b0385168085529252808320805460ff1916905551339285917ff6391f5c32d9c69d2a47ea670b442974b53935d1edc7fd64eb21e047a839171b9190a45050565b600554600160281b900460ff166113fb5760405162461bcd60e51b8152600401610ab690611bd4565b565b600554600160281b900460ff166114265760405162461bcd60e51b8152600401610ab690611bd4565b6113fb611680565b6000828152606a6020526040808220600101805490849055905190918391839186917fbd79b86ffe0ab8e8776151514217cd7cacd52c909f66475c3af44e129f0b00ff9190a4505050565b60006001600160401b038211156114e15760405162461bcd60e51b815260206004820152602660248201527f53616665436173743a2076616c756520646f65736e27742066697420696e203660448201526534206269747360d01b6064820152608401610ab6565b5090565b600061ffff8211156114e15760405162461bcd60e51b815260206004820152602660248201527f53616665436173743a2076616c756520646f65736e27742066697420696e203160448201526536206269747360d01b6064820152608401610ab6565b610ac98282611233565b61155c8282610d67565b610ac957611569816116a9565b6115748360206116bb565b604051602001611585929190611c43565b60408051601f198184030181529082905262461bcd60e51b8252610ab691600401611cb8565b6000611600826040518060400160405280602081526020017f5361666545524332303a206c6f772d6c6576656c2063616c6c206661696c6564815250856001600160a01b03166118569092919063ffffffff16565b90508051600014806116215750808060200190518101906116219190611ceb565b6107bd5760405162461bcd60e51b815260206004820152602a60248201527f5361666545524332303a204552433230206f7065726174696f6e20646964206e6044820152691bdd081cdd58d8d9595960b21b6064820152608401610ab6565b600554600160281b900460ff166113645760405162461bcd60e51b8152600401610ab690611bd4565b60606106a46001600160a01b03831660145b606060006116ca836002611d08565b6116d5906002611bc1565b6001600160401b038111156116ec576116ec611d1f565b6040519080825280601f01601f191660200182016040528015611716576020820181803683370190505b509050600360fc1b8160008151811061173157611731611d35565b60200101906001600160f81b031916908160001a905350600f60fb1b8160018151811061176057611760611d35565b60200101906001600160f81b031916908160001a9053506000611784846002611d08565b61178f906001611bc1565b90505b6001811115611807576f181899199a1a9b1b9c1cb0b131b232b360811b85600f16601081106117c3576117c3611d35565b1a60f81b8282815181106117d9576117d9611d35565b60200101906001600160f81b031916908160001a90535060049490941c9361180081611d4b565b9050611792565b508315610eb55760405162461bcd60e51b815260206004820181905260248201527f537472696e67733a20686578206c656e67746820696e73756666696369656e746044820152606401610ab6565b6060611865848460008561186d565b949350505050565b6060824710156118ce5760405162461bcd60e51b815260206004820152602660248201527f416464726573733a20696e73756666696369656e742062616c616e636520666f6044820152651c8818d85b1b60d21b6064820152608401610ab6565b600080866001600160a01b031685876040516118ea9190611d62565b60006040518083038185875af1925050503d8060008114611927576040519150601f19603f3d011682016040523d82523d6000602084013e61192c565b606091505b509150915061193d87838387611948565b979650505050505050565b606083156119b75782516000036119b0576001600160a01b0385163b6119b05760405162461bcd60e51b815260206004820152601d60248201527f416464726573733a2063616c6c20746f206e6f6e2d636f6e74726163740000006044820152606401610ab6565b5081611865565b61186583838151156119cc5781518083602001fd5b8060405162461bcd60e51b8152600401610ab69190611cb8565b6000602082840312156119f857600080fd5b81356001600160e01b031981168114610eb557600080fd5b8015158114610a4757600080fd5b60008060408385031215611a3157600080fd5b823591506020830135611a4381611a10565b809150509250929050565b6001600160a01b0381168114610a4757600080fd5b600060208284031215611a7557600080fd5b8135610eb581611a4e565b600060208284031215611a9257600080fd5b5035919050565b60008060408385031215611aac57600080fd5b823591506020830135611a4381611a4e565b60008060408385031215611ad157600080fd5b8235611adc81611a4e565b946020939093013593505050565b600060208284031215611afc57600080fd5b8135610eb581611a10565b600060208284031215611b1957600080fd5b81356001600160401b0381168114610eb557600080fd5b600080600080600080600060e0888a031215611b4b57600080fd5b8735611b5681611a4e565b96506020880135611b6681611a4e565b96999698505050506040850135946060810135946080820135945060a0820135935060c0909101359150565b600060208284031215611ba457600080fd5b5051919050565b634e487b7160e01b600052601160045260246000fd5b808201808211156106a4576106a4611bab565b6020808252602b908201527f496e697469616c697a61626c653a20636f6e7472616374206973206e6f74206960408201526a6e697469616c697a696e6760a81b606082015260800190565b60005b83811015611c3a578181015183820152602001611c22565b50506000910152565b7f416363657373436f6e74726f6c3a206163636f756e7420000000000000000000815260008351611c7b816017850160208801611c1f565b7001034b99036b4b9b9b4b733903937b6329607d1b6017918401918201528351611cac816028840160208801611c1f565b01602801949350505050565b6020815260008251806020840152611cd7816040850160208701611c1f565b601f01601f19169190910160400192915050565b600060208284031215611cfd57600080fd5b8151610eb581611a10565b80820281158282048414176106a4576106a4611bab565b634e487b7160e01b600052604160045260246000fd5b634e487b7160e01b600052603260045260246000fd5b600081611d5a57611d5a611bab565b506000190190565b60008251611d74818460208701611c1f565b919091019291505056feb19546dff01e856fb3f010c267a7b1c60363cf8a4664e21cc89c26224620214ea2646970667358221220bf5d87693af5573e90e3fb4a0fdee44065d5c086812c3c2bda6b031ed15d0bc264736f6c63430008170033",
  "libraries": {
    "VestingLogic": "0x071Fe1027e1064390083019019e9182CB4Fb43FB"
  },
  "devdoc": {
    "author": "Paid",
    "details": "Owner of this contract is the corresponding Pool contract. So there'll be no interaction between EOA and this contract",
    "events": {
      "Initialized(uint8)": {
        "details": "Triggered when the contract has been initialized or reinitialized."
      },
      "RoleAdminChanged(bytes32,bytes32,bytes32)": {
        "details": "Emitted when `newAdminRole` is set as ``role``'s admin role, replacing `previousAdminRole` `DEFAULT_ADMIN_ROLE` is the starting admin for all roles, despite {RoleAdminChanged} not being emitted signaling this. _Available since v3.1._"
      },
      "RoleGranted(bytes32,address,address)": {
        "details": "Emitted when `account` is granted `role`. `sender` is the account that originated the contract call, an admin role bearer except when using {AccessControl-_setupRole}."
      },
      "RoleRevoked(bytes32,address,address)": {
        "details": "Emitted when `account` is revoked `role`. `sender` is the account that originated the contract call:   - if using `revokeRole`, it is the admin role bearer   - if using `renounceRole`, it is the role bearer (i.e. `account`)"
      }
    },
    "kind": "dev",
    "methods": {
      "claimIDOToken(address)": {
        "params": {
          "_beneficiary": "Address to receive IDO token address"
        }
      },
      "createVestingSchedule(address,uint256)": {
        "details": "Called by the pool contract to update investor vesting details when user purchased IDO Token",
        "params": {
          "_totalAmount": "Total purchased IDO token",
          "_user": "Investor address"
        }
      },
      "getClaimableAmount(address)": {
        "details": "This function can be used by our FE to show up information in UI"
      },
      "getRoleAdmin(bytes32)": {
        "details": "Returns the admin role that controls `role`. See {grantRole} and {revokeRole}. To change a role's admin, use {_setRoleAdmin}."
      },
      "grantRole(bytes32,address)": {
        "details": "Grants `role` to `account`. If `account` had not been already granted `role`, emits a {RoleGranted} event. Requirements: - the caller must have ``role``'s admin role. May emit a {RoleGranted} event."
      },
      "hasRole(bytes32,address)": {
        "details": "Returns `true` if `account` has been granted `role`."
      },
      "initialize(address,address,uint256,uint256,uint256,uint256,uint256)": {
        "details": "Initialize should only be called by Pool contract during deployment only.",
        "params": {
          "_IDOToken": "Pool IDO Token address",
          "_TGEDate": "TGE Date (Date to start to claim IDO token)",
          "_TGEPercentage": "TGE vesting percentage (amount that investor can claim immediately)",
          "_numberOfVestingRelease": "Number of vesting periods. Ex: 12 with vestingFrequency = 1 month -> vesting duration = 1 year",
          "_vestingCliff": "Cliff duration",
          "_vestingFrequency": "Vesting frequency for investor to claim. Ex: 1 days - 1 month",
          "owner": "Owner of vesting contract (which is pool contract)"
        }
      },
      "renounceRole(bytes32,address)": {
        "details": "Revokes `role` from the calling account. Roles are often managed via {grantRole} and {revokeRole}: this function's purpose is to provide a mechanism for accounts to lose their privileges if they are compromised (such as when a trusted device is misplaced). If the calling account had been revoked `role`, emits a {RoleRevoked} event. Requirements: - the caller must be `account`. May emit a {RoleRevoked} event."
      },
      "revokeRole(bytes32,address)": {
        "details": "Revokes `role` from `account`. If `account` had been granted `role`, emits a {RoleRevoked} event. Requirements: - the caller must have ``role``'s admin role. May emit a {RoleRevoked} event."
      },
      "setFundedStatus(uint256,bool)": {
        "details": "Called by the pool contract to update funded status",
        "params": {
          "_status": "funded status"
        }
      },
      "setIDOToken(address)": {
        "details": "Called by the pool contract to update IDO token address",
        "params": {
          "_IDOToken": "IDO token address"
        }
      },
      "supportsInterface(bytes4)": {
        "details": "See {IERC165-supportsInterface}."
      }
    },
    "title": "Vesting Contract",
    "version": 1
  },
  "userdoc": {
    "kind": "user",
    "methods": {
      "IDOToken()": {
        "notice": "Address of IDO token"
      },
      "OWNER_ROLE()": {
        "notice": "keccak256(\"OWNER_ROLE\")"
      },
      "PERCENTAGE_DENOMINATOR()": {
        "notice": "Percentage denominator"
      },
      "TGEDate()": {
        "notice": "Time for user to redeem IDO token"
      },
      "TGEPercentage()": {
        "notice": "Percentage of IDO token amount of user, which can be redeemed after TGEDate"
      },
      "claimIDOToken(address)": {
        "notice": "Claim all claimable IDO Token during vesting period"
      },
      "claimable()": {
        "notice": "True if admin allow user to claim"
      },
      "createVestingSchedule(address,uint256)": {
        "notice": "Initialize/Update Vesting Schedule for an investor"
      },
      "funded()": {
        "notice": "True if collaborator fund enough IDO token"
      },
      "getClaimableAmount(address)": {
        "notice": "A function that helps calculate current claimable amount for investor"
      },
      "initialTGEDate()": {
        "notice": "Initial Time for user to redeem IDO token"
      },
      "initialize(address,address,uint256,uint256,uint256,uint256,uint256)": {
        "notice": "Initialize a vesting with its information"
      },
      "numberOfVestingRelease()": {
        "notice": "Number of vesting release"
      },
      "setClaimableStatus(bool)": {
        "notice": "set pool claimable status"
      },
      "setEmergencyCancelled(bool)": {
        "notice": "set pool claimable status"
      },
      "setFundedStatus(uint256,bool)": {
        "notice": "set pool is funded by collaborator or not"
      },
      "setIDOToken(address)": {
        "notice": "set IDO Token for vesting contraxt"
      },
      "totalFundedAmount()": {
        "notice": "Total funded amount"
      },
      "updateTGEDate(uint64)": {
        "notice": "update TGE Date"
      },
      "vestingAmountInfo(address)": {
        "notice": "vesting info of each user"
      },
      "vestingCliff()": {
        "notice": "Vesting cliff"
      },
      "vestingFrequency()": {
        "notice": "Vesting frequency"
      },
      "withdrawRedundantIDOToken(address,uint256)": {
        "notice": "Withdraw all redundant IDO Token if it has been funded into vesting contract"
      }
    },
    "notice": "Vesting contract helps the investor to create vesting schedule for all investors to prevent token dumping after project launched",
    "version": 1
  },
  "storageLayout": {
    "storage": [
      {
        "astId": 5336,
        "contract": "contracts/core/Vesting.sol:Vesting",
        "label": "IDOToken",
        "offset": 0,
        "slot": "0",
        "type": "t_contract(IERC20withDec)5484"
      },
      {
        "astId": 5339,
        "contract": "contracts/core/Vesting.sol:Vesting",
        "label": "TGEDate",
        "offset": 20,
        "slot": "0",
        "type": "t_uint64"
      },
      {
        "astId": 5342,
        "contract": "contracts/core/Vesting.sol:Vesting",
        "label": "initialTGEDate",
        "offset": 0,
        "slot": "1",
        "type": "t_uint64"
      },
      {
        "astId": 5345,
        "contract": "contracts/core/Vesting.sol:Vesting",
        "label": "TGEPercentage",
        "offset": 8,
        "slot": "1",
        "type": "t_uint16"
      },
      {
        "astId": 5348,
        "contract": "contracts/core/Vesting.sol:Vesting",
        "label": "vestingCliff",
        "offset": 10,
        "slot": "1",
        "type": "t_uint64"
      },
      {
        "astId": 5351,
        "contract": "contracts/core/Vesting.sol:Vesting",
        "label": "vestingFrequency",
        "offset": 18,
        "slot": "1",
        "type": "t_uint64"
      },
      {
        "astId": 5354,
        "contract": "contracts/core/Vesting.sol:Vesting",
        "label": "numberOfVestingRelease",
        "offset": 0,
        "slot": "2",
        "type": "t_uint256"
      },
      {
        "astId": 5357,
        "contract": "contracts/core/Vesting.sol:Vesting",
        "label": "totalFundedAmount",
        "offset": 0,
        "slot": "3",
        "type": "t_uint256"
      },
      {
        "astId": 5363,
        "contract": "contracts/core/Vesting.sol:Vesting",
        "label": "vestingAmountInfo",
        "offset": 0,
        "slot": "4",
        "type": "t_mapping(t_address,t_struct(VestingAmountInfo)5328_storage)"
      },
      {
        "astId": 5366,
        "contract": "contracts/core/Vesting.sol:Vesting",
        "label": "funded",
        "offset": 0,
        "slot": "5",
        "type": "t_bool"
      },
      {
        "astId": 5369,
        "contract": "contracts/core/Vesting.sol:Vesting",
        "label": "claimable",
        "offset": 1,
        "slot": "5",
        "type": "t_bool"
      },
      {
        "astId": 5372,
        "contract": "contracts/core/Vesting.sol:Vesting",
        "label": "emergencyCancelled",
        "offset": 2,
        "slot": "5",
        "type": "t_bool"
      },
      {
        "astId": 5375,
        "contract": "contracts/core/Vesting.sol:Vesting",
        "label": "privateRaise",
        "offset": 3,
        "slot": "5",
        "type": "t_bool"
      },
      {
        "astId": 416,
        "contract": "contracts/core/Vesting.sol:Vesting",
        "label": "_initialized",
        "offset": 4,
        "slot": "5",
        "type": "t_uint8"
      },
      {
        "astId": 419,
        "contract": "contracts/core/Vesting.sol:Vesting",
        "label": "_initializing",
        "offset": 5,
        "slot": "5",
        "type": "t_bool"
      },
      {
        "astId": 1043,
        "contract": "contracts/core/Vesting.sol:Vesting",
        "label": "__gap",
        "offset": 0,
        "slot": "6",
        "type": "t_array(t_uint256)50_storage"
      },
      {
        "astId": 1317,
        "contract": "contracts/core/Vesting.sol:Vesting",
        "label": "__gap",
        "offset": 0,
        "slot": "56",
        "type": "t_array(t_uint256)50_storage"
      },
      {
        "astId": 28,
        "contract": "contracts/core/Vesting.sol:Vesting",
        "label": "_roles",
        "offset": 0,
        "slot": "106",
        "type": "t_mapping(t_bytes32,t_struct(RoleData)23_storage)"
      },
      {
        "astId": 335,
        "contract": "contracts/core/Vesting.sol:Vesting",
        "label": "__gap",
        "offset": 0,
        "slot": "107",
        "type": "t_array(t_uint256)49_storage"
      },
      {
        "astId": 593,
        "contract": "contracts/core/Vesting.sol:Vesting",
        "label": "_status",
        "offset": 0,
        "slot": "156",
        "type": "t_uint256"
      },
      {
        "astId": 662,
        "contract": "contracts/core/Vesting.sol:Vesting",
        "label": "__gap",
        "offset": 0,
        "slot": "157",
        "type": "t_array(t_uint256)49_storage"
      }
    ],
    "types": {
      "t_address": {
        "encoding": "inplace",
        "label": "address",
        "numberOfBytes": "20"
      },
      "t_array(t_uint256)49_storage": {
        "base": "t_uint256",
        "encoding": "inplace",
        "label": "uint256[49]",
        "numberOfBytes": "1568"
      },
      "t_array(t_uint256)50_storage": {
        "base": "t_uint256",
        "encoding": "inplace",
        "label": "uint256[50]",
        "numberOfBytes": "1600"
      },
      "t_bool": {
        "encoding": "inplace",
        "label": "bool",
        "numberOfBytes": "1"
      },
      "t_bytes32": {
        "encoding": "inplace",
        "label": "bytes32",
        "numberOfBytes": "32"
      },
      "t_contract(IERC20withDec)5484": {
        "encoding": "inplace",
        "label": "contract IERC20withDec",
        "numberOfBytes": "20"
      },
      "t_mapping(t_address,t_bool)": {
        "encoding": "mapping",
        "key": "t_address",
        "label": "mapping(address => bool)",
        "numberOfBytes": "32",
        "value": "t_bool"
      },
      "t_mapping(t_address,t_struct(VestingAmountInfo)5328_storage)": {
        "encoding": "mapping",
        "key": "t_address",
        "label": "mapping(address => struct VestingStorage.VestingAmountInfo)",
        "numberOfBytes": "32",
        "value": "t_struct(VestingAmountInfo)5328_storage"
      },
      "t_mapping(t_bytes32,t_struct(RoleData)23_storage)": {
        "encoding": "mapping",
        "key": "t_bytes32",
        "label": "mapping(bytes32 => struct AccessControlUpgradeable.RoleData)",
        "numberOfBytes": "32",
        "value": "t_struct(RoleData)23_storage"
      },
      "t_struct(RoleData)23_storage": {
        "encoding": "inplace",
        "label": "struct AccessControlUpgradeable.RoleData",
        "members": [
          {
            "astId": 20,
            "contract": "contracts/core/Vesting.sol:Vesting",
            "label": "members",
            "offset": 0,
            "slot": "0",
            "type": "t_mapping(t_address,t_bool)"
          },
          {
            "astId": 22,
            "contract": "contracts/core/Vesting.sol:Vesting",
            "label": "adminRole",
            "offset": 0,
            "slot": "1",
            "type": "t_bytes32"
          }
        ],
        "numberOfBytes": "64"
      },
      "t_struct(VestingAmountInfo)5328_storage": {
        "encoding": "inplace",
        "label": "struct VestingStorage.VestingAmountInfo",
        "members": [
          {
            "astId": 5325,
            "contract": "contracts/core/Vesting.sol:Vesting",
            "label": "totalAmount",
            "offset": 0,
            "slot": "0",
            "type": "t_uint256"
          },
          {
            "astId": 5327,
            "contract": "contracts/core/Vesting.sol:Vesting",
            "label": "claimedAmount",
            "offset": 0,
            "slot": "1",
            "type": "t_uint256"
          }
        ],
        "numberOfBytes": "64"
      },
      "t_uint16": {
        "encoding": "inplace",
        "label": "uint16",
        "numberOfBytes": "2"
      },
      "t_uint256": {
        "encoding": "inplace",
        "label": "uint256",
        "numberOfBytes": "32"
      },
      "t_uint64": {
        "encoding": "inplace",
        "label": "uint64",
        "numberOfBytes": "8"
      },
      "t_uint8": {
        "encoding": "inplace",
        "label": "uint8",
        "numberOfBytes": "1"
      }
    }
  }
}