{
  "address": "0x071Fe1027e1064390083019019e9182CB4Fb43FB",
  "abi": [
    {
      "inputs": [],
      "name": "InvalidTgePercentage",
      "type": "error"
    },
    {
      "inputs": [],
      "name": "PERCENTAGE_DENOMINATOR",
      "outputs": [
        {
          "internalType": "uint16",
          "name": "",
          "type": "uint16"
        }
      ],
      "stateMutability": "view",
      "type": "function"
    },
    {
      "inputs": [
        {
          "internalType": "uint256",
          "name": "totalAmount",
          "type": "uint256"
        },
        {
          "internalType": "uint256",
          "name": "claimedAmount",
          "type": "uint256"
        },
        {
          "internalType": "uint16",
          "name": "TGEPercentage",
          "type": "uint16"
        },
        {
          "internalType": "uint64",
          "name": "TGEDate",
          "type": "uint64"
        },
        {
          "internalType": "uint64",
          "name": "vestingCliff",
          "type": "uint64"
        },
        {
          "internalType": "uint64",
          "name": "vestingFrequency",
          "type": "uint64"
        },
        {
          "internalType": "uint256",
          "name": "numberOfVestingRelease",
          "type": "uint256"
        }
      ],
      "name": "calculateClaimableAmount",
      "outputs": [
        {
          "internalType": "uint256",
          "name": "",
          "type": "uint256"
        }
      ],
      "stateMutability": "view",
      "type": "function"
    },
    {
      "inputs": [
        {
          "internalType": "uint256",
          "name": "_TGEPercentage",
          "type": "uint256"
        }
      ],
      "name": "verifyVestingInfo",
      "outputs": [],
      "stateMutability": "pure",
      "type": "function"
    }
  ],
  "transactionHash": "0x583ad4b6ed2a884b58c17b171c46f44817f0ded9248c1b5f20e5b840c7ae2fb0",
  "args": [],
  "numDeployments": 1,
  "solcInputHash": "3f17f81d28b2277b875e901303fac68c",
  "bytecode": "0x61037b61003a600b82828239805160001a60731461002d57634e487b7160e01b600052600060045260246000fd5b30600052607381538281f3fe730000000000000000000000000000000000000000301460806040526004361061004b5760003560e01c80633954a8c714610050578063b3cd425414610076578063e206f93414610092575b600080fd5b61006361005e36600461020f565b6100a7565b6040519081526020015b60405180910390f35b61007f61271081565b60405161ffff909116815260200161006d565b6100a56100a0366004610289565b6101cc565b005b60008787106100b8575060006101c1565b60006127106100cb61ffff89168b6102b8565b6100d591906102d5565b90506100e185876102f7565b67ffffffffffffffff16421015610104576100fc888261031f565b9150506101c1565b60008467ffffffffffffffff168667ffffffffffffffff168867ffffffffffffffff1642610132919061031f565b61013c919061031f565b61014691906102d5565b610151906001610332565b9050838110158061016a575067ffffffffffffffff8516155b1561018257610179898b61031f565b925050506101c1565b600061018e838c61031f565b905089838661019d84866102b8565b6101a791906102d5565b6101b19190610332565b6101bb919061031f565b93505050505b979650505050505050565b6127108111156101ef57604051634ff3999160e11b815260040160405180910390fd5b50565b803567ffffffffffffffff8116811461020a57600080fd5b919050565b600080600080600080600060e0888a03121561022a57600080fd5b8735965060208801359550604088013561ffff8116811461024a57600080fd5b9450610258606089016101f2565b9350610266608089016101f2565b925061027460a089016101f2565b915060c0880135905092959891949750929550565b60006020828403121561029b57600080fd5b5035919050565b634e487b7160e01b600052601160045260246000fd5b80820281158282048414176102cf576102cf6102a2565b92915050565b6000826102f257634e487b7160e01b600052601260045260246000fd5b500490565b67ffffffffffffffff818116838216019080821115610318576103186102a2565b5092915050565b818103818111156102cf576102cf6102a2565b808201808211156102cf576102cf6102a256fea26469706673582212206541e036ccebdf5ed403855908c7beceed78e0ebb1772b9f1422f2fffdeb8f3f64736f6c63430008170033",
  "devdoc": {
    "kind": "dev",
    "methods": {},
    "stateVariables": {
      "PERCENTAGE_DENOMINATOR": {
        "details": "Percentage denominator"
      }
    },
    "version": 1
  },
  "userdoc": {
    "kind": "user",
    "methods": {},
    "version": 1
  },
  "storageLayout": {
    "storage": [],
    "types": null
  }
}