{
  "address": "0x4c1E0e920a79f5cD3B18990F8c9505b34C455177",
  "abi": [
    {
      "inputs": [],
      "stateMutability": "nonpayable",
      "type": "constructor"
    },
    {
      "inputs": [],
      "name": "AlreadyClaimTotalAmount",
      "type": "error"
    },
    {
      "inputs": [],
      "name": "AlreadyPrivateFunded",
      "type": "error"
    },
    {
      "inputs": [],
      "name": "CallerNotAdmin",
      "type": "error"
    },
    {
      "inputs": [],
      "name": "CallerNotOwner",
      "type": "error"
    },
    {
      "inputs": [],
      "name": "CrowdFundingParticipationFeePercentageNotInRange",
      "type": "error"
    },
    {
      "inputs": [],
      "name": "ExceedMaxPurchaseAmountForEarlyAccess",
      "type": "error"
    },
    {
      "inputs": [],
      "name": "ExceedMaxPurchaseAmountForKYCUser",
      "type": "error"
    },
    {
      "inputs": [],
      "name": "ExceedMaxPurchaseAmountForNonKYCUser",
      "type": "error"
    },
    {
      "inputs": [],
      "name": "ExceedMaxPurchaseAmountForUser",
      "type": "error"
    },
    {
      "inputs": [],
      "name": "ExceedTotalRaiseAmount",
      "type": "error"
    },
    {
      "inputs": [],
      "name": "GalaxyParticipationFeePercentageNotInRange",
      "type": "error"
    },
    {
      "inputs": [],
      "name": "InvalidClaimableAmount",
      "type": "error"
    },
    {
      "inputs": [],
      "name": "InvalidSigner",
      "type": "error"
    },
    {
      "inputs": [],
      "name": "InvalidTime",
      "type": "error"
    },
    {
      "inputs": [],
      "name": "MaxPurchaseForKYCUserNotValid",
      "type": "error"
    },
    {
      "inputs": [],
      "name": "NotAllowedToAdjustTGEDateExceedsAttempts",
      "type": "error"
    },
    {
      "inputs": [],
      "name": "NotAllowedToAdjustTGEDateTooFar",
      "type": "error"
    },
    {
      "inputs": [],
      "name": "NotAllowedToAllowInvestorToClaim",
      "type": "error"
    },
    {
      "inputs": [],
      "name": "NotAllowedToCancelAfterLockupTime",
      "type": "error"
    },
    {
      "inputs": [],
      "name": "NotAllowedToClaimParticipationFee",
      "type": "error"
    },
    {
      "inputs": [],
      "name": "NotAllowedToClaimPurchaseToken",
      "type": "error"
    },
    {
      "inputs": [],
      "name": "NotAllowedToClaimTokenFee",
      "type": "error"
    },
    {
      "inputs": [],
      "name": "NotAllowedToDoAfterEmergencyCancelled",
      "type": "error"
    },
    {
      "inputs": [],
      "name": "NotAllowedToDoAfterTGEDate",
      "type": "error"
    },
    {
      "inputs": [],
      "name": "NotAllowedToFundBeforeCommunityTime",
      "type": "error"
    },
    {
      "inputs": [],
      "name": "NotAllowedToTransferBBeforeTGEDate",
      "type": "error"
    },
    {
      "inputs": [],
      "name": "NotAllowedToTransferBeforeLockupTime",
      "type": "error"
    },
    {
      "inputs": [],
      "name": "NotAllowedToWithdrawPurchasedAmount",
      "type": "error"
    },
    {
      "inputs": [],
      "name": "NotEnoughAllowance",
      "type": "error"
    },
    {
      "inputs": [],
      "name": "NotFunded",
      "type": "error"
    },
    {
      "inputs": [],
      "name": "NotInInvestorList",
      "type": "error"
    },
    {
      "inputs": [],
      "name": "NotInWhaleList",
      "type": "error"
    },
    {
      "inputs": [],
      "name": "PoolIsAlreadyFunded",
      "type": "error"
    },
    {
      "inputs": [],
      "name": "RedundantTokensAlreadyWithdrawn",
      "type": "error"
    },
    {
      "inputs": [],
      "name": "TimeOutToBuyIDOToken",
      "type": "error"
    },
    {
      "inputs": [],
      "name": "ZeroAddressNotValid",
      "type": "error"
    },
    {
      "inputs": [],
      "name": "ZeroAmountNotValid",
      "type": "error"
    },
    {
      "anonymous": false,
      "inputs": [
        {
          "indexed": true,
          "internalType": "address",
          "name": "buyer",
          "type": "address"
        },
        {
          "indexed": true,
          "internalType": "address",
          "name": "pool",
          "type": "address"
        },
        {
          "indexed": false,
          "internalType": "uint256",
          "name": "purchaseAmount",
          "type": "uint256"
        },
        {
          "indexed": false,
          "internalType": "uint256",
          "name": "IDOTokenAmount",
          "type": "uint256"
        },
        {
          "indexed": false,
          "internalType": "uint8",
          "name": "poolType",
          "type": "uint8"
        }
      ],
      "name": "BuyToken",
      "type": "event"
    },
    {
      "anonymous": false,
      "inputs": [
        {
          "indexed": true,
          "internalType": "address",
          "name": "pool",
          "type": "address"
        },
        {
          "indexed": false,
          "internalType": "bool",
          "name": "permanentDeleteStatus",
          "type": "bool"
        }
      ],
      "name": "CancelPool",
      "type": "event"
    },
    {
      "anonymous": false,
      "inputs": [
        {
          "indexed": false,
          "internalType": "address",
          "name": "beneficiary",
          "type": "address"
        },
        {
          "indexed": false,
          "internalType": "uint256",
          "name": "claimableAmount",
          "type": "uint256"
        }
      ],
      "name": "ClaimFund",
      "type": "event"
    },
    {
      "anonymous": false,
      "inputs": [
        {
          "indexed": false,
          "internalType": "address",
          "name": "beneficiary",
          "type": "address"
        },
        {
          "indexed": false,
          "internalType": "uint256",
          "name": "participationFeeAmount",
          "type": "uint256"
        }
      ],
      "name": "ClaimParticipationFee",
      "type": "event"
    },
    {
      "anonymous": false,
      "inputs": [
        {
          "indexed": false,
          "internalType": "address",
          "name": "beneficiary",
          "type": "address"
        },
        {
          "indexed": false,
          "internalType": "uint256",
          "name": "tokenFee",
          "type": "uint256"
        }
      ],
      "name": "ClaimTokenFee",
      "type": "event"
    },
    {
      "anonymous": false,
      "inputs": [],
      "name": "EIP712DomainChanged",
      "type": "event"
    },
    {
      "anonymous": false,
      "inputs": [
        {
          "indexed": false,
          "internalType": "contract IERC20withDec",
          "name": "IDOToken",
          "type": "address"
        },
        {
          "indexed": false,
          "internalType": "uint256",
          "name": "fundAmount",
          "type": "uint256"
        }
      ],
      "name": "FundIDOToken",
      "type": "event"
    },
    {
      "anonymous": false,
      "inputs": [
        {
          "indexed": false,
          "internalType": "uint8",
          "name": "version",
          "type": "uint8"
        }
      ],
      "name": "Initialized",
      "type": "event"
    },
    {
      "anonymous": false,
      "inputs": [
        {
          "indexed": false,
          "internalType": "address",
          "name": "account",
          "type": "address"
        }
      ],
      "name": "Paused",
      "type": "event"
    },
    {
      "anonymous": false,
      "inputs": [
        {
          "indexed": true,
          "internalType": "bytes32",
          "name": "role",
          "type": "bytes32"
        },
        {
          "indexed": true,
          "internalType": "bytes32",
          "name": "previousAdminRole",
          "type": "bytes32"
        },
        {
          "indexed": true,
          "internalType": "bytes32",
          "name": "newAdminRole",
          "type": "bytes32"
        }
      ],
      "name": "RoleAdminChanged",
      "type": "event"
    },
    {
      "anonymous": false,
      "inputs": [
        {
          "indexed": true,
          "internalType": "bytes32",
          "name": "role",
          "type": "bytes32"
        },
        {
          "indexed": true,
          "internalType": "address",
          "name": "account",
          "type": "address"
        },
        {
          "indexed": true,
          "internalType": "address",
          "name": "sender",
          "type": "address"
        }
      ],
      "name": "RoleGranted",
      "type": "event"
    },
    {
      "anonymous": false,
      "inputs": [
        {
          "indexed": true,
          "internalType": "bytes32",
          "name": "role",
          "type": "bytes32"
        },
        {
          "indexed": true,
          "internalType": "address",
          "name": "account",
          "type": "address"
        },
        {
          "indexed": true,
          "internalType": "address",
          "name": "sender",
          "type": "address"
        }
      ],
      "name": "RoleRevoked",
      "type": "event"
    },
    {
      "anonymous": false,
      "inputs": [
        {
          "indexed": false,
          "internalType": "address",
          "name": "account",
          "type": "address"
        }
      ],
      "name": "Unpaused",
      "type": "event"
    },
    {
      "anonymous": false,
      "inputs": [
        {
          "indexed": false,
          "internalType": "bytes32",
          "name": "root",
          "type": "bytes32"
        }
      ],
      "name": "UpdateRoot",
      "type": "event"
    },
    {
      "anonymous": false,
      "inputs": [
        {
          "indexed": false,
          "internalType": "uint64",
          "name": "whaleOpenTime",
          "type": "uint64"
        },
        {
          "indexed": false,
          "internalType": "uint64",
          "name": "whaleCloseTime",
          "type": "uint64"
        },
        {
          "indexed": false,
          "internalType": "uint64",
          "name": "communityOpenTime",
          "type": "uint64"
        },
        {
          "indexed": false,
          "internalType": "uint64",
          "name": "communityCloseTime",
          "type": "uint64"
        }
      ],
      "name": "UpdateTime",
      "type": "event"
    },
    {
      "anonymous": false,
      "inputs": [
        {
          "indexed": false,
          "internalType": "address",
          "name": "sender",
          "type": "address"
        },
        {
          "indexed": false,
          "internalType": "address",
          "name": "beneficiary",
          "type": "address"
        },
        {
          "indexed": false,
          "internalType": "uint256",
          "name": "principalAmount",
          "type": "uint256"
        }
      ],
      "name": "WithdrawPurchasedAmount",
      "type": "event"
    },
    {
      "inputs": [],
      "name": "DEFAULT_ADMIN_ROLE",
      "outputs": [
        {
          "internalType": "bytes32",
          "name": "",
          "type": "bytes32"
        }
      ],
      "stateMutability": "view",
      "type": "function"
    },
    {
      "inputs": [],
      "name": "DOMAIN_SEPARATOR",
      "outputs": [
        {
          "internalType": "bytes32",
          "name": "",
          "type": "bytes32"
        }
      ],
      "stateMutability": "view",
      "type": "function"
    },
    {
      "inputs": [],
      "name": "FUND_TYPEHASH",
      "outputs": [
        {
          "internalType": "bytes32",
          "name": "",
          "type": "bytes32"
        }
      ],
      "stateMutability": "view",
      "type": "function"
    },
    {
      "inputs": [],
      "name": "NORMAL_USER",
      "outputs": [
        {
          "internalType": "bytes32",
          "name": "",
          "type": "bytes32"
        }
      ],
      "stateMutability": "view",
      "type": "function"
    },
    {
      "inputs": [],
      "name": "OWNER_ROLE",
      "outputs": [
        {
          "internalType": "bytes32",
          "name": "",
          "type": "bytes32"
        }
      ],
      "stateMutability": "view",
      "type": "function"
    },
    {
      "inputs": [],
      "name": "PERCENTAGE_DENOMINATOR",
      "outputs": [
        {
          "internalType": "uint16",
          "name": "",
          "type": "uint16"
        }
      ],
      "stateMutability": "view",
      "type": "function"
    },
    {
      "inputs": [],
      "name": "WHALE",
      "outputs": [
        {
          "internalType": "bytes32",
          "name": "",
          "type": "bytes32"
        }
      ],
      "stateMutability": "view",
      "type": "function"
    },
    {
      "inputs": [
        {
          "internalType": "address",
          "name": "owner",
          "type": "address"
        }
      ],
      "name": "__BasePausable__init",
      "outputs": [],
      "stateMutability": "nonpayable",
      "type": "function"
    },
    {
      "inputs": [
        {
          "internalType": "bytes32[]",
          "name": "proof",
          "type": "bytes32[]"
        },
        {
          "internalType": "uint256",
          "name": "_purchaseAmount",
          "type": "uint256"
        }
      ],
      "name": "buyTokenInCrowdfundingPool",
      "outputs": [],
      "stateMutability": "nonpayable",
      "type": "function"
    },
    {
      "inputs": [
        {
          "internalType": "bytes32[]",
          "name": "proof",
          "type": "bytes32[]"
        },
        {
          "internalType": "uint256",
          "name": "_purchaseAmount",
          "type": "uint256"
        },
        {
          "internalType": "uint256",
          "name": "_maxPurchaseBaseOnAllocations",
          "type": "uint256"
        }
      ],
      "name": "buyTokenInGalaxyPool",
      "outputs": [],
      "stateMutability": "nonpayable",
      "type": "function"
    },
    {
      "inputs": [
        {
          "internalType": "bool",
          "name": "_permanentDelete",
          "type": "bool"
        }
      ],
      "name": "cancelPool",
      "outputs": [],
      "stateMutability": "nonpayable",
      "type": "function"
    },
    {
      "inputs": [
        {
          "internalType": "address",
          "name": "_beneficiary",
          "type": "address"
        }
      ],
      "name": "claimFund",
      "outputs": [],
      "stateMutability": "nonpayable",
      "type": "function"
    },
    {
      "inputs": [
        {
          "internalType": "address",
          "name": "_beneficiary",
          "type": "address"
        }
      ],
      "name": "claimParticipationFee",
      "outputs": [],
      "stateMutability": "nonpayable",
      "type": "function"
    },
    {
      "inputs": [
        {
          "internalType": "address",
          "name": "_beneficiary",
          "type": "address"
        }
      ],
      "name": "claimTokenFee",
      "outputs": [],
      "stateMutability": "nonpayable",
      "type": "function"
    },
    {
      "inputs": [],
      "name": "communityCloseTime",
      "outputs": [
        {
          "internalType": "uint64",
          "name": "",
          "type": "uint64"
        }
      ],
      "stateMutability": "view",
      "type": "function"
    },
    {
      "inputs": [],
      "name": "communityOpenTime",
      "outputs": [
        {
          "internalType": "uint64",
          "name": "",
          "type": "uint64"
        }
      ],
      "stateMutability": "view",
      "type": "function"
    },
    {
      "inputs": [],
      "name": "crowdfundingParticipationFeePercentage",
      "outputs": [
        {
          "internalType": "uint16",
          "name": "",
          "type": "uint16"
        }
      ],
      "stateMutability": "view",
      "type": "function"
    },
    {
      "inputs": [],
      "name": "earlyAccessProportion",
      "outputs": [
        {
          "internalType": "uint16",
          "name": "",
          "type": "uint16"
        }
      ],
      "stateMutability": "view",
      "type": "function"
    },
    {
      "inputs": [],
      "name": "eip712Domain",
      "outputs": [
        {
          "internalType": "bytes1",
          "name": "fields",
          "type": "bytes1"
        },
        {
          "internalType": "string",
          "name": "name",
          "type": "string"
        },
        {
          "internalType": "string",
          "name": "version",
          "type": "string"
        },
        {
          "internalType": "uint256",
          "name": "chainId",
          "type": "uint256"
        },
        {
          "internalType": "address",
          "name": "verifyingContract",
          "type": "address"
        },
        {
          "internalType": "bytes32",
          "name": "salt",
          "type": "bytes32"
        },
        {
          "internalType": "uint256[]",
          "name": "extensions",
          "type": "uint256[]"
        }
      ],
      "stateMutability": "view",
      "type": "function"
    },
    {
      "inputs": [],
      "name": "fundClaimedAmount",
      "outputs": [
        {
          "internalType": "uint256",
          "name": "",
          "type": "uint256"
        }
      ],
      "stateMutability": "view",
      "type": "function"
    },
    {
      "inputs": [
        {
          "internalType": "contract IERC20withDec",
          "name": "_IDOToken",
          "type": "address"
        },
        {
          "internalType": "bytes",
          "name": "signature",
          "type": "bytes"
        }
      ],
      "name": "fundIDOToken",
      "outputs": [],
      "stateMutability": "nonpayable",
      "type": "function"
    },
    {
      "inputs": [],
      "name": "galaxyParticipationFeePercentage",
      "outputs": [
        {
          "internalType": "uint16",
          "name": "",
          "type": "uint16"
        }
      ],
      "stateMutability": "view",
      "type": "function"
    },
    {
      "inputs": [],
      "name": "galaxyPoolProportion",
      "outputs": [
        {
          "internalType": "uint16",
          "name": "",
          "type": "uint16"
        }
      ],
      "stateMutability": "view",
      "type": "function"
    },
    {
      "inputs": [],
      "name": "getClaimableFundAmount",
      "outputs": [
        {
          "internalType": "uint256",
          "name": "",
          "type": "uint256"
        }
      ],
      "stateMutability": "view",
      "type": "function"
    },
    {
      "inputs": [
        {
          "internalType": "uint256",
          "name": "_amount",
          "type": "uint256"
        }
      ],
      "name": "getIDOTokenAmountByOfferedCurrency",
      "outputs": [
        {
          "internalType": "uint256",
          "name": "",
          "type": "uint256"
        }
      ],
      "stateMutability": "view",
      "type": "function"
    },
    {
      "inputs": [
        {
          "internalType": "uint256",
          "name": "_tokenAmount",
          "type": "uint256"
        }
      ],
      "name": "getPurchaseTokenAmountByTokenAmount",
      "outputs": [
        {
          "internalType": "uint256",
          "name": "",
          "type": "uint256"
        }
      ],
      "stateMutability": "view",
      "type": "function"
    },
    {
      "inputs": [
        {
          "internalType": "bytes32",
          "name": "role",
          "type": "bytes32"
        }
      ],
      "name": "getRoleAdmin",
      "outputs": [
        {
          "internalType": "bytes32",
          "name": "",
          "type": "bytes32"
        }
      ],
      "stateMutability": "view",
      "type": "function"
    },
    {
      "inputs": [
        {
          "internalType": "bytes32",
          "name": "role",
          "type": "bytes32"
        },
        {
          "internalType": "address",
          "name": "account",
          "type": "address"
        }
      ],
      "name": "grantRole",
      "outputs": [],
      "stateMutability": "nonpayable",
      "type": "function"
    },
    {
      "inputs": [
        {
          "internalType": "bytes32",
          "name": "role",
          "type": "bytes32"
        },
        {
          "internalType": "address",
          "name": "account",
          "type": "address"
        }
      ],
      "name": "hasRole",
      "outputs": [
        {
          "internalType": "bool",
          "name": "",
          "type": "bool"
        }
      ],
      "stateMutability": "view",
      "type": "function"
    },
    {
      "inputs": [],
      "name": "ignitionFactory",
      "outputs": [
        {
          "internalType": "contract IIgnitionFactory",
          "name": "",
          "type": "address"
        }
      ],
      "stateMutability": "view",
      "type": "function"
    },
    {
      "inputs": [
        {
          "internalType": "address[2]",
          "name": "addrs",
          "type": "address[2]"
        },
        {
          "internalType": "uint256[18]",
          "name": "uints",
          "type": "uint256[18]"
        },
        {
          "internalType": "address",
          "name": "owner",
          "type": "address"
        }
      ],
      "name": "initialize",
      "outputs": [],
      "stateMutability": "nonpayable",
      "type": "function"
    },
    {
      "inputs": [],
      "name": "isFailBeforeTGEDate",
      "outputs": [
        {
          "internalType": "bool",
          "name": "",
          "type": "bool"
        }
      ],
      "stateMutability": "view",
      "type": "function"
    },
    {
      "inputs": [
        {
          "internalType": "address",
          "name": "sender",
          "type": "address"
        }
      ],
      "name": "isOwner",
      "outputs": [
        {
          "internalType": "bool",
          "name": "",
          "type": "bool"
        }
      ],
      "stateMutability": "view",
      "type": "function"
    },
    {
      "inputs": [],
      "name": "maxPurchaseAmountForEarlyAccess",
      "outputs": [
        {
          "internalType": "uint256",
          "name": "",
          "type": "uint256"
        }
      ],
      "stateMutability": "view",
      "type": "function"
    },
    {
      "inputs": [],
      "name": "maxPurchaseAmountForKYCUser",
      "outputs": [
        {
          "internalType": "uint256",
          "name": "",
          "type": "uint256"
        }
      ],
      "stateMutability": "view",
      "type": "function"
    },
    {
      "inputs": [],
      "name": "maxPurchaseAmountForNotKYCUser",
      "outputs": [
        {
          "internalType": "uint256",
          "name": "",
          "type": "uint256"
        }
      ],
      "stateMutability": "view",
      "type": "function"
    },
    {
      "inputs": [],
      "name": "name",
      "outputs": [
        {
          "internalType": "string",
          "name": "",
          "type": "string"
        }
      ],
      "stateMutability": "view",
      "type": "function"
    },
    {
      "inputs": [],
      "name": "offeredCurrency",
      "outputs": [
        {
          "internalType": "uint256",
          "name": "rate",
          "type": "uint256"
        },
        {
          "internalType": "uint256",
          "name": "decimal",
          "type": "uint256"
        }
      ],
      "stateMutability": "view",
      "type": "function"
    },
    {
      "inputs": [],
      "name": "participationFeeAmount",
      "outputs": [
        {
          "internalType": "uint256",
          "name": "",
          "type": "uint256"
        }
      ],
      "stateMutability": "view",
      "type": "function"
    },
    {
      "inputs": [],
      "name": "participationFeeClaimedStatus",
      "outputs": [
        {
          "internalType": "bool",
          "name": "",
          "type": "bool"
        }
      ],
      "stateMutability": "view",
      "type": "function"
    },
    {
      "inputs": [],
      "name": "paused",
      "outputs": [
        {
          "internalType": "bool",
          "name": "",
          "type": "bool"
        }
      ],
      "stateMutability": "view",
      "type": "function"
    },
    {
      "inputs": [],
      "name": "purchaseToken",
      "outputs": [
        {
          "internalType": "contract IERC20",
          "name": "",
          "type": "address"
        }
      ],
      "stateMutability": "view",
      "type": "function"
    },
    {
      "inputs": [],
      "name": "purchasedAmount",
      "outputs": [
        {
          "internalType": "uint256",
          "name": "",
          "type": "uint256"
        }
      ],
      "stateMutability": "view",
      "type": "function"
    },
    {
      "inputs": [],
      "name": "purchasedAmountInEarlyAccess",
      "outputs": [
        {
          "internalType": "uint256",
          "name": "",
          "type": "uint256"
        }
      ],
      "stateMutability": "view",
      "type": "function"
    },
    {
      "inputs": [],
      "name": "purchasedAmountInGalaxyPool",
      "outputs": [
        {
          "internalType": "uint256",
          "name": "",
          "type": "uint256"
        }
      ],
      "stateMutability": "view",
      "type": "function"
    },
    {
      "inputs": [
        {
          "internalType": "bytes32",
          "name": "role",
          "type": "bytes32"
        },
        {
          "internalType": "address",
          "name": "account",
          "type": "address"
        }
      ],
      "name": "renounceRole",
      "outputs": [],
      "stateMutability": "nonpayable",
      "type": "function"
    },
    {
      "inputs": [
        {
          "internalType": "bytes32",
          "name": "role",
          "type": "bytes32"
        },
        {
          "internalType": "address",
          "name": "account",
          "type": "address"
        }
      ],
      "name": "revokeRole",
      "outputs": [],
      "stateMutability": "nonpayable",
      "type": "function"
    },
    {
      "inputs": [],
      "name": "root",
      "outputs": [
        {
          "internalType": "bytes32",
          "name": "",
          "type": "bytes32"
        }
      ],
      "stateMutability": "view",
      "type": "function"
    },
    {
      "inputs": [
        {
          "internalType": "bool",
          "name": "_status",
          "type": "bool"
        }
      ],
      "name": "setClaimableStatus",
      "outputs": [],
      "stateMutability": "nonpayable",
      "type": "function"
    },
    {
      "inputs": [
        {
          "internalType": "bytes32",
          "name": "_root",
          "type": "bytes32"
        }
      ],
      "name": "setRoot",
      "outputs": [],
      "stateMutability": "nonpayable",
      "type": "function"
    },
    {
      "inputs": [
        {
          "internalType": "bytes4",
          "name": "interfaceId",
          "type": "bytes4"
        }
      ],
      "name": "supportsInterface",
      "outputs": [
        {
          "internalType": "bool",
          "name": "",
          "type": "bool"
        }
      ],
      "stateMutability": "view",
      "type": "function"
    },
    {
      "inputs": [],
      "name": "tgeUpdateAttempts",
      "outputs": [
        {
          "internalType": "uint8",
          "name": "",
          "type": "uint8"
        }
      ],
      "stateMutability": "view",
      "type": "function"
    },
    {
      "inputs": [],
      "name": "tokenFeeClaimedStatus",
      "outputs": [
        {
          "internalType": "bool",
          "name": "",
          "type": "bool"
        }
      ],
      "stateMutability": "view",
      "type": "function"
    },
    {
      "inputs": [],
      "name": "tokenFeePercentage",
      "outputs": [
        {
          "internalType": "uint16",
          "name": "",
          "type": "uint16"
        }
      ],
      "stateMutability": "view",
      "type": "function"
    },
    {
      "inputs": [],
      "name": "totalRaiseAmount",
      "outputs": [
        {
          "internalType": "uint256",
          "name": "",
          "type": "uint256"
        }
      ],
      "stateMutability": "view",
      "type": "function"
    },
    {
      "inputs": [
        {
          "internalType": "uint64",
          "name": "_newTGEDate",
          "type": "uint64"
        }
      ],
      "name": "updateTGEDate",
      "outputs": [],
      "stateMutability": "nonpayable",
      "type": "function"
    },
    {
      "inputs": [
        {
          "internalType": "uint64",
          "name": "_newWhaleCloseTime",
          "type": "uint64"
        },
        {
          "internalType": "uint64",
          "name": "_newCommunityCloseTime",
          "type": "uint64"
        }
      ],
      "name": "updateTime",
      "outputs": [],
      "stateMutability": "nonpayable",
      "type": "function"
    },
    {
      "inputs": [
        {
          "internalType": "address",
          "name": "",
          "type": "address"
        }
      ],
      "name": "userPurchasedAmount",
      "outputs": [
        {
          "internalType": "uint256",
          "name": "principal",
          "type": "uint256"
        },
        {
          "internalType": "uint256",
          "name": "fee",
          "type": "uint256"
        },
        {
          "internalType": "uint256",
          "name": "withdrawn",
          "type": "uint256"
        }
      ],
      "stateMutability": "view",
      "type": "function"
    },
    {
      "inputs": [],
      "name": "version",
      "outputs": [
        {
          "internalType": "string",
          "name": "",
          "type": "string"
        }
      ],
      "stateMutability": "view",
      "type": "function"
    },
    {
      "inputs": [],
      "name": "vesting",
      "outputs": [
        {
          "internalType": "contract IVesting",
          "name": "",
          "type": "address"
        }
      ],
      "stateMutability": "view",
      "type": "function"
    },
    {
      "inputs": [],
      "name": "whaleCloseTime",
      "outputs": [
        {
          "internalType": "uint64",
          "name": "",
          "type": "uint64"
        }
      ],
      "stateMutability": "view",
      "type": "function"
    },
    {
      "inputs": [],
      "name": "whaleOpenTime",
      "outputs": [
        {
          "internalType": "uint64",
          "name": "",
          "type": "uint64"
        }
      ],
      "stateMutability": "view",
      "type": "function"
    },
    {
      "inputs": [
        {
          "internalType": "address",
          "name": "",
          "type": "address"
        }
      ],
      "name": "whalePurchasedAmount",
      "outputs": [
        {
          "internalType": "uint256",
          "name": "",
          "type": "uint256"
        }
      ],
      "stateMutability": "view",
      "type": "function"
    },
    {
      "inputs": [
        {
          "internalType": "address",
          "name": "_beneficiary",
          "type": "address"
        }
      ],
      "name": "withdrawPurchasedAmount",
      "outputs": [],
      "stateMutability": "nonpayable",
      "type": "function"
    },
    {
      "inputs": [
        {
          "internalType": "address",
          "name": "_beneficiary",
          "type": "address"
        }
      ],
      "name": "withdrawRedundantIDOToken",
      "outputs": [],
      "stateMutability": "nonpayable",
      "type": "function"
    }
  ],
  "transactionHash": "0xd3046122a769d253a5cf2b273bfb580716b4331dca60a1164c841bd130bddbda",
  "args": [],
  "numDeployments": 1,
  "solcInputHash": "33fbcb0f65f7a2cea0f5195390b0942a",
  "bytecode": "0x60806040523480156200001157600080fd5b506200001c62000022565b620000f0565b601354600160b81b900460ff1615620000915760405162461bcd60e51b815260206004820152602760248201527f496e697469616c697a61626c653a20636f6e747261637420697320696e697469604482015266616c697a696e6760c81b606482015260840160405180910390fd5b601354600160b01b900460ff90811614620000ee576013805460ff60b01b191660ff60b01b17905560405160ff81527f7f26b83ff96e1f2b6a682f133852f6798a09c465da95921460cefb38474024989060200160405180910390a15b565b615cb380620001006000396000f3fe608060405234801561001057600080fd5b50600436106103db5760003560e01c80637b1a08381161020a578063c09d6fb911610125578063e3b37f30116100b8578063ebf0c71711610087578063ebf0c71714610914578063efaad0ec1461091d578063f137993914610930578063f1f8044a14610939578063f4d1c56c1461094c57600080fd5b8063e3b37f301461089e578063e58378bb146108b1578063e7a00232146108c6578063e9959149146108ed57600080fd5b8063ce7c6410116100f4578063ce7c64101461083e578063cf4186ec14610858578063d547741f14610878578063dab5f3401461088b57600080fd5b8063c09d6fb9146107da578063c313607414610801578063c6b3665c14610814578063cdc5598e1461082957600080fd5b8063a236498e1161019d578063adaa039c1161016c578063adaa039c146107ac578063b3679bda146107b5578063b3cd4254146107be578063bb8e3f44146107c757600080fd5b8063a236498e14610722578063a4f276c714610735578063a558b65c1461077f578063a95c4d621461079957600080fd5b806391d14854116101d957806391d14854146106f25780639ac8d38b14610705578063a0918c4f14610712578063a217fddf1461071a57600080fd5b80637b1a0838146106b257806384b0196e146106bb57806385f8f4be146106d65780638a39face146106df57600080fd5b80633baa6fca116102fa5780635671e8c91161028d5780636e44a6c91161025c5780636e44a6c9146106795780636e516bbe1461068157806377292d5b146106945780637837734f1461069d57600080fd5b80635671e8c9146106355780635c975abb146106485780636db6e031146106535780636e3b466d1461066657600080fd5b806344c63eec116102c957806344c63eec146105b45780634f93d1ad146105df57806350a729281461060257806354fd4d501461061557600080fd5b80633baa6fca146105685780633bc270db1461057b5780633d3e37631461058e5780633d4527b7146105a157600080fd5b8063226d232a1161037257806330bba6c41161034157806330bba6c41461052f57806334fa224b146105385780633644e5151461054d57806336568abe1461055557600080fd5b8063226d232a146104d3578063248a9ca3146104e65780632f2ff15d146105095780632f54bf6e1461051c57600080fd5b8063086425bc116103ae578063086425bc146104705780631acbc823146104855780632013b4c41461048e5780632186b368146104c057600080fd5b806301ffc9a7146103e057806302bb34c814610408578063068350b91461041f57806306fdde0314610440575b600080fd5b6103f36103ee36600461521e565b610972565b60405190151581526020015b60405180910390f35b61041160105481565b6040519081526020016103ff565b60085461042d9061ffff1681565b60405161ffff90911681526020016103ff565b61046360405180604001604052806004815260200163141bdbdb60e21b81525081565b6040516103ff9190615298565b61048361047e3660046152ef565b6109a9565b005b610411600f5481565b600a546104a890600160c01b90046001600160401b031681565b6040516001600160401b0390911681526020016103ff565b6104836104ce366004615354565b610a2c565b6104836104e1366004615354565b610dc0565b6104116104f4366004615371565b60009081526078602052604090206001015490565b61048361051736600461538a565b611285565b6103f361052a366004615354565b6112af565b61041160075481565b60085461042d90600160381b900461ffff1681565b6104116112c9565b61048361056336600461538a565b6112d8565b600a546104a8906001600160401b031681565b6104836105893660046153ba565b61135b565b61048361059c366004615453565b6116e1565b6104836105af36600461548f565b611ac2565b6013546105c7906001600160a01b031681565b6040516001600160a01b0390911681526020016103ff565b6003546004546105ed919082565b604080519283526020830191909152016103ff565b6001546105c7906001600160a01b031681565b610463604051806040016040528060018152602001603160f81b81525081565b61048361064336600461548f565b611d7c565b60aa5460ff166103f3565b6104836106613660046154ac565b611ea5565b6008546103f39062010000900460ff1681565b6104116126bb565b61048361068f366004615354565b6126fd565b610411600d5481565b60085461042d906301000000900461ffff1681565b610411600e5481565b6106c3612917565b6040516103ff9796959493929190615500565b61041160065481565b6104116106ed366004615371565b6129b7565b6103f361070036600461538a565b6129df565b600c546103f39060ff1681565b6103f3612a0a565b610411600081565b610411610730366004615371565b612b2f565b610764610743366004615354565b60116020526000908152604090208054600182015460029092015490919083565b604080519384526020840192909252908201526060016103ff565b600a546104a890600160801b90046001600160401b031681565b6002546105c7906001600160a01b031681565b610411600b5481565b61041160095481565b61042d61271081565b6104836107d5366004615354565b612bae565b6104117fed4b80c86c7954bdbf516c492acb4a2899eb0ee85b7c74e26d85e55a07562c9581565b61048361080f366004615354565b612c46565b60085461042d90600160281b900461ffff1681565b60085461042d90600160481b900461ffff1681565b600a546104a890600160401b90046001600160401b031681565b610411610866366004615354565b60126020526000908152604090205481565b61048361088636600461538a565b612ff1565b610483610899366004615371565b613016565b6104836108ac366004615599565b6130e8565b610411600080516020615c5e83398151915281565b6104117f52d52760e40624a39bea36339850f64206470d82f714f11095b454fbff6de95281565b6104117f13e31188d81b941f4c541528790db4031bef078b78d364bde6fc2d4e5ad79e0181565b61041160005481565b61048361092b3660046155b6565b6134bb565b61041160055481565b610483610947366004615354565b613554565b60135461096090600160a01b900460ff1681565b60405160ff90911681526020016103ff565b60006001600160e01b03198216637965db0b60e01b14806109a357506301ffc9a760e01b6001600160e01b03198316145b92915050565b6109b1613842565b6109b961388a565b6109c16138e3565b6109de57604051630bab667960e31b815260040160405180910390fd5b6109e9338383613915565b6109f2826139bd565b600854610a139085908590859085906301000000900461ffff166000613a50565b610a1c82613b0a565b610a26600160dc55565b50505050565b6001546001600160a01b0316632f54bf6e336040516001600160e01b031960e084901b1681526001600160a01b039091166004820152602401602060405180830381865afa158015610a82573d6000803e3d6000fd5b505050506040513d601f19601f82011682018060405250810190610aa69190615617565b610ac35760405163036c8cf960e11b815260040160405180910390fd5b610acb613842565b601360009054906101000a90046001600160a01b03166001600160a01b0316637c6543036040518163ffffffff1660e01b8152600401602060405180830381865afa158015610b1e573d6000803e3d6000fd5b505050506040513d601f19601f82011682018060405250810190610b429190615617565b610b5f57604051636af784dd60e11b815260040160405180910390fd5b610b6761388a565b6013546040805162dc25a360e81b815290516000926001600160a01b03169163dc25a3009160048083019260a09291908290030181865afa158015610bb0573d6000803e3d6000fd5b505050506040513d601f19601f82011682018060405250810190610bd4919061564b565b505050509050806001600160401b0316600160009054906101000a90046001600160a01b03166001600160a01b031663bc87783f6040518163ffffffff1660e01b8152600401602060405180830381865afa158015610c37573d6000803e3d6000fd5b505050506040513d601f19601f82011682018060405250810190610c5b91906156b2565b610c6591906156e1565b421015610c8557604051637886cea160e01b815260040160405180910390fd5b601360009054906101000a90046001600160a01b03166001600160a01b0316639aa74a8c6040518163ffffffff1660e01b8152600401602060405180830381865afa158015610cd8573d6000803e3d6000fd5b505050506040513d601f19601f82011682018060405250810190610cfc9190615617565b15610d1a5760405163d66e246160e01b815260040160405180910390fd5b600c5460ff161515600103610d425760405163dbf0a95d60e01b815260040160405180910390fd5b600b54600254610d5f916001600160a01b03909116908490613b51565b600c805460ff19166001179055600b54604080516001600160a01b038516815260208101929092527f271b8a9c81b4d02d8aca6c2a2e341a4e3e125356c586780413e857a0fadd766a910160405180910390a150610dbd600160dc55565b50565b610dc9336112af565b610de657604051632e6c18c960e11b815260040160405180910390fd5b610dee613842565b601360009054906101000a90046001600160a01b03166001600160a01b0316637c6543036040518163ffffffff1660e01b8152600401602060405180830381865afa158015610e41573d6000803e3d6000fd5b505050506040513d601f19601f82011682018060405250810190610e659190615617565b610e8257604051636af784dd60e11b815260040160405180910390fd5b610e8a61388a565b6013546040805162dc25a360e81b815290516000926001600160a01b03169163dc25a3009160048083019260a09291908290030181865afa158015610ed3573d6000803e3d6000fd5b505050506040513d601f19601f82011682018060405250810190610ef7919061564b565b505050509050806001600160401b0316600160009054906101000a90046001600160a01b03166001600160a01b031663bc87783f6040518163ffffffff1660e01b8152600401602060405180830381865afa158015610f5a573d6000803e3d6000fd5b505050506040513d601f19601f82011682018060405250810190610f7e91906156b2565b610f8891906156e1565b421015610fa857604051637886cea160e01b815260040160405180910390fd5b601360009054906101000a90046001600160a01b03166001600160a01b0316639aa74a8c6040518163ffffffff1660e01b8152600401602060405180830381865afa158015610ffb573d6000803e3d6000fd5b505050506040513d601f19601f8201168201806040525081019061101f9190615617565b1561103d5760405163d66e246160e01b815260040160405180910390fd5b601360009054906101000a90046001600160a01b03166001600160a01b03166374478bb36040518163ffffffff1660e01b8152600401602060405180830381865afa158015611090573d6000803e3d6000fd5b505050506040513d601f19601f820116820180604052508101906110b49190615617565b6110d157604051639cbf808960e01b815260040160405180910390fd5b60006110db6126bb565b9050600081116110fe576040516316087e8160e11b815260040160405180910390fd5b80601054036111205760405163c23ca7e360e01b815260040160405180910390fd5b6002546040516370a0823160e01b81523060048201526001600160a01b03909116906370a0823190602401602060405180830381865afa158015611168573d6000803e3d6000fd5b505050506040513d601f19601f8201168201806040525081019061118c91906156b2565b811115611204576002546040516370a0823160e01b81523060048201526001600160a01b03909116906370a0823190602401602060405180830381865afa1580156111db573d6000803e3d6000fd5b505050506040513d601f19601f820116820180604052508101906111ff91906156b2565b611206565b805b9050806010600082825461121a91906156e1565b9091555050600254611236906001600160a01b03168483613b51565b604080516001600160a01b0385168152602081018390527f0f8819b8888ebff61f219df3a7380d5329e5c298966c09de72e7a1449149b47491015b60405180910390a15050610dbd600160dc55565b6000828152607860205260409020600101546112a081613bb4565b6112aa8383613bbe565b505050565b60006109a3600080516020615c5e833981519152836129df565b60006112d3613c44565b905090565b6001600160a01b038116331461134d5760405162461bcd60e51b815260206004820152602f60248201527f416363657373436f6e74726f6c3a2063616e206f6e6c792072656e6f756e636560448201526e103937b632b9903337b91039b2b63360891b60648201526084015b60405180910390fd5b6113578282613c4e565b5050565b611364336112af565b61138157604051632e6c18c960e11b815260040160405180910390fd5b611389613842565b61139161388a565b6013546040805162dc25a360e81b815290516000926001600160a01b03169163dc25a3009160048083019260a09291908290030181865afa1580156113da573d6000803e3d6000fd5b505050506040513d601f19601f820116820180604052508101906113fe919061564b565b505050509050806001600160401b0316421061142d57604051630487bd8960e11b815260040160405180910390fd5b601360009054906101000a90046001600160a01b03166001600160a01b0316637c6543036040518163ffffffff1660e01b8152600401602060405180830381865afa158015611480573d6000803e3d6000fd5b505050506040513d601f19601f820116820180604052508101906114a49190615617565b156114c25760405163221ede4760e01b815260040160405180910390fd5b60135460408051630edaf7f360e11b815290516000926001600160a01b031691631db5efe69160048083019260209291908290030181865afa15801561150c573d6000803e3d6000fd5b505050506040513d601f19601f8201168201806040525081019061153091906156f4565b9050600061153f6009546129b7565b90506001600160a01b03821661161557600a54600160c01b90046001600160401b0316421161158157604051634025f6b360e11b815260040160405180910390fd5b61158c868686613cb5565b6115a957604051632057875960e21b815260040160405180910390fd5b601354604051620c8f6d60e81b81526001600160a01b03888116600483015290911690630c8f6d0090602401600060405180830381600087803b1580156115ef57600080fd5b505af1158015611603573d6000803e3d6000fd5b50505050611612600f546129b7565b90505b61162c86336013546001600160a01b031684613f22565b6013546040516301f76b3560e11b815260048101839052600160248201526001600160a01b03909116906303eed66a90604401600060405180830381600087803b15801561167957600080fd5b505af115801561168d573d6000803e3d6000fd5b5050604080516001600160a01b038a168152602081018590527ffd1c6e1b2189d312d7360ee69c2e59b038f3f1e637e102efc2c3a833b617958e935001905060405180910390a15050506112aa600160dc55565b6001546001600160a01b0316632f54bf6e336040516001600160e01b031960e084901b1681526001600160a01b039091166004820152602401602060405180830381865afa158015611737573d6000803e3d6000fd5b505050506040513d601f19601f8201168201806040525081019061175b9190615617565b6117785760405163036c8cf960e11b815260040160405180910390fd5b6013546040805162dc25a360e81b815290516000926001600160a01b03169163dc25a3009160048083019260a09291908290030181865afa1580156117c1573d6000803e3d6000fd5b505050506040513d601f19601f820116820180604052508101906117e5919061564b565b505050509050806001600160401b0316421061181457604051630487bd8960e11b815260040160405180910390fd5b601360009054906101000a90046001600160a01b03166001600160a01b031663164e2c2a6040518163ffffffff1660e01b8152600401602060405180830381865afa158015611867573d6000803e3d6000fd5b505050506040513d601f19601f8201168201806040525081019061188b9190615617565b80156119095750601360009054906101000a90046001600160a01b03166001600160a01b0316637c6543036040518163ffffffff1660e01b8152600401602060405180830381865afa1580156118e5573d6000803e3d6000fd5b505050506040513d601f19601f820116820180604052508101906119099190615617565b156119275760405163beffa56560e01b815260040160405180910390fd5b6013546040805162dc25a360e81b815290516000926001600160a01b03169163dc25a3009160048083019260a09291908290030181865afa158015611970573d6000803e3d6000fd5b505050506040513d601f19601f82011682018060405250810190611994919061564b565b5050600a5492935050506001600160401b0380861691161015806119ca5750826001600160401b0316846001600160401b031610155b806119e65750806001600160401b0316836001600160401b0316115b15611a04576040516337bf561360e11b815260040160405180910390fd5b600a8054600160401b600160c01b031916600160401b6001600160401b0387811682810267ffffffffffffffff60801b191693909317600160801b938402176001600160c01b038116600160c01b8984168102918217968790556040805193851692851692909217835293860483166020830152938504821693810193909352920490911660608201527feedf049ba2a9e400be9e2a2d93b7e6023411a5c4fd77fe703bc75c2fea691fc3906080015b60405180910390a150505050565b6001546001600160a01b0316632f54bf6e336040516001600160e01b031960e084901b1681526001600160a01b039091166004820152602401602060405180830381865afa158015611b18573d6000803e3d6000fd5b505050506040513d601f19601f82011682018060405250810190611b3c9190615617565b611b595760405163036c8cf960e11b815260040160405180910390fd5b6013546040805162dc25a360e81b815290516000926001600160a01b03169163dc25a3009160048083019260a09291908290030181865afa158015611ba2573d6000803e3d6000fd5b505050506040513d601f19601f82011682018060405250810190611bc6919061564b565b505050509050806001600160401b03164210611cdb576001546040805163bc87783f60e01b815290516001600160401b038416926001600160a01b03169163bc87783f9160048083019260209291908290030181865afa158015611c2e573d6000803e3d6000fd5b505050506040513d601f19601f82011682018060405250810190611c5291906156b2565b611c5c91906156e1565b421115611c7c576040516306e0252760e51b815260040160405180910390fd5b6013546040516358e0fb5560e01b8152600160048201526001600160a01b03909116906358e0fb5590602401600060405180830381600087803b158015611cc257600080fd5b505af1158015611cd6573d6000803e3d6000fd5b505050505b611ce3613f37565b601354604051635671e8c960e01b8152600060048201526001600160a01b0390911690635671e8c990602401600060405180830381600087803b158015611d2957600080fd5b505af1158015611d3d573d6000803e3d6000fd5b505060405184151581523092507fcf113a21b92df7813071b3bb491583c8469cf02f9b1c0280d4500d339570a17f915060200160405180910390a25050565b6001546001600160a01b0316632f54bf6e336040516001600160e01b031960e084901b1681526001600160a01b039091166004820152602401602060405180830381865afa158015611dd2573d6000803e3d6000fd5b505050506040513d601f19601f82011682018060405250810190611df69190615617565b611e135760405163036c8cf960e11b815260040160405180910390fd5b801515600103611e4357611e25612a0a565b15611e435760405163098bb09f60e41b815260040160405180910390fd5b601354604051635671e8c960e01b815282151560048201526001600160a01b0390911690635671e8c990602401600060405180830381600087803b158015611e8a57600080fd5b505af1158015611e9e573d6000803e3d6000fd5b5050505050565b601354600160b81b900460ff1615808015611ecd57506013546001600160b01b90910460ff16105b80611eee5750303b158015611eee5750601354600160b01b900460ff166001145b611f515760405162461bcd60e51b815260206004820152602e60248201527f496e697469616c697a61626c653a20636f6e747261637420697320616c72656160448201526d191e481a5b9a5d1a585b1a5e995960921b6064820152608401611344565b6013805460ff60b01b1916600160b01b1790558015611f7e576013805460ff60b81b1916600160b81b1790555b604051635c1c862160e01b81526001600160a01b038316600482015273F1Fd2C04Af1F3666f6248cd1cf80F93E3f9Ee23E90635c1c86219060240160006040518083038186803b158015611fd157600080fd5b505af4158015611fe5573d6000803e3d6000fd5b5050505061202860405180604001604052806004815260200163141bdbdb60e21b815250604051806040016040528060018152602001603160f81b815250613f91565b61203182612bae565b60405163b95f0a6360e01b815273F1Fd2C04Af1F3666f6248cd1cf80F93E3f9Ee23E9063b95f0a639061206a9087908790600401615711565b60006040518083038186803b15801561208257600080fd5b505af4158015612096573d6000803e3d6000fd5b505050506120a13390565b600180546001600160a01b0319166001600160a01b03929092169190911790556120f46120d16020860186615354565b6101a08501356101c08601356101e0870135610200880135610220890135613fc4565b73F1Fd2C04Af1F3666f6248cd1cf80F93E3f9Ee23E635c1c862161211e6040870160208801615354565b6040516001600160e01b031960e084901b1681526001600160a01b03909116600482015260240160006040518083038186803b15801561215d57600080fd5b505af4158015612171573d6000803e3d6000fd5b505050508360016002811061218857612188615760565b60200201602081019061219b9190615354565b600280546001600160a01b0319166001600160a01b03929092169190911790558235600681905560208401356007819055106121ea57604051636f54786760e11b815260040160405180910390fd5b6121fb8360025b60200201356140d7565b6008805461ffff191661ffff9290921691909117905561221c8360036121f1565b6008805461ffff9290921663010000000264ffff000000199092169190911790556122488360046121f1565b600860056101000a81548161ffff021916908361ffff160217905550600160009054906101000a90046001600160a01b03166001600160a01b031663d8c128226040518163ffffffff1660e01b8152600401602060405180830381865afa1580156122b7573d6000803e3d6000fd5b505050506040513d601f19601f820116820180604052508101906122db9190615776565b60085461ffff918216630100000090910490911610806123835750600160009054906101000a90046001600160a01b03166001600160a01b031663884c45096040518163ffffffff1660e01b8152600401602060405180830381865afa158015612349573d6000803e3d6000fd5b505050506040513d601f19601f8201168201806040525081019061236d9190615776565b60085461ffff9182166301000000909104909116115b156123a1576040516310a9cc4160e11b815260040160405180910390fd5b600160009054906101000a90046001600160a01b03166001600160a01b031663397a1cb36040518163ffffffff1660e01b8152600401602060405180830381865afa1580156123f4573d6000803e3d6000fd5b505050506040513d601f19601f820116820180604052508101906124189190615776565b60085461ffff918216600160281b90910490911610806124c05750600160009054906101000a90046001600160a01b03166001600160a01b031663d6de71fd6040518163ffffffff1660e01b8152600401602060405180830381865afa158015612486573d6000803e3d6000fd5b505050506040513d601f19601f820116820180604052508101906124aa9190615776565b60085461ffff918216600160281b909104909116115b156124de57604051631afca5c960e31b815260040160405180910390fd5b6124e98360056121f1565b6008805461ffff92909216600160381b0268ffff00000000000000199092169190911790556125198360066121f1565b600880546affff0000000000000000001916600160481b61ffff9384168102919091179182905560e086013560095561271092839291820481169161256791600160381b9091041683615791565b61ffff1660095461257891906157b3565b61258291906157b3565b61258c91906157ca565b61259691906157ca565b6005556125a761010084013561413e565b600a805467ffffffffffffffff19166001600160401b03929092169190911790556125e46125df6101208501356101008601356156e1565b61413e565b600a8054600160401b600160c01b031916600160401b6001600160401b0393841690810267ffffffffffffffff60801b191691909117600160801b918202179182905561263e926125df92610140880135929004166156e1565b600a80546001600160401b0392909216600160c01b026001600160c01b039092169190911790556101608301356003556101808301356004558015610a26576013805460ff60b81b19169055604051600181527f7f26b83ff96e1f2b6a682f133852f6798a09c465da95921460cefb384740249890602001611ab4565b600854600f546000918291612710916126da9161ffff909116906157b3565b6126e491906157ca565b9050600081600f546126f691906157ec565b9392505050565b61270561388a565b61270d612a0a565b15801561278e5750601360009054906101000a90046001600160a01b03166001600160a01b0316639aa74a8c6040518163ffffffff1660e01b8152600401602060405180830381865afa158015612768573d6000803e3d6000fd5b505050506040513d601f19601f8201168201806040525081019061278c9190615617565b155b156127ac57604051638d39ebd960e01b815260040160405180910390fd5b3360009081526011602052604090206002810154156127de57604051638d39ebd960e01b815260040160405180910390fd5b60135460408051635efb0c5d60e11b815233600482015281516000936001600160a01b03169263bdf618ba92602480820193918290030181865afa15801561282a573d6000803e3d6000fd5b505050506040513d601f19601f8201168201806040525081019061284e91906157ff565b915050600061285c82612b2f565b835460018501549192509060008361287483856156e1565b61287e91906157ec565b9050806000036128a157604051631a30ee4d60e11b815260040160405180910390fd5b6002546128b8906001600160a01b03168883613b51565b60028601819055604080513381526001600160a01b038916602082015280820183905290517f06ef36b707e3dba03834e3b12d116525831e552283719e0bb25d309006322a619181900360600190a1505050505050610dbd600160dc55565b60006060806000806000606061010e546000801b148015612939575061010f54155b61297d5760405162461bcd60e51b81526020600482015260156024820152741152540dcc4c8e88155b9a5b9a5d1a585b1a5e9959605a1b6044820152606401611344565b6129856141a6565b61298d614239565b60408051600080825260208201909252600f60f81b9b939a50919850469750309650945092509050565b6004546000906129c890600a61591d565b6003546129d590846157b3565b6109a391906157ca565b60009182526078602090815260408084206001600160a01b0393909316845291905290205460ff1690565b600080601360009054906101000a90046001600160a01b03166001600160a01b031663dc25a3006040518163ffffffff1660e01b815260040160a060405180830381865afa158015612a60573d6000803e3d6000fd5b505050506040513d601f19601f82011682018060405250810190612a84919061564b565b505050509050612a9660aa5460ff1690565b80612b295750601360009054906101000a90046001600160a01b03166001600160a01b0316637c6543036040518163ffffffff1660e01b8152600401602060405180830381865afa158015612aef573d6000803e3d6000fd5b505050506040513d601f19601f82011682018060405250810190612b139190615617565b158015612b295750806001600160401b03164210155b91505090565b600354600090612b935760405162461bcd60e51b815260206004820152602960248201527f436f6e76657273696f6e2072617465206d7573742062652067726561746572206044820152687468616e207a65726f60b81b6064820152608401611344565b600354600454612ba490600a61591d565b6129d590846157b3565b601354600160b81b900460ff16612bd75760405162461bcd60e51b815260040161134490615929565b6001600160a01b038116612bfe57604051633bf95ba760e01b815260040160405180910390fd5b612c06614249565b612c0e614272565b612c166142a3565b612c2e600080516020615c5e83398151915282613bbe565b610dbd600080516020615c5e833981519152806142d4565b6001546001600160a01b0316632f54bf6e336040516001600160e01b031960e084901b1681526001600160a01b039091166004820152602401602060405180830381865afa158015612c9c573d6000803e3d6000fd5b505050506040513d601f19601f82011682018060405250810190612cc09190615617565b612cdd5760405163036c8cf960e11b815260040160405180910390fd5b612ce5613842565b601360009054906101000a90046001600160a01b03166001600160a01b0316637c6543036040518163ffffffff1660e01b8152600401602060405180830381865afa158015612d38573d6000803e3d6000fd5b505050506040513d601f19601f82011682018060405250810190612d5c9190615617565b612d7957604051636af784dd60e11b815260040160405180910390fd5b612d8161388a565b6013546040805162dc25a360e81b815290516000926001600160a01b03169163dc25a3009160048083019260a09291908290030181865afa158015612dca573d6000803e3d6000fd5b505050506040513d601f19601f82011682018060405250810190612dee919061564b565b505050509050806001600160401b0316600160009054906101000a90046001600160a01b03166001600160a01b031663bc87783f6040518163ffffffff1660e01b8152600401602060405180830381865afa158015612e51573d6000803e3d6000fd5b505050506040513d601f19601f82011682018060405250810190612e7591906156b2565b612e7f91906156e1565b421015612e9f57604051637886cea160e01b815260040160405180910390fd5b601360009054906101000a90046001600160a01b03166001600160a01b0316639aa74a8c6040518163ffffffff1660e01b8152600401602060405180830381865afa158015612ef2573d6000803e3d6000fd5b505050506040513d601f19601f82011682018060405250810190612f169190615617565b15612f345760405163d66e246160e01b815260040160405180910390fd5b60085462010000900460ff161515600103612f6257604051635dcab31160e01b815260040160405180910390fd5b600854600f5460009161271091612f7d9161ffff16906157b3565b612f8791906157ca565b600254909150612fa1906001600160a01b03168483613b51565b6008805462ff0000191662010000179055604080516001600160a01b0385168152602081018390527fcb4040dca59670b070ce40b47eb84aff39fa7db8cd83ad903380534add01dffa9101611271565b60008281526078602052604090206001015461300c81613bb4565b6112aa8383613c4e565b6001546001600160a01b0316632f54bf6e336040516001600160e01b031960e084901b1681526001600160a01b039091166004820152602401602060405180830381865afa15801561306c573d6000803e3d6000fd5b505050506040513d601f19601f820116820180604052508101906130909190615617565b6130ad5760405163036c8cf960e11b815260040160405180910390fd5b60008190556040518181527fc8d52687b85ab11e6859cb0b390a9e926e1b348d9796e084f88f88420c176fc69060200160405180910390a150565b6001546001600160a01b0316632f54bf6e336040516001600160e01b031960e084901b1681526001600160a01b039091166004820152602401602060405180830381865afa15801561313e573d6000803e3d6000fd5b505050506040513d601f19601f820116820180604052508101906131629190615617565b61317f5760405163036c8cf960e11b815260040160405180910390fd5b6013546040805162dc25a360e81b815290516000926001600160a01b03169163dc25a3009160048083019260a09291908290030181865afa1580156131c8573d6000803e3d6000fd5b505050506040513d601f19601f820116820180604052508101906131ec919061564b565b505050509050806001600160401b0316421061321b57604051630487bd8960e11b815260040160405180910390fd5b600a546001600160401b03808416600160c01b909204161115613251576040516337bf561360e11b815260040160405180910390fd5b600160009054906101000a90046001600160a01b03166001600160a01b03166370e4a6336040518163ffffffff1660e01b8152600401602060405180830381865afa1580156132a4573d6000803e3d6000fd5b505050506040513d601f19601f820116820180604052508101906132c891906156b2565b601354600160a01b900460ff16106132f35760405163dc37e81b60e01b815260040160405180910390fd5b600160009054906101000a90046001600160a01b03166001600160a01b03166362c1adc26040518163ffffffff1660e01b8152600401602060405180830381865afa158015613346573d6000803e3d6000fd5b505050506040513d601f19601f8201168201806040525081019061336a91906156b2565b601360009054906101000a90046001600160a01b03166001600160a01b031663e37bcc206040518163ffffffff1660e01b8152600401602060405180830381865afa1580156133bd573d6000803e3d6000fd5b505050506040513d601f19601f820116820180604052508101906133e19190615974565b6001600160401b03166133f491906156e1565b826001600160401b0316111561341d57604051630181c67960e41b815260040160405180910390fd5b601354604051630e3b37f360e41b81526001600160401b03841660048201526001600160a01b039091169063e3b37f3090602401600060405180830381600087803b15801561346b57600080fd5b505af115801561347f573d6000803e3d6000fd5b505060138054600160a01b900460ff1692509050601461349e83615991565b91906101000a81548160ff021916908360ff160217905550505050565b6134c3613842565b6134cb61388a565b6134d4816139bd565b6134dc6138e3565b1561351a576134ea8161431f565b60085461350c90849084908490600090600160281b900461ffff166001613a50565b613515816143b2565b61354a565b6135226143c4565b61353f57604051630bab667960e31b815260040160405180910390fd5b61354a8383836143fd565b6112aa600160dc55565b61355d336112af565b61357a57604051632e6c18c960e11b815260040160405180910390fd5b601354600160a81b900460ff16156135a557604051636beab46760e01b815260040160405180910390fd5b6013805460ff60a81b1916600160a81b17905560006135c2612a0a565b156136ab5760135460408051630edaf7f360e11b815290516000926001600160a01b031691631db5efe69160048083019260209291908290030181865afa158015613611573d6000803e3d6000fd5b505050506040513d601f19601f8201168201806040525081019061363591906156f4565b6013546040516370a0823160e01b81526001600160a01b0391821660048201529116906370a0823190602401602060405180830381865afa15801561367e573d6000803e3d6000fd5b505050506040513d601f19601f820116820180604052508101906136a291906156b2565b91506137d89050565b6013546040805162dc25a360e81b815290516000926001600160a01b03169163dc25a3009160048083019260a09291908290030181865afa1580156136f4573d6000803e3d6000fd5b505050506040513d601f19601f82011682018060405250810190613718919061564b565b505050509050806001600160401b0316421015613748576040516380e6639760e01b815260040160405180910390fd5b613753600f546129b7565b601360009054906101000a90046001600160a01b03166001600160a01b0316638488e5e66040518163ffffffff1660e01b8152600401602060405180830381865afa1580156137a6573d6000803e3d6000fd5b505050506040513d601f19601f820116820180604052508101906137ca91906156b2565b6137d491906157ec565b9150505b601354604051631773307960e21b81526001600160a01b0384811660048301526024820184905290911690635dccc1e490604401600060405180830381600087803b15801561382657600080fd5b505af115801561383a573d6000803e3d6000fd5b505050505050565b60aa5460ff16156138885760405162461bcd60e51b815260206004820152601060248201526f14185d5cd8589b194e881c185d5cd95960821b6044820152606401611344565b565b600260dc54036138dc5760405162461bcd60e51b815260206004820152601f60248201527f5265656e7472616e637947756172643a207265656e7472616e742063616c6c006044820152606401611344565b600260dc55565b600a546000906001600160401b0316421180156112d3575050600a54600160401b90046001600160401b031642111590565b604051633a4d4bcd60e11b81526004810183905273F1Fd2C04Af1F3666f6248cd1cf80F93E3f9Ee23E9063749a979a9060240160006040518083038186803b15801561396057600080fd5b505af4158015613974573d6000803e3d6000fd5b5050506001600160a01b03841660009081526012602052604090205482915061399e9084906156e1565b11156112aa57604051632b37c00360e11b815260040160405180910390fd5b604051633a4d4bcd60e11b81526004810182905273F1Fd2C04Af1F3666f6248cd1cf80F93E3f9Ee23E9063749a979a9060240160006040518083038186803b158015613a0857600080fd5b505af4158015613a1c573d6000803e3d6000fd5b5050505060095481600f54613a3191906156e1565b1115610dbd5760405163d68debb160e01b815260040160405180910390fd5b6000613a83336006547fed4b80c86c7954bdbf516c492acb4a2899eb0ee85b7c74e26d85e55a07562c9590878b8b6144c7565b90508015613a9f57613a99338685600186614563565b5061383a565b6000613ad2336007547fed4b80c86c7954bdbf516c492acb4a2899eb0ee85b7c74e26d85e55a07562c9590888c8c6144c7565b905080613af257604051637c7efb5360e11b815260040160405180910390fd5b613b00338786600087614563565b5050505050505050565b3360009081526012602052604081208054839290613b299084906156e1565b9250508190555080600d6000828254613b4291906156e1565b909155505050565b600160dc55565b6040516001600160a01b0383166024820152604481018290526112aa90849063a9059cbb60e01b906064015b60408051601f198184030181529190526020810180516001600160e01b03166001600160e01b031990931692909217909152614770565b610dbd8133614845565b613bc882826129df565b6113575760008281526078602090815260408083206001600160a01b03851684529091529020805460ff19166001179055613c003390565b6001600160a01b0316816001600160a01b0316837f2f8788117e7eff1d82e926ec794901d17c78024a50270940304540a733656f0d60405160405180910390a45050565b60006112d361489e565b613c5882826129df565b156113575760008281526078602090815260408083206001600160a01b0385168085529252808320805460ff1916905551339285917ff6391f5c32d9c69d2a47ea670b442974b53935d1edc7fd64eb21e047a839171b9190a45050565b600080846001600160a01b03166395d89b416040518163ffffffff1660e01b8152600401600060405180830381865afa158015613cf6573d6000803e3d6000fd5b505050506040513d6000823e601f3d908101601f19168201604052613d1e91908101906159b0565b604051602001613d2e9190615a51565b6040516020818303038152906040528051906020012090506000856001600160a01b031663313ce5676040518163ffffffff1660e01b8152600401602060405180830381865afa158015613d86573d6000803e3d6000fd5b505050506040513d601f19601f82011682018060405250810190613daa9190615a6d565b90506000613db66112c9565b604080517f52d52760e40624a39bea36339850f64206470d82f714f11095b454fbff6de95260208201526001600160a01b038a16918101919091523060608201526080810185905260ff841660a082015260c00160405160208183030381529060405280519060200120604051602001613e4792919061190160f01b81526002810192909252602282015260420190565b60408051601f198184030181528282528051602091820120600154601f8a0183900483028501830190935288845293506001600160a01b0390911691632f54bf6e91613eaf9185918b908b908190840183828082843760009201919091525061491292505050565b6040516001600160e01b031960e084901b1681526001600160a01b039091166004820152602401602060405180830381865afa158015613ef3573d6000803e3d6000fd5b505050506040513d601f19601f82011682018060405250810190613f179190615617565b979650505050505050565b610a266001600160a01b038516848484614936565b613f3f613842565b60aa805460ff191660011790557f62e78cea01bee320cd4e420270b5ea74000d11b0c9f74754ebdbfc544b05a258613f743390565b6040516001600160a01b03909116815260200160405180910390a1565b601354600160b81b900460ff16613fba5760405162461bcd60e51b815260040161134490615929565b611357828261496e565b6001546040805163cc6f033360e01b815290516000926001600160a01b03169163cc6f0333916004808301926020929190829003018187875af115801561400f573d6000803e3d6000fd5b505050506040513d601f19601f8201168201806040525081019061403391906156f4565b601380546001600160a01b0319166001600160a01b038381169182179092556040516376dfa56160e11b8152306004820152918a16602483015260448201899052606482018890526084820187905260a4820186905260c4820185905291925063edbf4ac29060e401600060405180830381600087803b1580156140b657600080fd5b505af11580156140ca573d6000803e3d6000fd5b5050505050505050505050565b600061ffff82111561413a5760405162461bcd60e51b815260206004820152602660248201527f53616665436173743a2076616c756520646f65736e27742066697420696e203160448201526536206269747360d01b6064820152608401611344565b5090565b60006001600160401b0382111561413a5760405162461bcd60e51b815260206004820152602660248201527f53616665436173743a2076616c756520646f65736e27742066697420696e203660448201526534206269747360d01b6064820152608401611344565b606061011080546141b690615a90565b80601f01602080910402602001604051908101604052809291908181526020018280546141e290615a90565b801561422f5780601f106142045761010080835404028352916020019161422f565b820191906000526020600020905b81548152906001019060200180831161421257829003601f168201915b5050505050905090565b606061011180546141b690615a90565b601354600160b81b900460ff166138885760405162461bcd60e51b815260040161134490615929565b601354600160b81b900460ff1661429b5760405162461bcd60e51b815260040161134490615929565b6138886149c3565b601354600160b81b900460ff166142cc5760405162461bcd60e51b815260040161134490615929565b6138886149f8565b600082815260786020526040808220600101805490849055905190918391839186917fbd79b86ffe0ab8e8776151514217cd7cacd52c909f66475c3af44e129f0b00ff9190a4505050565b604051633a4d4bcd60e11b81526004810182905273F1Fd2C04Af1F3666f6248cd1cf80F93E3f9Ee23E9063749a979a9060240160006040518083038186803b15801561436a57600080fd5b505af415801561437e573d6000803e3d6000fd5b5050505060055481600e5461439391906156e1565b1115610dbd57604051633770572b60e11b815260040160405180910390fd5b80600e6000828254613b4291906156e1565b600a54600090600160801b90046001600160401b0316421180156112d3575050600a54600160c01b90046001600160401b031642111590565b60026000614433336006547f13e31188d81b941f4c541528790db4031bef078b78d364bde6fc2d4e5ad79e0190600089896144c7565b9050801561445757611e9e336008548590600160281b900461ffff16600186614563565b600061448b336007547f13e31188d81b941f4c541528790db4031bef078b78d364bde6fc2d4e5ad79e019060008a8a6144c7565b9050806144ab5760405163b7fa26c560e01b815260040160405180910390fd5b61383a336008548690600160281b900461ffff16600087614563565b6040516bffffffffffffffffffffffff19606088901b16602082015260348101869052605481018590526074810184905260009081906094016040516020818303038152906040528051906020012090506145578484808060200260200160405190810160405280939291908181526020018383602002808284376000920182905250549250859150614a219050565b98975050505050505050565b8115156001036145b8576006546001600160a01b0386166000908152601160205260409020546145949086906156e1565b11156145b357604051633198921960e11b815260040160405180910390fd5b6145fe565b6007546001600160a01b0386166000908152601160205260409020546145df9086906156e1565b11156145fe5760405163dd4a737760e01b815260040160405180910390fd5b6040516353baaca160e11b8152600481018590526024810184905260009073F1Fd2C04Af1F3666f6248cd1cf80F93E3f9Ee23E9063a775594290604401602060405180830381865af4158015614658573d6000803e3d6000fd5b505050506040513d601f19601f8201168201806040525081019061467c91906156b2565b90506146913361468c83886156e1565b614a37565b61469b8682614acf565b6146a58686614ae9565b60006146b0866129b7565b60135460405163020caa2560e51b81526001600160a01b038a811660048301526024820184905292935091169063419544a090604401600060405180830381600087803b15801561470057600080fd5b505af1158015614714573d6000803e3d6000fd5b5050604080518981526020810185905260ff87168183015290513093506001600160a01b038b1692507f6666857ade20eaaed88e2671721b22c45635cc01006796336554a69f926be2f99181900360600190a350505050505050565b60006147c5826040518060400160405280602081526020017f5361666545524332303a206c6f772d6c6576656c2063616c6c206661696c6564815250856001600160a01b0316614afd9092919063ffffffff16565b90508051600014806147e65750808060200190518101906147e69190615617565b6112aa5760405162461bcd60e51b815260206004820152602a60248201527f5361666545524332303a204552433230206f7065726174696f6e20646964206e6044820152691bdd081cdd58d8d9595960b21b6064820152608401611344565b61484f82826129df565b6113575761485c81614b14565b614867836020614b26565b604051602001614878929190615aca565b60408051601f198184030181529082905262461bcd60e51b825261134491600401615298565b60007f8b73c3c69bb8fe3d512ecc4cf759cc79239f7b179b0ffacaa9a75d522b39400f6148c9614cc1565b6148d1614d1b565b60408051602081019490945283019190915260608201524660808201523060a082015260c00160405160208183030381529060405280519060200120905090565b60008060006149218585614d4d565b9150915061492e81614d92565b509392505050565b6040516001600160a01b0380851660248301528316604482015260648101829052610a269085906323b872dd60e01b90608401613b7d565b601354600160b81b900460ff166149975760405162461bcd60e51b815260040161134490615929565b6101106149a48382615b87565b506101116149b28282615b87565b5050600061010e81905561010f5550565b601354600160b81b900460ff166149ec5760405162461bcd60e51b815260040161134490615929565b60aa805460ff19169055565b601354600160b81b900460ff16613b4a5760405162461bcd60e51b815260040161134490615929565b600082614a2e8584614edc565b14949350505050565b600254604051636eb1769f60e11b81526001600160a01b038481166004830152306024830152600092169063dd62ed3e90604401602060405180830381865afa158015614a88573d6000803e3d6000fd5b505050506040513d601f19601f82011682018060405250810190614aac91906156b2565b9050818110156112aa57604051634fd3af0760e01b815260040160405180910390fd5b801561135757614adf8282614f17565b6113578282614f2f565b614af38282614f17565b6113578282614f7c565b6060614b0c8484600085614fbd565b949350505050565b60606109a36001600160a01b03831660145b60606000614b358360026157b3565b614b409060026156e1565b6001600160401b03811115614b5757614b57615823565b6040519080825280601f01601f191660200182016040528015614b81576020820181803683370190505b509050600360fc1b81600081518110614b9c57614b9c615760565b60200101906001600160f81b031916908160001a905350600f60fb1b81600181518110614bcb57614bcb615760565b60200101906001600160f81b031916908160001a9053506000614bef8460026157b3565b614bfa9060016156e1565b90505b6001811115614c72576f181899199a1a9b1b9c1cb0b131b232b360811b85600f1660108110614c2e57614c2e615760565b1a60f81b828281518110614c4457614c44615760565b60200101906001600160f81b031916908160001a90535060049490941c93614c6b81615c46565b9050614bfd565b5083156126f65760405162461bcd60e51b815260206004820181905260248201527f537472696e67733a20686578206c656e67746820696e73756666696369656e746044820152606401611344565b600080614ccc6141a6565b805190915015614ce3578051602090910120919050565b61010e548015614cf35792915050565b7fc5d2460186f7233c927e7db2dcc703c0e500b653ca82273b7bfad8045d85a4709250505090565b600080614d26614239565b805190915015614d3d578051602090910120919050565b61010f548015614cf35792915050565b6000808251604103614d835760208301516040840151606085015160001a614d778782858561508d565b94509450505050614d8b565b506000905060025b9250929050565b6000816004811115614da657614da6615601565b03614dae5750565b6001816004811115614dc257614dc2615601565b03614e0f5760405162461bcd60e51b815260206004820152601860248201527f45434453413a20696e76616c6964207369676e617475726500000000000000006044820152606401611344565b6002816004811115614e2357614e23615601565b03614e705760405162461bcd60e51b815260206004820152601f60248201527f45434453413a20696e76616c6964207369676e6174757265206c656e677468006044820152606401611344565b6003816004811115614e8457614e84615601565b03610dbd5760405162461bcd60e51b815260206004820152602260248201527f45434453413a20696e76616c6964207369676e6174757265202773272076616c604482015261756560f01b6064820152608401611344565b600081815b845181101561492e57614f0d82868381518110614f0057614f00615760565b6020026020010151615151565b9150600101614ee1565b600254611357906001600160a01b0316833084614936565b6001600160a01b03821660009081526011602052604081206001018054839290614f5a9084906156e1565b9250508190555080600b6000828254614f7391906156e1565b90915550505050565b6001600160a01b03821660009081526011602052604081208054839290614fa49084906156e1565b9250508190555080600f6000828254614f7391906156e1565b60608247101561501e5760405162461bcd60e51b815260206004820152602660248201527f416464726573733a20696e73756666696369656e742062616c616e636520666f6044820152651c8818d85b1b60d21b6064820152608401611344565b600080866001600160a01b0316858760405161503a9190615a51565b60006040518083038185875af1925050503d8060008114615077576040519150601f19603f3d011682016040523d82523d6000602084013e61507c565b606091505b5091509150613f1787838387615180565b6000807f7fffffffffffffffffffffffffffffff5d576e7357a4501ddfe92f46681b20a08311156150c45750600090506003615148565b6040805160008082526020820180845289905260ff881692820192909252606081018690526080810185905260019060a0016020604051602081039080840390855afa158015615118573d6000803e3d6000fd5b5050604051601f1901519150506001600160a01b03811661514157600060019250925050615148565b9150600090505b94509492505050565b600081831061516d5760008281526020849052604090206126f6565b60008381526020839052604090206126f6565b606083156151ef5782516000036151e8576001600160a01b0385163b6151e85760405162461bcd60e51b815260206004820152601d60248201527f416464726573733a2063616c6c20746f206e6f6e2d636f6e74726163740000006044820152606401611344565b5081614b0c565b614b0c83838151156152045781518083602001fd5b8060405162461bcd60e51b81526004016113449190615298565b60006020828403121561523057600080fd5b81356001600160e01b0319811681146126f657600080fd5b60005b8381101561526357818101518382015260200161524b565b50506000910152565b60008151808452615284816020860160208601615248565b601f01601f19169290920160200192915050565b6020815260006126f6602083018461526c565b60008083601f8401126152bd57600080fd5b5081356001600160401b038111156152d457600080fd5b6020830191508360208260051b8501011115614d8b57600080fd5b6000806000806060858703121561530557600080fd5b84356001600160401b0381111561531b57600080fd5b615327878288016152ab565b90989097506020870135966040013595509350505050565b6001600160a01b0381168114610dbd57600080fd5b60006020828403121561536657600080fd5b81356126f68161533f565b60006020828403121561538357600080fd5b5035919050565b6000806040838503121561539d57600080fd5b8235915060208301356153af8161533f565b809150509250929050565b6000806000604084860312156153cf57600080fd5b83356153da8161533f565b925060208401356001600160401b03808211156153f657600080fd5b818601915086601f83011261540a57600080fd5b81358181111561541957600080fd5b87602082850101111561542b57600080fd5b6020830194508093505050509250925092565b6001600160401b0381168114610dbd57600080fd5b6000806040838503121561546657600080fd5b82356154718161543e565b915060208301356153af8161543e565b8015158114610dbd57600080fd5b6000602082840312156154a157600080fd5b81356126f681615481565b60008060006102a084860312156154c257600080fd5b60408401858111156154d357600080fd5b8493506102808501868111156154e857600080fd5b909250356154f58161533f565b809150509250925092565b60ff60f81b881681526000602060e0602084015261552160e084018a61526c565b8381036040850152615533818a61526c565b606085018990526001600160a01b038816608086015260a0850187905284810360c08601528551808252602080880193509091019060005b818110156155875783518352928401929184019160010161556b565b50909c9b505050505050505050505050565b6000602082840312156155ab57600080fd5b81356126f68161543e565b6000806000604084860312156155cb57600080fd5b83356001600160401b038111156155e157600080fd5b6155ed868287016152ab565b909790965060209590950135949350505050565b634e487b7160e01b600052602160045260246000fd5b60006020828403121561562957600080fd5b81516126f681615481565b805161ffff8116811461564657600080fd5b919050565b600080600080600060a0868803121561566357600080fd5b855161566e8161543e565b945061567c60208701615634565b9350604086015161568c8161543e565b606087015190935061569d8161543e565b80925050608086015190509295509295909350565b6000602082840312156156c457600080fd5b5051919050565b634e487b7160e01b600052601160045260246000fd5b808201808211156109a3576109a36156cb565b60006020828403121561570657600080fd5b81516126f68161533f565b6102808101818460005b600281101561574d57813561572f8161533f565b6001600160a01b03168352602092830192919091019060010161571b565b5050506102408360408401379392505050565b634e487b7160e01b600052603260045260246000fd5b60006020828403121561578857600080fd5b6126f682615634565b61ffff8281168282160390808211156157ac576157ac6156cb565b5092915050565b80820281158282048414176109a3576109a36156cb565b6000826157e757634e487b7160e01b600052601260045260246000fd5b500490565b818103818111156109a3576109a36156cb565b6000806040838503121561581257600080fd5b505080516020909101519092909150565b634e487b7160e01b600052604160045260246000fd5b600181815b8085111561587457816000190482111561585a5761585a6156cb565b8085161561586757918102915b93841c939080029061583e565b509250929050565b60008261588b575060016109a3565b81615898575060006109a3565b81600181146158ae57600281146158b8576158d4565b60019150506109a3565b60ff8411156158c9576158c96156cb565b50506001821b6109a3565b5060208310610133831016604e8410600b84101617156158f7575081810a6109a3565b6159018383615839565b8060001904821115615915576159156156cb565b029392505050565b60006126f6838361587c565b6020808252602b908201527f496e697469616c697a61626c653a20636f6e7472616374206973206e6f74206960408201526a6e697469616c697a696e6760a81b606082015260800190565b60006020828403121561598657600080fd5b81516126f68161543e565b600060ff821660ff81036159a7576159a76156cb565b60010192915050565b6000602082840312156159c257600080fd5b81516001600160401b03808211156159d957600080fd5b818401915084601f8301126159ed57600080fd5b8151818111156159ff576159ff615823565b604051601f8201601f19908116603f01168101908382118183101715615a2757615a27615823565b81604052828152876020848701011115615a4057600080fd5b613f17836020830160208801615248565b60008251615a63818460208701615248565b9190910192915050565b600060208284031215615a7f57600080fd5b815160ff811681146126f657600080fd5b600181811c90821680615aa457607f821691505b602082108103615ac457634e487b7160e01b600052602260045260246000fd5b50919050565b7f416363657373436f6e74726f6c3a206163636f756e7420000000000000000000815260008351615b02816017850160208801615248565b7001034b99036b4b9b9b4b733903937b6329607d1b6017918401918201528351615b33816028840160208801615248565b01602801949350505050565b601f8211156112aa576000816000526020600020601f850160051c81016020861015615b685750805b601f850160051c820191505b8181101561383a57828155600101615b74565b81516001600160401b03811115615ba057615ba0615823565b615bb481615bae8454615a90565b84615b3f565b602080601f831160018114615be95760008415615bd15750858301515b600019600386901b1c1916600185901b17855561383a565b600085815260208120601f198616915b82811015615c1857888601518255948401946001909101908401615bf9565b5085821015615c365787850151600019600388901b60f8161c191681555b5050505050600190811b01905550565b600081615c5557615c556156cb565b50600019019056feb19546dff01e856fb3f010c267a7b1c60363cf8a4664e21cc89c26224620214ea26469706673582212208bb35606992e53a14d573700e4153273bb7382b9d5862c993cbe17f838ca1b0264736f6c63430008170033",
  "deployedBytecode": "0x608060405234801561001057600080fd5b50600436106103db5760003560e01c80637b1a08381161020a578063c09d6fb911610125578063e3b37f30116100b8578063ebf0c71711610087578063ebf0c71714610914578063efaad0ec1461091d578063f137993914610930578063f1f8044a14610939578063f4d1c56c1461094c57600080fd5b8063e3b37f301461089e578063e58378bb146108b1578063e7a00232146108c6578063e9959149146108ed57600080fd5b8063ce7c6410116100f4578063ce7c64101461083e578063cf4186ec14610858578063d547741f14610878578063dab5f3401461088b57600080fd5b8063c09d6fb9146107da578063c313607414610801578063c6b3665c14610814578063cdc5598e1461082957600080fd5b8063a236498e1161019d578063adaa039c1161016c578063adaa039c146107ac578063b3679bda146107b5578063b3cd4254146107be578063bb8e3f44146107c757600080fd5b8063a236498e14610722578063a4f276c714610735578063a558b65c1461077f578063a95c4d621461079957600080fd5b806391d14854116101d957806391d14854146106f25780639ac8d38b14610705578063a0918c4f14610712578063a217fddf1461071a57600080fd5b80637b1a0838146106b257806384b0196e146106bb57806385f8f4be146106d65780638a39face146106df57600080fd5b80633baa6fca116102fa5780635671e8c91161028d5780636e44a6c91161025c5780636e44a6c9146106795780636e516bbe1461068157806377292d5b146106945780637837734f1461069d57600080fd5b80635671e8c9146106355780635c975abb146106485780636db6e031146106535780636e3b466d1461066657600080fd5b806344c63eec116102c957806344c63eec146105b45780634f93d1ad146105df57806350a729281461060257806354fd4d501461061557600080fd5b80633baa6fca146105685780633bc270db1461057b5780633d3e37631461058e5780633d4527b7146105a157600080fd5b8063226d232a1161037257806330bba6c41161034157806330bba6c41461052f57806334fa224b146105385780633644e5151461054d57806336568abe1461055557600080fd5b8063226d232a146104d3578063248a9ca3146104e65780632f2ff15d146105095780632f54bf6e1461051c57600080fd5b8063086425bc116103ae578063086425bc146104705780631acbc823146104855780632013b4c41461048e5780632186b368146104c057600080fd5b806301ffc9a7146103e057806302bb34c814610408578063068350b91461041f57806306fdde0314610440575b600080fd5b6103f36103ee36600461521e565b610972565b60405190151581526020015b60405180910390f35b61041160105481565b6040519081526020016103ff565b60085461042d9061ffff1681565b60405161ffff90911681526020016103ff565b61046360405180604001604052806004815260200163141bdbdb60e21b81525081565b6040516103ff9190615298565b61048361047e3660046152ef565b6109a9565b005b610411600f5481565b600a546104a890600160c01b90046001600160401b031681565b6040516001600160401b0390911681526020016103ff565b6104836104ce366004615354565b610a2c565b6104836104e1366004615354565b610dc0565b6104116104f4366004615371565b60009081526078602052604090206001015490565b61048361051736600461538a565b611285565b6103f361052a366004615354565b6112af565b61041160075481565b60085461042d90600160381b900461ffff1681565b6104116112c9565b61048361056336600461538a565b6112d8565b600a546104a8906001600160401b031681565b6104836105893660046153ba565b61135b565b61048361059c366004615453565b6116e1565b6104836105af36600461548f565b611ac2565b6013546105c7906001600160a01b031681565b6040516001600160a01b0390911681526020016103ff565b6003546004546105ed919082565b604080519283526020830191909152016103ff565b6001546105c7906001600160a01b031681565b610463604051806040016040528060018152602001603160f81b81525081565b61048361064336600461548f565b611d7c565b60aa5460ff166103f3565b6104836106613660046154ac565b611ea5565b6008546103f39062010000900460ff1681565b6104116126bb565b61048361068f366004615354565b6126fd565b610411600d5481565b60085461042d906301000000900461ffff1681565b610411600e5481565b6106c3612917565b6040516103ff9796959493929190615500565b61041160065481565b6104116106ed366004615371565b6129b7565b6103f361070036600461538a565b6129df565b600c546103f39060ff1681565b6103f3612a0a565b610411600081565b610411610730366004615371565b612b2f565b610764610743366004615354565b60116020526000908152604090208054600182015460029092015490919083565b604080519384526020840192909252908201526060016103ff565b600a546104a890600160801b90046001600160401b031681565b6002546105c7906001600160a01b031681565b610411600b5481565b61041160095481565b61042d61271081565b6104836107d5366004615354565b612bae565b6104117fed4b80c86c7954bdbf516c492acb4a2899eb0ee85b7c74e26d85e55a07562c9581565b61048361080f366004615354565b612c46565b60085461042d90600160281b900461ffff1681565b60085461042d90600160481b900461ffff1681565b600a546104a890600160401b90046001600160401b031681565b610411610866366004615354565b60126020526000908152604090205481565b61048361088636600461538a565b612ff1565b610483610899366004615371565b613016565b6104836108ac366004615599565b6130e8565b610411600080516020615c5e83398151915281565b6104117f52d52760e40624a39bea36339850f64206470d82f714f11095b454fbff6de95281565b6104117f13e31188d81b941f4c541528790db4031bef078b78d364bde6fc2d4e5ad79e0181565b61041160005481565b61048361092b3660046155b6565b6134bb565b61041160055481565b610483610947366004615354565b613554565b60135461096090600160a01b900460ff1681565b60405160ff90911681526020016103ff565b60006001600160e01b03198216637965db0b60e01b14806109a357506301ffc9a760e01b6001600160e01b03198316145b92915050565b6109b1613842565b6109b961388a565b6109c16138e3565b6109de57604051630bab667960e31b815260040160405180910390fd5b6109e9338383613915565b6109f2826139bd565b600854610a139085908590859085906301000000900461ffff166000613a50565b610a1c82613b0a565b610a26600160dc55565b50505050565b6001546001600160a01b0316632f54bf6e336040516001600160e01b031960e084901b1681526001600160a01b039091166004820152602401602060405180830381865afa158015610a82573d6000803e3d6000fd5b505050506040513d601f19601f82011682018060405250810190610aa69190615617565b610ac35760405163036c8cf960e11b815260040160405180910390fd5b610acb613842565b601360009054906101000a90046001600160a01b03166001600160a01b0316637c6543036040518163ffffffff1660e01b8152600401602060405180830381865afa158015610b1e573d6000803e3d6000fd5b505050506040513d601f19601f82011682018060405250810190610b429190615617565b610b5f57604051636af784dd60e11b815260040160405180910390fd5b610b6761388a565b6013546040805162dc25a360e81b815290516000926001600160a01b03169163dc25a3009160048083019260a09291908290030181865afa158015610bb0573d6000803e3d6000fd5b505050506040513d601f19601f82011682018060405250810190610bd4919061564b565b505050509050806001600160401b0316600160009054906101000a90046001600160a01b03166001600160a01b031663bc87783f6040518163ffffffff1660e01b8152600401602060405180830381865afa158015610c37573d6000803e3d6000fd5b505050506040513d601f19601f82011682018060405250810190610c5b91906156b2565b610c6591906156e1565b421015610c8557604051637886cea160e01b815260040160405180910390fd5b601360009054906101000a90046001600160a01b03166001600160a01b0316639aa74a8c6040518163ffffffff1660e01b8152600401602060405180830381865afa158015610cd8573d6000803e3d6000fd5b505050506040513d601f19601f82011682018060405250810190610cfc9190615617565b15610d1a5760405163d66e246160e01b815260040160405180910390fd5b600c5460ff161515600103610d425760405163dbf0a95d60e01b815260040160405180910390fd5b600b54600254610d5f916001600160a01b03909116908490613b51565b600c805460ff19166001179055600b54604080516001600160a01b038516815260208101929092527f271b8a9c81b4d02d8aca6c2a2e341a4e3e125356c586780413e857a0fadd766a910160405180910390a150610dbd600160dc55565b50565b610dc9336112af565b610de657604051632e6c18c960e11b815260040160405180910390fd5b610dee613842565b601360009054906101000a90046001600160a01b03166001600160a01b0316637c6543036040518163ffffffff1660e01b8152600401602060405180830381865afa158015610e41573d6000803e3d6000fd5b505050506040513d601f19601f82011682018060405250810190610e659190615617565b610e8257604051636af784dd60e11b815260040160405180910390fd5b610e8a61388a565b6013546040805162dc25a360e81b815290516000926001600160a01b03169163dc25a3009160048083019260a09291908290030181865afa158015610ed3573d6000803e3d6000fd5b505050506040513d601f19601f82011682018060405250810190610ef7919061564b565b505050509050806001600160401b0316600160009054906101000a90046001600160a01b03166001600160a01b031663bc87783f6040518163ffffffff1660e01b8152600401602060405180830381865afa158015610f5a573d6000803e3d6000fd5b505050506040513d601f19601f82011682018060405250810190610f7e91906156b2565b610f8891906156e1565b421015610fa857604051637886cea160e01b815260040160405180910390fd5b601360009054906101000a90046001600160a01b03166001600160a01b0316639aa74a8c6040518163ffffffff1660e01b8152600401602060405180830381865afa158015610ffb573d6000803e3d6000fd5b505050506040513d601f19601f8201168201806040525081019061101f9190615617565b1561103d5760405163d66e246160e01b815260040160405180910390fd5b601360009054906101000a90046001600160a01b03166001600160a01b03166374478bb36040518163ffffffff1660e01b8152600401602060405180830381865afa158015611090573d6000803e3d6000fd5b505050506040513d601f19601f820116820180604052508101906110b49190615617565b6110d157604051639cbf808960e01b815260040160405180910390fd5b60006110db6126bb565b9050600081116110fe576040516316087e8160e11b815260040160405180910390fd5b80601054036111205760405163c23ca7e360e01b815260040160405180910390fd5b6002546040516370a0823160e01b81523060048201526001600160a01b03909116906370a0823190602401602060405180830381865afa158015611168573d6000803e3d6000fd5b505050506040513d601f19601f8201168201806040525081019061118c91906156b2565b811115611204576002546040516370a0823160e01b81523060048201526001600160a01b03909116906370a0823190602401602060405180830381865afa1580156111db573d6000803e3d6000fd5b505050506040513d601f19601f820116820180604052508101906111ff91906156b2565b611206565b805b9050806010600082825461121a91906156e1565b9091555050600254611236906001600160a01b03168483613b51565b604080516001600160a01b0385168152602081018390527f0f8819b8888ebff61f219df3a7380d5329e5c298966c09de72e7a1449149b47491015b60405180910390a15050610dbd600160dc55565b6000828152607860205260409020600101546112a081613bb4565b6112aa8383613bbe565b505050565b60006109a3600080516020615c5e833981519152836129df565b60006112d3613c44565b905090565b6001600160a01b038116331461134d5760405162461bcd60e51b815260206004820152602f60248201527f416363657373436f6e74726f6c3a2063616e206f6e6c792072656e6f756e636560448201526e103937b632b9903337b91039b2b63360891b60648201526084015b60405180910390fd5b6113578282613c4e565b5050565b611364336112af565b61138157604051632e6c18c960e11b815260040160405180910390fd5b611389613842565b61139161388a565b6013546040805162dc25a360e81b815290516000926001600160a01b03169163dc25a3009160048083019260a09291908290030181865afa1580156113da573d6000803e3d6000fd5b505050506040513d601f19601f820116820180604052508101906113fe919061564b565b505050509050806001600160401b0316421061142d57604051630487bd8960e11b815260040160405180910390fd5b601360009054906101000a90046001600160a01b03166001600160a01b0316637c6543036040518163ffffffff1660e01b8152600401602060405180830381865afa158015611480573d6000803e3d6000fd5b505050506040513d601f19601f820116820180604052508101906114a49190615617565b156114c25760405163221ede4760e01b815260040160405180910390fd5b60135460408051630edaf7f360e11b815290516000926001600160a01b031691631db5efe69160048083019260209291908290030181865afa15801561150c573d6000803e3d6000fd5b505050506040513d601f19601f8201168201806040525081019061153091906156f4565b9050600061153f6009546129b7565b90506001600160a01b03821661161557600a54600160c01b90046001600160401b0316421161158157604051634025f6b360e11b815260040160405180910390fd5b61158c868686613cb5565b6115a957604051632057875960e21b815260040160405180910390fd5b601354604051620c8f6d60e81b81526001600160a01b03888116600483015290911690630c8f6d0090602401600060405180830381600087803b1580156115ef57600080fd5b505af1158015611603573d6000803e3d6000fd5b50505050611612600f546129b7565b90505b61162c86336013546001600160a01b031684613f22565b6013546040516301f76b3560e11b815260048101839052600160248201526001600160a01b03909116906303eed66a90604401600060405180830381600087803b15801561167957600080fd5b505af115801561168d573d6000803e3d6000fd5b5050604080516001600160a01b038a168152602081018590527ffd1c6e1b2189d312d7360ee69c2e59b038f3f1e637e102efc2c3a833b617958e935001905060405180910390a15050506112aa600160dc55565b6001546001600160a01b0316632f54bf6e336040516001600160e01b031960e084901b1681526001600160a01b039091166004820152602401602060405180830381865afa158015611737573d6000803e3d6000fd5b505050506040513d601f19601f8201168201806040525081019061175b9190615617565b6117785760405163036c8cf960e11b815260040160405180910390fd5b6013546040805162dc25a360e81b815290516000926001600160a01b03169163dc25a3009160048083019260a09291908290030181865afa1580156117c1573d6000803e3d6000fd5b505050506040513d601f19601f820116820180604052508101906117e5919061564b565b505050509050806001600160401b0316421061181457604051630487bd8960e11b815260040160405180910390fd5b601360009054906101000a90046001600160a01b03166001600160a01b031663164e2c2a6040518163ffffffff1660e01b8152600401602060405180830381865afa158015611867573d6000803e3d6000fd5b505050506040513d601f19601f8201168201806040525081019061188b9190615617565b80156119095750601360009054906101000a90046001600160a01b03166001600160a01b0316637c6543036040518163ffffffff1660e01b8152600401602060405180830381865afa1580156118e5573d6000803e3d6000fd5b505050506040513d601f19601f820116820180604052508101906119099190615617565b156119275760405163beffa56560e01b815260040160405180910390fd5b6013546040805162dc25a360e81b815290516000926001600160a01b03169163dc25a3009160048083019260a09291908290030181865afa158015611970573d6000803e3d6000fd5b505050506040513d601f19601f82011682018060405250810190611994919061564b565b5050600a5492935050506001600160401b0380861691161015806119ca5750826001600160401b0316846001600160401b031610155b806119e65750806001600160401b0316836001600160401b0316115b15611a04576040516337bf561360e11b815260040160405180910390fd5b600a8054600160401b600160c01b031916600160401b6001600160401b0387811682810267ffffffffffffffff60801b191693909317600160801b938402176001600160c01b038116600160c01b8984168102918217968790556040805193851692851692909217835293860483166020830152938504821693810193909352920490911660608201527feedf049ba2a9e400be9e2a2d93b7e6023411a5c4fd77fe703bc75c2fea691fc3906080015b60405180910390a150505050565b6001546001600160a01b0316632f54bf6e336040516001600160e01b031960e084901b1681526001600160a01b039091166004820152602401602060405180830381865afa158015611b18573d6000803e3d6000fd5b505050506040513d601f19601f82011682018060405250810190611b3c9190615617565b611b595760405163036c8cf960e11b815260040160405180910390fd5b6013546040805162dc25a360e81b815290516000926001600160a01b03169163dc25a3009160048083019260a09291908290030181865afa158015611ba2573d6000803e3d6000fd5b505050506040513d601f19601f82011682018060405250810190611bc6919061564b565b505050509050806001600160401b03164210611cdb576001546040805163bc87783f60e01b815290516001600160401b038416926001600160a01b03169163bc87783f9160048083019260209291908290030181865afa158015611c2e573d6000803e3d6000fd5b505050506040513d601f19601f82011682018060405250810190611c5291906156b2565b611c5c91906156e1565b421115611c7c576040516306e0252760e51b815260040160405180910390fd5b6013546040516358e0fb5560e01b8152600160048201526001600160a01b03909116906358e0fb5590602401600060405180830381600087803b158015611cc257600080fd5b505af1158015611cd6573d6000803e3d6000fd5b505050505b611ce3613f37565b601354604051635671e8c960e01b8152600060048201526001600160a01b0390911690635671e8c990602401600060405180830381600087803b158015611d2957600080fd5b505af1158015611d3d573d6000803e3d6000fd5b505060405184151581523092507fcf113a21b92df7813071b3bb491583c8469cf02f9b1c0280d4500d339570a17f915060200160405180910390a25050565b6001546001600160a01b0316632f54bf6e336040516001600160e01b031960e084901b1681526001600160a01b039091166004820152602401602060405180830381865afa158015611dd2573d6000803e3d6000fd5b505050506040513d601f19601f82011682018060405250810190611df69190615617565b611e135760405163036c8cf960e11b815260040160405180910390fd5b801515600103611e4357611e25612a0a565b15611e435760405163098bb09f60e41b815260040160405180910390fd5b601354604051635671e8c960e01b815282151560048201526001600160a01b0390911690635671e8c990602401600060405180830381600087803b158015611e8a57600080fd5b505af1158015611e9e573d6000803e3d6000fd5b5050505050565b601354600160b81b900460ff1615808015611ecd57506013546001600160b01b90910460ff16105b80611eee5750303b158015611eee5750601354600160b01b900460ff166001145b611f515760405162461bcd60e51b815260206004820152602e60248201527f496e697469616c697a61626c653a20636f6e747261637420697320616c72656160448201526d191e481a5b9a5d1a585b1a5e995960921b6064820152608401611344565b6013805460ff60b01b1916600160b01b1790558015611f7e576013805460ff60b81b1916600160b81b1790555b604051635c1c862160e01b81526001600160a01b038316600482015273__$ad759d264299add65d0b3e8b0deb20d304$__90635c1c86219060240160006040518083038186803b158015611fd157600080fd5b505af4158015611fe5573d6000803e3d6000fd5b5050505061202860405180604001604052806004815260200163141bdbdb60e21b815250604051806040016040528060018152602001603160f81b815250613f91565b61203182612bae565b60405163b95f0a6360e01b815273__$ad759d264299add65d0b3e8b0deb20d304$__9063b95f0a639061206a9087908790600401615711565b60006040518083038186803b15801561208257600080fd5b505af4158015612096573d6000803e3d6000fd5b505050506120a13390565b600180546001600160a01b0319166001600160a01b03929092169190911790556120f46120d16020860186615354565b6101a08501356101c08601356101e0870135610200880135610220890135613fc4565b73__$ad759d264299add65d0b3e8b0deb20d304$__635c1c862161211e6040870160208801615354565b6040516001600160e01b031960e084901b1681526001600160a01b03909116600482015260240160006040518083038186803b15801561215d57600080fd5b505af4158015612171573d6000803e3d6000fd5b505050508360016002811061218857612188615760565b60200201602081019061219b9190615354565b600280546001600160a01b0319166001600160a01b03929092169190911790558235600681905560208401356007819055106121ea57604051636f54786760e11b815260040160405180910390fd5b6121fb8360025b60200201356140d7565b6008805461ffff191661ffff9290921691909117905561221c8360036121f1565b6008805461ffff9290921663010000000264ffff000000199092169190911790556122488360046121f1565b600860056101000a81548161ffff021916908361ffff160217905550600160009054906101000a90046001600160a01b03166001600160a01b031663d8c128226040518163ffffffff1660e01b8152600401602060405180830381865afa1580156122b7573d6000803e3d6000fd5b505050506040513d601f19601f820116820180604052508101906122db9190615776565b60085461ffff918216630100000090910490911610806123835750600160009054906101000a90046001600160a01b03166001600160a01b031663884c45096040518163ffffffff1660e01b8152600401602060405180830381865afa158015612349573d6000803e3d6000fd5b505050506040513d601f19601f8201168201806040525081019061236d9190615776565b60085461ffff9182166301000000909104909116115b156123a1576040516310a9cc4160e11b815260040160405180910390fd5b600160009054906101000a90046001600160a01b03166001600160a01b031663397a1cb36040518163ffffffff1660e01b8152600401602060405180830381865afa1580156123f4573d6000803e3d6000fd5b505050506040513d601f19601f820116820180604052508101906124189190615776565b60085461ffff918216600160281b90910490911610806124c05750600160009054906101000a90046001600160a01b03166001600160a01b031663d6de71fd6040518163ffffffff1660e01b8152600401602060405180830381865afa158015612486573d6000803e3d6000fd5b505050506040513d601f19601f820116820180604052508101906124aa9190615776565b60085461ffff918216600160281b909104909116115b156124de57604051631afca5c960e31b815260040160405180910390fd5b6124e98360056121f1565b6008805461ffff92909216600160381b0268ffff00000000000000199092169190911790556125198360066121f1565b600880546affff0000000000000000001916600160481b61ffff9384168102919091179182905560e086013560095561271092839291820481169161256791600160381b9091041683615791565b61ffff1660095461257891906157b3565b61258291906157b3565b61258c91906157ca565b61259691906157ca565b6005556125a761010084013561413e565b600a805467ffffffffffffffff19166001600160401b03929092169190911790556125e46125df6101208501356101008601356156e1565b61413e565b600a8054600160401b600160c01b031916600160401b6001600160401b0393841690810267ffffffffffffffff60801b191691909117600160801b918202179182905561263e926125df92610140880135929004166156e1565b600a80546001600160401b0392909216600160c01b026001600160c01b039092169190911790556101608301356003556101808301356004558015610a26576013805460ff60b81b19169055604051600181527f7f26b83ff96e1f2b6a682f133852f6798a09c465da95921460cefb384740249890602001611ab4565b600854600f546000918291612710916126da9161ffff909116906157b3565b6126e491906157ca565b9050600081600f546126f691906157ec565b9392505050565b61270561388a565b61270d612a0a565b15801561278e5750601360009054906101000a90046001600160a01b03166001600160a01b0316639aa74a8c6040518163ffffffff1660e01b8152600401602060405180830381865afa158015612768573d6000803e3d6000fd5b505050506040513d601f19601f8201168201806040525081019061278c9190615617565b155b156127ac57604051638d39ebd960e01b815260040160405180910390fd5b3360009081526011602052604090206002810154156127de57604051638d39ebd960e01b815260040160405180910390fd5b60135460408051635efb0c5d60e11b815233600482015281516000936001600160a01b03169263bdf618ba92602480820193918290030181865afa15801561282a573d6000803e3d6000fd5b505050506040513d601f19601f8201168201806040525081019061284e91906157ff565b915050600061285c82612b2f565b835460018501549192509060008361287483856156e1565b61287e91906157ec565b9050806000036128a157604051631a30ee4d60e11b815260040160405180910390fd5b6002546128b8906001600160a01b03168883613b51565b60028601819055604080513381526001600160a01b038916602082015280820183905290517f06ef36b707e3dba03834e3b12d116525831e552283719e0bb25d309006322a619181900360600190a1505050505050610dbd600160dc55565b60006060806000806000606061010e546000801b148015612939575061010f54155b61297d5760405162461bcd60e51b81526020600482015260156024820152741152540dcc4c8e88155b9a5b9a5d1a585b1a5e9959605a1b6044820152606401611344565b6129856141a6565b61298d614239565b60408051600080825260208201909252600f60f81b9b939a50919850469750309650945092509050565b6004546000906129c890600a61591d565b6003546129d590846157b3565b6109a391906157ca565b60009182526078602090815260408084206001600160a01b0393909316845291905290205460ff1690565b600080601360009054906101000a90046001600160a01b03166001600160a01b031663dc25a3006040518163ffffffff1660e01b815260040160a060405180830381865afa158015612a60573d6000803e3d6000fd5b505050506040513d601f19601f82011682018060405250810190612a84919061564b565b505050509050612a9660aa5460ff1690565b80612b295750601360009054906101000a90046001600160a01b03166001600160a01b0316637c6543036040518163ffffffff1660e01b8152600401602060405180830381865afa158015612aef573d6000803e3d6000fd5b505050506040513d601f19601f82011682018060405250810190612b139190615617565b158015612b295750806001600160401b03164210155b91505090565b600354600090612b935760405162461bcd60e51b815260206004820152602960248201527f436f6e76657273696f6e2072617465206d7573742062652067726561746572206044820152687468616e207a65726f60b81b6064820152608401611344565b600354600454612ba490600a61591d565b6129d590846157b3565b601354600160b81b900460ff16612bd75760405162461bcd60e51b815260040161134490615929565b6001600160a01b038116612bfe57604051633bf95ba760e01b815260040160405180910390fd5b612c06614249565b612c0e614272565b612c166142a3565b612c2e600080516020615c5e83398151915282613bbe565b610dbd600080516020615c5e833981519152806142d4565b6001546001600160a01b0316632f54bf6e336040516001600160e01b031960e084901b1681526001600160a01b039091166004820152602401602060405180830381865afa158015612c9c573d6000803e3d6000fd5b505050506040513d601f19601f82011682018060405250810190612cc09190615617565b612cdd5760405163036c8cf960e11b815260040160405180910390fd5b612ce5613842565b601360009054906101000a90046001600160a01b03166001600160a01b0316637c6543036040518163ffffffff1660e01b8152600401602060405180830381865afa158015612d38573d6000803e3d6000fd5b505050506040513d601f19601f82011682018060405250810190612d5c9190615617565b612d7957604051636af784dd60e11b815260040160405180910390fd5b612d8161388a565b6013546040805162dc25a360e81b815290516000926001600160a01b03169163dc25a3009160048083019260a09291908290030181865afa158015612dca573d6000803e3d6000fd5b505050506040513d601f19601f82011682018060405250810190612dee919061564b565b505050509050806001600160401b0316600160009054906101000a90046001600160a01b03166001600160a01b031663bc87783f6040518163ffffffff1660e01b8152600401602060405180830381865afa158015612e51573d6000803e3d6000fd5b505050506040513d601f19601f82011682018060405250810190612e7591906156b2565b612e7f91906156e1565b421015612e9f57604051637886cea160e01b815260040160405180910390fd5b601360009054906101000a90046001600160a01b03166001600160a01b0316639aa74a8c6040518163ffffffff1660e01b8152600401602060405180830381865afa158015612ef2573d6000803e3d6000fd5b505050506040513d601f19601f82011682018060405250810190612f169190615617565b15612f345760405163d66e246160e01b815260040160405180910390fd5b60085462010000900460ff161515600103612f6257604051635dcab31160e01b815260040160405180910390fd5b600854600f5460009161271091612f7d9161ffff16906157b3565b612f8791906157ca565b600254909150612fa1906001600160a01b03168483613b51565b6008805462ff0000191662010000179055604080516001600160a01b0385168152602081018390527fcb4040dca59670b070ce40b47eb84aff39fa7db8cd83ad903380534add01dffa9101611271565b60008281526078602052604090206001015461300c81613bb4565b6112aa8383613c4e565b6001546001600160a01b0316632f54bf6e336040516001600160e01b031960e084901b1681526001600160a01b039091166004820152602401602060405180830381865afa15801561306c573d6000803e3d6000fd5b505050506040513d601f19601f820116820180604052508101906130909190615617565b6130ad5760405163036c8cf960e11b815260040160405180910390fd5b60008190556040518181527fc8d52687b85ab11e6859cb0b390a9e926e1b348d9796e084f88f88420c176fc69060200160405180910390a150565b6001546001600160a01b0316632f54bf6e336040516001600160e01b031960e084901b1681526001600160a01b039091166004820152602401602060405180830381865afa15801561313e573d6000803e3d6000fd5b505050506040513d601f19601f820116820180604052508101906131629190615617565b61317f5760405163036c8cf960e11b815260040160405180910390fd5b6013546040805162dc25a360e81b815290516000926001600160a01b03169163dc25a3009160048083019260a09291908290030181865afa1580156131c8573d6000803e3d6000fd5b505050506040513d601f19601f820116820180604052508101906131ec919061564b565b505050509050806001600160401b0316421061321b57604051630487bd8960e11b815260040160405180910390fd5b600a546001600160401b03808416600160c01b909204161115613251576040516337bf561360e11b815260040160405180910390fd5b600160009054906101000a90046001600160a01b03166001600160a01b03166370e4a6336040518163ffffffff1660e01b8152600401602060405180830381865afa1580156132a4573d6000803e3d6000fd5b505050506040513d601f19601f820116820180604052508101906132c891906156b2565b601354600160a01b900460ff16106132f35760405163dc37e81b60e01b815260040160405180910390fd5b600160009054906101000a90046001600160a01b03166001600160a01b03166362c1adc26040518163ffffffff1660e01b8152600401602060405180830381865afa158015613346573d6000803e3d6000fd5b505050506040513d601f19601f8201168201806040525081019061336a91906156b2565b601360009054906101000a90046001600160a01b03166001600160a01b031663e37bcc206040518163ffffffff1660e01b8152600401602060405180830381865afa1580156133bd573d6000803e3d6000fd5b505050506040513d601f19601f820116820180604052508101906133e19190615974565b6001600160401b03166133f491906156e1565b826001600160401b0316111561341d57604051630181c67960e41b815260040160405180910390fd5b601354604051630e3b37f360e41b81526001600160401b03841660048201526001600160a01b039091169063e3b37f3090602401600060405180830381600087803b15801561346b57600080fd5b505af115801561347f573d6000803e3d6000fd5b505060138054600160a01b900460ff1692509050601461349e83615991565b91906101000a81548160ff021916908360ff160217905550505050565b6134c3613842565b6134cb61388a565b6134d4816139bd565b6134dc6138e3565b1561351a576134ea8161431f565b60085461350c90849084908490600090600160281b900461ffff166001613a50565b613515816143b2565b61354a565b6135226143c4565b61353f57604051630bab667960e31b815260040160405180910390fd5b61354a8383836143fd565b6112aa600160dc55565b61355d336112af565b61357a57604051632e6c18c960e11b815260040160405180910390fd5b601354600160a81b900460ff16156135a557604051636beab46760e01b815260040160405180910390fd5b6013805460ff60a81b1916600160a81b17905560006135c2612a0a565b156136ab5760135460408051630edaf7f360e11b815290516000926001600160a01b031691631db5efe69160048083019260209291908290030181865afa158015613611573d6000803e3d6000fd5b505050506040513d601f19601f8201168201806040525081019061363591906156f4565b6013546040516370a0823160e01b81526001600160a01b0391821660048201529116906370a0823190602401602060405180830381865afa15801561367e573d6000803e3d6000fd5b505050506040513d601f19601f820116820180604052508101906136a291906156b2565b91506137d89050565b6013546040805162dc25a360e81b815290516000926001600160a01b03169163dc25a3009160048083019260a09291908290030181865afa1580156136f4573d6000803e3d6000fd5b505050506040513d601f19601f82011682018060405250810190613718919061564b565b505050509050806001600160401b0316421015613748576040516380e6639760e01b815260040160405180910390fd5b613753600f546129b7565b601360009054906101000a90046001600160a01b03166001600160a01b0316638488e5e66040518163ffffffff1660e01b8152600401602060405180830381865afa1580156137a6573d6000803e3d6000fd5b505050506040513d601f19601f820116820180604052508101906137ca91906156b2565b6137d491906157ec565b9150505b601354604051631773307960e21b81526001600160a01b0384811660048301526024820184905290911690635dccc1e490604401600060405180830381600087803b15801561382657600080fd5b505af115801561383a573d6000803e3d6000fd5b505050505050565b60aa5460ff16156138885760405162461bcd60e51b815260206004820152601060248201526f14185d5cd8589b194e881c185d5cd95960821b6044820152606401611344565b565b600260dc54036138dc5760405162461bcd60e51b815260206004820152601f60248201527f5265656e7472616e637947756172643a207265656e7472616e742063616c6c006044820152606401611344565b600260dc55565b600a546000906001600160401b0316421180156112d3575050600a54600160401b90046001600160401b031642111590565b604051633a4d4bcd60e11b81526004810183905273__$ad759d264299add65d0b3e8b0deb20d304$__9063749a979a9060240160006040518083038186803b15801561396057600080fd5b505af4158015613974573d6000803e3d6000fd5b5050506001600160a01b03841660009081526012602052604090205482915061399e9084906156e1565b11156112aa57604051632b37c00360e11b815260040160405180910390fd5b604051633a4d4bcd60e11b81526004810182905273__$ad759d264299add65d0b3e8b0deb20d304$__9063749a979a9060240160006040518083038186803b158015613a0857600080fd5b505af4158015613a1c573d6000803e3d6000fd5b5050505060095481600f54613a3191906156e1565b1115610dbd5760405163d68debb160e01b815260040160405180910390fd5b6000613a83336006547fed4b80c86c7954bdbf516c492acb4a2899eb0ee85b7c74e26d85e55a07562c9590878b8b6144c7565b90508015613a9f57613a99338685600186614563565b5061383a565b6000613ad2336007547fed4b80c86c7954bdbf516c492acb4a2899eb0ee85b7c74e26d85e55a07562c9590888c8c6144c7565b905080613af257604051637c7efb5360e11b815260040160405180910390fd5b613b00338786600087614563565b5050505050505050565b3360009081526012602052604081208054839290613b299084906156e1565b9250508190555080600d6000828254613b4291906156e1565b909155505050565b600160dc55565b6040516001600160a01b0383166024820152604481018290526112aa90849063a9059cbb60e01b906064015b60408051601f198184030181529190526020810180516001600160e01b03166001600160e01b031990931692909217909152614770565b610dbd8133614845565b613bc882826129df565b6113575760008281526078602090815260408083206001600160a01b03851684529091529020805460ff19166001179055613c003390565b6001600160a01b0316816001600160a01b0316837f2f8788117e7eff1d82e926ec794901d17c78024a50270940304540a733656f0d60405160405180910390a45050565b60006112d361489e565b613c5882826129df565b156113575760008281526078602090815260408083206001600160a01b0385168085529252808320805460ff1916905551339285917ff6391f5c32d9c69d2a47ea670b442974b53935d1edc7fd64eb21e047a839171b9190a45050565b600080846001600160a01b03166395d89b416040518163ffffffff1660e01b8152600401600060405180830381865afa158015613cf6573d6000803e3d6000fd5b505050506040513d6000823e601f3d908101601f19168201604052613d1e91908101906159b0565b604051602001613d2e9190615a51565b6040516020818303038152906040528051906020012090506000856001600160a01b031663313ce5676040518163ffffffff1660e01b8152600401602060405180830381865afa158015613d86573d6000803e3d6000fd5b505050506040513d601f19601f82011682018060405250810190613daa9190615a6d565b90506000613db66112c9565b604080517f52d52760e40624a39bea36339850f64206470d82f714f11095b454fbff6de95260208201526001600160a01b038a16918101919091523060608201526080810185905260ff841660a082015260c00160405160208183030381529060405280519060200120604051602001613e4792919061190160f01b81526002810192909252602282015260420190565b60408051601f198184030181528282528051602091820120600154601f8a0183900483028501830190935288845293506001600160a01b0390911691632f54bf6e91613eaf9185918b908b908190840183828082843760009201919091525061491292505050565b6040516001600160e01b031960e084901b1681526001600160a01b039091166004820152602401602060405180830381865afa158015613ef3573d6000803e3d6000fd5b505050506040513d601f19601f82011682018060405250810190613f179190615617565b979650505050505050565b610a266001600160a01b038516848484614936565b613f3f613842565b60aa805460ff191660011790557f62e78cea01bee320cd4e420270b5ea74000d11b0c9f74754ebdbfc544b05a258613f743390565b6040516001600160a01b03909116815260200160405180910390a1565b601354600160b81b900460ff16613fba5760405162461bcd60e51b815260040161134490615929565b611357828261496e565b6001546040805163cc6f033360e01b815290516000926001600160a01b03169163cc6f0333916004808301926020929190829003018187875af115801561400f573d6000803e3d6000fd5b505050506040513d601f19601f8201168201806040525081019061403391906156f4565b601380546001600160a01b0319166001600160a01b038381169182179092556040516376dfa56160e11b8152306004820152918a16602483015260448201899052606482018890526084820187905260a4820186905260c4820185905291925063edbf4ac29060e401600060405180830381600087803b1580156140b657600080fd5b505af11580156140ca573d6000803e3d6000fd5b5050505050505050505050565b600061ffff82111561413a5760405162461bcd60e51b815260206004820152602660248201527f53616665436173743a2076616c756520646f65736e27742066697420696e203160448201526536206269747360d01b6064820152608401611344565b5090565b60006001600160401b0382111561413a5760405162461bcd60e51b815260206004820152602660248201527f53616665436173743a2076616c756520646f65736e27742066697420696e203660448201526534206269747360d01b6064820152608401611344565b606061011080546141b690615a90565b80601f01602080910402602001604051908101604052809291908181526020018280546141e290615a90565b801561422f5780601f106142045761010080835404028352916020019161422f565b820191906000526020600020905b81548152906001019060200180831161421257829003601f168201915b5050505050905090565b606061011180546141b690615a90565b601354600160b81b900460ff166138885760405162461bcd60e51b815260040161134490615929565b601354600160b81b900460ff1661429b5760405162461bcd60e51b815260040161134490615929565b6138886149c3565b601354600160b81b900460ff166142cc5760405162461bcd60e51b815260040161134490615929565b6138886149f8565b600082815260786020526040808220600101805490849055905190918391839186917fbd79b86ffe0ab8e8776151514217cd7cacd52c909f66475c3af44e129f0b00ff9190a4505050565b604051633a4d4bcd60e11b81526004810182905273__$ad759d264299add65d0b3e8b0deb20d304$__9063749a979a9060240160006040518083038186803b15801561436a57600080fd5b505af415801561437e573d6000803e3d6000fd5b5050505060055481600e5461439391906156e1565b1115610dbd57604051633770572b60e11b815260040160405180910390fd5b80600e6000828254613b4291906156e1565b600a54600090600160801b90046001600160401b0316421180156112d3575050600a54600160c01b90046001600160401b031642111590565b60026000614433336006547f13e31188d81b941f4c541528790db4031bef078b78d364bde6fc2d4e5ad79e0190600089896144c7565b9050801561445757611e9e336008548590600160281b900461ffff16600186614563565b600061448b336007547f13e31188d81b941f4c541528790db4031bef078b78d364bde6fc2d4e5ad79e019060008a8a6144c7565b9050806144ab5760405163b7fa26c560e01b815260040160405180910390fd5b61383a336008548690600160281b900461ffff16600087614563565b6040516bffffffffffffffffffffffff19606088901b16602082015260348101869052605481018590526074810184905260009081906094016040516020818303038152906040528051906020012090506145578484808060200260200160405190810160405280939291908181526020018383602002808284376000920182905250549250859150614a219050565b98975050505050505050565b8115156001036145b8576006546001600160a01b0386166000908152601160205260409020546145949086906156e1565b11156145b357604051633198921960e11b815260040160405180910390fd5b6145fe565b6007546001600160a01b0386166000908152601160205260409020546145df9086906156e1565b11156145fe5760405163dd4a737760e01b815260040160405180910390fd5b6040516353baaca160e11b8152600481018590526024810184905260009073__$ad759d264299add65d0b3e8b0deb20d304$__9063a775594290604401602060405180830381865af4158015614658573d6000803e3d6000fd5b505050506040513d601f19601f8201168201806040525081019061467c91906156b2565b90506146913361468c83886156e1565b614a37565b61469b8682614acf565b6146a58686614ae9565b60006146b0866129b7565b60135460405163020caa2560e51b81526001600160a01b038a811660048301526024820184905292935091169063419544a090604401600060405180830381600087803b15801561470057600080fd5b505af1158015614714573d6000803e3d6000fd5b5050604080518981526020810185905260ff87168183015290513093506001600160a01b038b1692507f6666857ade20eaaed88e2671721b22c45635cc01006796336554a69f926be2f99181900360600190a350505050505050565b60006147c5826040518060400160405280602081526020017f5361666545524332303a206c6f772d6c6576656c2063616c6c206661696c6564815250856001600160a01b0316614afd9092919063ffffffff16565b90508051600014806147e65750808060200190518101906147e69190615617565b6112aa5760405162461bcd60e51b815260206004820152602a60248201527f5361666545524332303a204552433230206f7065726174696f6e20646964206e6044820152691bdd081cdd58d8d9595960b21b6064820152608401611344565b61484f82826129df565b6113575761485c81614b14565b614867836020614b26565b604051602001614878929190615aca565b60408051601f198184030181529082905262461bcd60e51b825261134491600401615298565b60007f8b73c3c69bb8fe3d512ecc4cf759cc79239f7b179b0ffacaa9a75d522b39400f6148c9614cc1565b6148d1614d1b565b60408051602081019490945283019190915260608201524660808201523060a082015260c00160405160208183030381529060405280519060200120905090565b60008060006149218585614d4d565b9150915061492e81614d92565b509392505050565b6040516001600160a01b0380851660248301528316604482015260648101829052610a269085906323b872dd60e01b90608401613b7d565b601354600160b81b900460ff166149975760405162461bcd60e51b815260040161134490615929565b6101106149a48382615b87565b506101116149b28282615b87565b5050600061010e81905561010f5550565b601354600160b81b900460ff166149ec5760405162461bcd60e51b815260040161134490615929565b60aa805460ff19169055565b601354600160b81b900460ff16613b4a5760405162461bcd60e51b815260040161134490615929565b600082614a2e8584614edc565b14949350505050565b600254604051636eb1769f60e11b81526001600160a01b038481166004830152306024830152600092169063dd62ed3e90604401602060405180830381865afa158015614a88573d6000803e3d6000fd5b505050506040513d601f19601f82011682018060405250810190614aac91906156b2565b9050818110156112aa57604051634fd3af0760e01b815260040160405180910390fd5b801561135757614adf8282614f17565b6113578282614f2f565b614af38282614f17565b6113578282614f7c565b6060614b0c8484600085614fbd565b949350505050565b60606109a36001600160a01b03831660145b60606000614b358360026157b3565b614b409060026156e1565b6001600160401b03811115614b5757614b57615823565b6040519080825280601f01601f191660200182016040528015614b81576020820181803683370190505b509050600360fc1b81600081518110614b9c57614b9c615760565b60200101906001600160f81b031916908160001a905350600f60fb1b81600181518110614bcb57614bcb615760565b60200101906001600160f81b031916908160001a9053506000614bef8460026157b3565b614bfa9060016156e1565b90505b6001811115614c72576f181899199a1a9b1b9c1cb0b131b232b360811b85600f1660108110614c2e57614c2e615760565b1a60f81b828281518110614c4457614c44615760565b60200101906001600160f81b031916908160001a90535060049490941c93614c6b81615c46565b9050614bfd565b5083156126f65760405162461bcd60e51b815260206004820181905260248201527f537472696e67733a20686578206c656e67746820696e73756666696369656e746044820152606401611344565b600080614ccc6141a6565b805190915015614ce3578051602090910120919050565b61010e548015614cf35792915050565b7fc5d2460186f7233c927e7db2dcc703c0e500b653ca82273b7bfad8045d85a4709250505090565b600080614d26614239565b805190915015614d3d578051602090910120919050565b61010f548015614cf35792915050565b6000808251604103614d835760208301516040840151606085015160001a614d778782858561508d565b94509450505050614d8b565b506000905060025b9250929050565b6000816004811115614da657614da6615601565b03614dae5750565b6001816004811115614dc257614dc2615601565b03614e0f5760405162461bcd60e51b815260206004820152601860248201527f45434453413a20696e76616c6964207369676e617475726500000000000000006044820152606401611344565b6002816004811115614e2357614e23615601565b03614e705760405162461bcd60e51b815260206004820152601f60248201527f45434453413a20696e76616c6964207369676e6174757265206c656e677468006044820152606401611344565b6003816004811115614e8457614e84615601565b03610dbd5760405162461bcd60e51b815260206004820152602260248201527f45434453413a20696e76616c6964207369676e6174757265202773272076616c604482015261756560f01b6064820152608401611344565b600081815b845181101561492e57614f0d82868381518110614f0057614f00615760565b6020026020010151615151565b9150600101614ee1565b600254611357906001600160a01b0316833084614936565b6001600160a01b03821660009081526011602052604081206001018054839290614f5a9084906156e1565b9250508190555080600b6000828254614f7391906156e1565b90915550505050565b6001600160a01b03821660009081526011602052604081208054839290614fa49084906156e1565b9250508190555080600f6000828254614f7391906156e1565b60608247101561501e5760405162461bcd60e51b815260206004820152602660248201527f416464726573733a20696e73756666696369656e742062616c616e636520666f6044820152651c8818d85b1b60d21b6064820152608401611344565b600080866001600160a01b0316858760405161503a9190615a51565b60006040518083038185875af1925050503d8060008114615077576040519150601f19603f3d011682016040523d82523d6000602084013e61507c565b606091505b5091509150613f1787838387615180565b6000807f7fffffffffffffffffffffffffffffff5d576e7357a4501ddfe92f46681b20a08311156150c45750600090506003615148565b6040805160008082526020820180845289905260ff881692820192909252606081018690526080810185905260019060a0016020604051602081039080840390855afa158015615118573d6000803e3d6000fd5b5050604051601f1901519150506001600160a01b03811661514157600060019250925050615148565b9150600090505b94509492505050565b600081831061516d5760008281526020849052604090206126f6565b60008381526020839052604090206126f6565b606083156151ef5782516000036151e8576001600160a01b0385163b6151e85760405162461bcd60e51b815260206004820152601d60248201527f416464726573733a2063616c6c20746f206e6f6e2d636f6e74726163740000006044820152606401611344565b5081614b0c565b614b0c83838151156152045781518083602001fd5b8060405162461bcd60e51b81526004016113449190615298565b60006020828403121561523057600080fd5b81356001600160e01b0319811681146126f657600080fd5b60005b8381101561526357818101518382015260200161524b565b50506000910152565b60008151808452615284816020860160208601615248565b601f01601f19169290920160200192915050565b6020815260006126f6602083018461526c565b60008083601f8401126152bd57600080fd5b5081356001600160401b038111156152d457600080fd5b6020830191508360208260051b8501011115614d8b57600080fd5b6000806000806060858703121561530557600080fd5b84356001600160401b0381111561531b57600080fd5b615327878288016152ab565b90989097506020870135966040013595509350505050565b6001600160a01b0381168114610dbd57600080fd5b60006020828403121561536657600080fd5b81356126f68161533f565b60006020828403121561538357600080fd5b5035919050565b6000806040838503121561539d57600080fd5b8235915060208301356153af8161533f565b809150509250929050565b6000806000604084860312156153cf57600080fd5b83356153da8161533f565b925060208401356001600160401b03808211156153f657600080fd5b818601915086601f83011261540a57600080fd5b81358181111561541957600080fd5b87602082850101111561542b57600080fd5b6020830194508093505050509250925092565b6001600160401b0381168114610dbd57600080fd5b6000806040838503121561546657600080fd5b82356154718161543e565b915060208301356153af8161543e565b8015158114610dbd57600080fd5b6000602082840312156154a157600080fd5b81356126f681615481565b60008060006102a084860312156154c257600080fd5b60408401858111156154d357600080fd5b8493506102808501868111156154e857600080fd5b909250356154f58161533f565b809150509250925092565b60ff60f81b881681526000602060e0602084015261552160e084018a61526c565b8381036040850152615533818a61526c565b606085018990526001600160a01b038816608086015260a0850187905284810360c08601528551808252602080880193509091019060005b818110156155875783518352928401929184019160010161556b565b50909c9b505050505050505050505050565b6000602082840312156155ab57600080fd5b81356126f68161543e565b6000806000604084860312156155cb57600080fd5b83356001600160401b038111156155e157600080fd5b6155ed868287016152ab565b909790965060209590950135949350505050565b634e487b7160e01b600052602160045260246000fd5b60006020828403121561562957600080fd5b81516126f681615481565b805161ffff8116811461564657600080fd5b919050565b600080600080600060a0868803121561566357600080fd5b855161566e8161543e565b945061567c60208701615634565b9350604086015161568c8161543e565b606087015190935061569d8161543e565b80925050608086015190509295509295909350565b6000602082840312156156c457600080fd5b5051919050565b634e487b7160e01b600052601160045260246000fd5b808201808211156109a3576109a36156cb565b60006020828403121561570657600080fd5b81516126f68161533f565b6102808101818460005b600281101561574d57813561572f8161533f565b6001600160a01b03168352602092830192919091019060010161571b565b5050506102408360408401379392505050565b634e487b7160e01b600052603260045260246000fd5b60006020828403121561578857600080fd5b6126f682615634565b61ffff8281168282160390808211156157ac576157ac6156cb565b5092915050565b80820281158282048414176109a3576109a36156cb565b6000826157e757634e487b7160e01b600052601260045260246000fd5b500490565b818103818111156109a3576109a36156cb565b6000806040838503121561581257600080fd5b505080516020909101519092909150565b634e487b7160e01b600052604160045260246000fd5b600181815b8085111561587457816000190482111561585a5761585a6156cb565b8085161561586757918102915b93841c939080029061583e565b509250929050565b60008261588b575060016109a3565b81615898575060006109a3565b81600181146158ae57600281146158b8576158d4565b60019150506109a3565b60ff8411156158c9576158c96156cb565b50506001821b6109a3565b5060208310610133831016604e8410600b84101617156158f7575081810a6109a3565b6159018383615839565b8060001904821115615915576159156156cb565b029392505050565b60006126f6838361587c565b6020808252602b908201527f496e697469616c697a61626c653a20636f6e7472616374206973206e6f74206960408201526a6e697469616c697a696e6760a81b606082015260800190565b60006020828403121561598657600080fd5b81516126f68161543e565b600060ff821660ff81036159a7576159a76156cb565b60010192915050565b6000602082840312156159c257600080fd5b81516001600160401b03808211156159d957600080fd5b818401915084601f8301126159ed57600080fd5b8151818111156159ff576159ff615823565b604051601f8201601f19908116603f01168101908382118183101715615a2757615a27615823565b81604052828152876020848701011115615a4057600080fd5b613f17836020830160208801615248565b60008251615a63818460208701615248565b9190910192915050565b600060208284031215615a7f57600080fd5b815160ff811681146126f657600080fd5b600181811c90821680615aa457607f821691505b602082108103615ac457634e487b7160e01b600052602260045260246000fd5b50919050565b7f416363657373436f6e74726f6c3a206163636f756e7420000000000000000000815260008351615b02816017850160208801615248565b7001034b99036b4b9b9b4b733903937b6329607d1b6017918401918201528351615b33816028840160208801615248565b01602801949350505050565b601f8211156112aa576000816000526020600020601f850160051c81016020861015615b685750805b601f850160051c820191505b8181101561383a57828155600101615b74565b81516001600160401b03811115615ba057615ba0615823565b615bb481615bae8454615a90565b84615b3f565b602080601f831160018114615be95760008415615bd15750858301515b600019600386901b1c1916600185901b17855561383a565b600085815260208120601f198616915b82811015615c1857888601518255948401946001909101908401615bf9565b5085821015615c365787850151600019600388901b60f8161c191681555b5050505050600190811b01905550565b600081615c5557615c556156cb565b50600019019056feb19546dff01e856fb3f010c267a7b1c60363cf8a4664e21cc89c26224620214ea26469706673582212208bb35606992e53a14d573700e4153273bb7382b9d5862c993cbe17f838ca1b0264736f6c63430008170033",
  "libraries": {
    "VestingLogic": "0x5B4f235129ac152D15aF7c5797595851194228B1",
    "PoolLogic": "0xF1Fd2C04Af1F3666f6248cd1cf80F93E3f9Ee23E"
  },
  "devdoc": {
    "events": {
      "EIP712DomainChanged()": {
        "details": "MAY be emitted to signal that the domain could have changed."
      },
      "Initialized(uint8)": {
        "details": "Triggered when the contract has been initialized or reinitialized."
      },
      "Paused(address)": {
        "details": "Emitted when the pause is triggered by `account`."
      },
      "RoleAdminChanged(bytes32,bytes32,bytes32)": {
        "details": "Emitted when `newAdminRole` is set as ``role``'s admin role, replacing `previousAdminRole` `DEFAULT_ADMIN_ROLE` is the starting admin for all roles, despite {RoleAdminChanged} not being emitted signaling this. _Available since v3.1._"
      },
      "RoleGranted(bytes32,address,address)": {
        "details": "Emitted when `account` is granted `role`. `sender` is the account that originated the contract call, an admin role bearer except when using {AccessControl-_setupRole}."
      },
      "RoleRevoked(bytes32,address,address)": {
        "details": "Emitted when `account` is revoked `role`. `sender` is the account that originated the contract call:   - if using `revokeRole`, it is the admin role bearer   - if using `renounceRole`, it is the role bearer (i.e. `account`)"
      },
      "Unpaused(address)": {
        "details": "Emitted when the pause is lifted by `account`."
      }
    },
    "kind": "dev",
    "methods": {
      "buyTokenInCrowdfundingPool(bytes32[],uint256)": {
        "details": "Must be in time for crowdfunding pool and pool is not closed",
        "params": {
          "_purchaseAmount": "Purchase amount of investor",
          "proof": "Respective proof for a leaf, which is respective for investor in merkle tree"
        }
      },
      "buyTokenInGalaxyPool(bytes32[],uint256,uint256)": {
        "details": "Must be in time for whale and pool is not closed",
        "params": {
          "_maxPurchaseBaseOnAllocations": "Max purchase amount base on allocation of whale",
          "_purchaseAmount": "Purchase amount of investor",
          "proof": "Respective proof for a leaf, which is respective for investor in merkle tree"
        }
      },
      "cancelPool(bool)": {
        "details": "Only admin can call it"
      },
      "claimFund(address)": {
        "details": "Claim tokens for investors",
        "params": {
          "_beneficiary": "Address to receive amount of purchased token"
        }
      },
      "claimParticipationFee(address)": {
        "params": {
          "_beneficiary": "Address to receive"
        }
      },
      "claimTokenFee(address)": {
        "params": {
          "_beneficiary": "Address to receive"
        }
      },
      "eip712Domain()": {
        "details": "See {EIP-5267}. _Available since v4.9._"
      },
      "fundIDOToken(address,bytes)": {
        "details": "Called only once",
        "params": {
          "_IDOToken": "Address of IDO token",
          "signature": "Signature comes from admin to verify IDO token is valid in case of private SALE"
        }
      },
      "getIDOTokenAmountByOfferedCurrency(uint256)": {
        "details": "Get IDO token amount base on amount of purchase token",
        "params": {
          "_amount": "Amount of purchase token"
        },
        "returns": {
          "_0": "Return amount of respective IDO token"
        }
      },
      "getPurchaseTokenAmountByTokenAmount(uint256)": {
        "details": "Get purchase token amount base on amount of IDO tokens",
        "params": {
          "_tokenAmount": "Amount of IDO token"
        },
        "returns": {
          "_0": "Return amount of respective purchase token"
        }
      },
      "getRoleAdmin(bytes32)": {
        "details": "Returns the admin role that controls `role`. See {grantRole} and {revokeRole}. To change a role's admin, use {_setRoleAdmin}."
      },
      "grantRole(bytes32,address)": {
        "details": "Grants `role` to `account`. If `account` had not been already granted `role`, emits a {RoleGranted} event. Requirements: - the caller must have ``role``'s admin role. May emit a {RoleGranted} event."
      },
      "hasRole(bytes32,address)": {
        "details": "Returns `true` if `account` has been granted `role`."
      },
      "initialize(address[2],uint256[18],address)": {
        "params": {
          "addrs": "Array of address includes: - address of IDO token - Can be zero address - address of purchase token",
          "uints": "Array of pool information includes: - max purchase amount for KYC user, - max purchase amount for Not KYC user, - token fee percentage, - galaxy participation fee percentage, - crowdfunding participation fee percentage, - galaxy pool proportion, - early access proportion, - total raise amount, - whale open time, - whale duration, - community duration, - rate of IDO token (based on README formula), - decimal of IDO token (based on README formula, is different from decimals in contract of IDO token), - TGE date, - TGE percentage, - vesting cliff, - vesting frequency, - number of vesting release"
        }
      },
      "paused()": {
        "details": "Returns true if the contract is paused, and false otherwise."
      },
      "renounceRole(bytes32,address)": {
        "details": "Revokes `role` from the calling account. Roles are often managed via {grantRole} and {revokeRole}: this function's purpose is to provide a mechanism for accounts to lose their privileges if they are compromised (such as when a trusted device is misplaced). If the calling account had been revoked `role`, emits a {RoleRevoked} event. Requirements: - the caller must be `account`. May emit a {RoleRevoked} event."
      },
      "revokeRole(bytes32,address)": {
        "details": "Revokes `role` from `account`. If `account` had been granted `role`, emits a {RoleRevoked} event. Requirements: - the caller must have ``role``'s admin role. May emit a {RoleRevoked} event."
      },
      "setClaimableStatus(bool)": {
        "details": "Called only by admin",
        "params": {
          "_status": "change vesting status"
        }
      },
      "setRoot(bytes32)": {
        "details": "Only admin can call it",
        "params": {
          "_root": "Root of merkle tree"
        }
      },
      "supportsInterface(bytes4)": {
        "details": "See {IERC165-supportsInterface}."
      },
      "updateTGEDate(uint64)": {
        "details": "Only admin can call it, new updated TGE Date must be within x year from the time calling this function",
        "params": {
          "_newTGEDate": "New updated TGE Date"
        }
      },
      "updateTime(uint64,uint64)": {
        "details": "Only admin can call it, galaxy pool must be closed before crowdfunding pool",
        "params": {
          "_newCommunityCloseTime": "New close time of crowdfunding pool",
          "_newWhaleCloseTime": "New close time of galaxy pool"
        }
      },
      "withdrawPurchasedAmount(address)": {
        "params": {
          "_beneficiary": "Address of receiver"
        }
      },
      "withdrawRedundantIDOToken(address)": {
        "details": "In case of public sale, if pool failed at TGE Date, collaborator can claim the whole amount (total raise amount) if pool is fully funded but the purchased amount stills lower than total raise amount, allow to withdraw the redundant",
        "params": {
          "_beneficiary": "Address to receive redundant IDO Token"
        }
      }
    },
    "version": 1
  },
  "userdoc": {
    "kind": "user",
    "methods": {
      "OWNER_ROLE()": {
        "notice": "keccak256(\"OWNER_ROLE\")"
      },
      "buyTokenInCrowdfundingPool(bytes32[],uint256)": {
        "notice": "Investor buy token in crowdfunding pool"
      },
      "buyTokenInGalaxyPool(bytes32[],uint256,uint256)": {
        "notice": "Investor buy token in galaxy pool"
      },
      "cancelPool(bool)": {
        "notice": "Cancel pool: cancel project, nobody can buy token"
      },
      "claimParticipationFee(address)": {
        "notice": "System's admin participation token fee only when project is success after lockup time"
      },
      "claimTokenFee(address)": {
        "notice": "System's admin receive token fee only when project is success after lockup time"
      },
      "fundIDOToken(address,bytes)": {
        "notice": "Allow collaborator to fund IDO token into the Pool contract. Should only be called before TGE Date  PRIVATE SALE - Pool must be funded after Community close time to make sure fund amount is consistent  PUBLIC SALE - Pool can be funded any time before TGE Date"
      },
      "getClaimableFundAmount()": {
        "notice": "Calculate total claimable purchased token during vesting period"
      },
      "initialize(address[2],uint256[18],address)": {
        "notice": "Initialize a pool with its information"
      },
      "setClaimableStatus(bool)": {
        "notice": "Allow to change claimable status of the pool"
      },
      "setRoot(bytes32)": {
        "notice": "Set merkle tree root after snapshoting information of investor"
      },
      "updateTGEDate(uint64)": {
        "notice": "Update TGE Date for galaxy pool and crowdfunding pool"
      },
      "updateTime(uint64,uint64)": {
        "notice": "Update time for galaxy pool and crowdfunding pool"
      },
      "withdrawPurchasedAmount(address)": {
        "notice": "When project is fail (cancelled by admin or not be funded enough IDO token)"
      },
      "withdrawRedundantIDOToken(address)": {
        "notice": "Collaborator can claim reduntdant IDO Token after funding"
      }
    },
    "version": 1
  },
  "storageLayout": {
    "storage": [
      {
        "astId": 9897,
        "contract": "contracts/core/Pool.sol:Pool",
        "label": "root",
        "offset": 0,
        "slot": "0",
        "type": "t_bytes32"
      },
      {
        "astId": 9748,
        "contract": "contracts/core/Pool.sol:Pool",
        "label": "ignitionFactory",
        "offset": 0,
        "slot": "1",
        "type": "t_contract(IIgnitionFactory)10093"
      },
      {
        "astId": 9752,
        "contract": "contracts/core/Pool.sol:Pool",
        "label": "purchaseToken",
        "offset": 0,
        "slot": "2",
        "type": "t_contract(IERC20)3186"
      },
      {
        "astId": 9756,
        "contract": "contracts/core/Pool.sol:Pool",
        "label": "offeredCurrency",
        "offset": 0,
        "slot": "3",
        "type": "t_struct(OfferedCurrency)9713_storage"
      },
      {
        "astId": 9759,
        "contract": "contracts/core/Pool.sol:Pool",
        "label": "maxPurchaseAmountForEarlyAccess",
        "offset": 0,
        "slot": "5",
        "type": "t_uint256"
      },
      {
        "astId": 9762,
        "contract": "contracts/core/Pool.sol:Pool",
        "label": "maxPurchaseAmountForKYCUser",
        "offset": 0,
        "slot": "6",
        "type": "t_uint256"
      },
      {
        "astId": 9765,
        "contract": "contracts/core/Pool.sol:Pool",
        "label": "maxPurchaseAmountForNotKYCUser",
        "offset": 0,
        "slot": "7",
        "type": "t_uint256"
      },
      {
        "astId": 9768,
        "contract": "contracts/core/Pool.sol:Pool",
        "label": "tokenFeePercentage",
        "offset": 0,
        "slot": "8",
        "type": "t_uint16"
      },
      {
        "astId": 9771,
        "contract": "contracts/core/Pool.sol:Pool",
        "label": "tokenFeeClaimedStatus",
        "offset": 2,
        "slot": "8",
        "type": "t_bool"
      },
      {
        "astId": 9774,
        "contract": "contracts/core/Pool.sol:Pool",
        "label": "galaxyParticipationFeePercentage",
        "offset": 3,
        "slot": "8",
        "type": "t_uint16"
      },
      {
        "astId": 9777,
        "contract": "contracts/core/Pool.sol:Pool",
        "label": "crowdfundingParticipationFeePercentage",
        "offset": 5,
        "slot": "8",
        "type": "t_uint16"
      },
      {
        "astId": 9780,
        "contract": "contracts/core/Pool.sol:Pool",
        "label": "galaxyPoolProportion",
        "offset": 7,
        "slot": "8",
        "type": "t_uint16"
      },
      {
        "astId": 9783,
        "contract": "contracts/core/Pool.sol:Pool",
        "label": "earlyAccessProportion",
        "offset": 9,
        "slot": "8",
        "type": "t_uint16"
      },
      {
        "astId": 9786,
        "contract": "contracts/core/Pool.sol:Pool",
        "label": "totalRaiseAmount",
        "offset": 0,
        "slot": "9",
        "type": "t_uint256"
      },
      {
        "astId": 9789,
        "contract": "contracts/core/Pool.sol:Pool",
        "label": "whaleOpenTime",
        "offset": 0,
        "slot": "10",
        "type": "t_uint64"
      },
      {
        "astId": 9792,
        "contract": "contracts/core/Pool.sol:Pool",
        "label": "whaleCloseTime",
        "offset": 8,
        "slot": "10",
        "type": "t_uint64"
      },
      {
        "astId": 9795,
        "contract": "contracts/core/Pool.sol:Pool",
        "label": "communityOpenTime",
        "offset": 16,
        "slot": "10",
        "type": "t_uint64"
      },
      {
        "astId": 9798,
        "contract": "contracts/core/Pool.sol:Pool",
        "label": "communityCloseTime",
        "offset": 24,
        "slot": "10",
        "type": "t_uint64"
      },
      {
        "astId": 9801,
        "contract": "contracts/core/Pool.sol:Pool",
        "label": "participationFeeAmount",
        "offset": 0,
        "slot": "11",
        "type": "t_uint256"
      },
      {
        "astId": 9804,
        "contract": "contracts/core/Pool.sol:Pool",
        "label": "participationFeeClaimedStatus",
        "offset": 0,
        "slot": "12",
        "type": "t_bool"
      },
      {
        "astId": 9807,
        "contract": "contracts/core/Pool.sol:Pool",
        "label": "purchasedAmountInGalaxyPool",
        "offset": 0,
        "slot": "13",
        "type": "t_uint256"
      },
      {
        "astId": 9810,
        "contract": "contracts/core/Pool.sol:Pool",
        "label": "purchasedAmountInEarlyAccess",
        "offset": 0,
        "slot": "14",
        "type": "t_uint256"
      },
      {
        "astId": 9813,
        "contract": "contracts/core/Pool.sol:Pool",
        "label": "purchasedAmount",
        "offset": 0,
        "slot": "15",
        "type": "t_uint256"
      },
      {
        "astId": 9816,
        "contract": "contracts/core/Pool.sol:Pool",
        "label": "fundClaimedAmount",
        "offset": 0,
        "slot": "16",
        "type": "t_uint256"
      },
      {
        "astId": 9822,
        "contract": "contracts/core/Pool.sol:Pool",
        "label": "userPurchasedAmount",
        "offset": 0,
        "slot": "17",
        "type": "t_mapping(t_address,t_struct(PurchaseAmount)9721_storage)"
      },
      {
        "astId": 9827,
        "contract": "contracts/core/Pool.sol:Pool",
        "label": "whalePurchasedAmount",
        "offset": 0,
        "slot": "18",
        "type": "t_mapping(t_address,t_uint256)"
      },
      {
        "astId": 9831,
        "contract": "contracts/core/Pool.sol:Pool",
        "label": "vesting",
        "offset": 0,
        "slot": "19",
        "type": "t_contract(IVesting)10230"
      },
      {
        "astId": 9833,
        "contract": "contracts/core/Pool.sol:Pool",
        "label": "tgeUpdateAttempts",
        "offset": 20,
        "slot": "19",
        "type": "t_uint8"
      },
      {
        "astId": 9835,
        "contract": "contracts/core/Pool.sol:Pool",
        "label": "redundantIDOTokensWithdrawn",
        "offset": 21,
        "slot": "19",
        "type": "t_bool"
      },
      {
        "astId": 441,
        "contract": "contracts/core/Pool.sol:Pool",
        "label": "_initialized",
        "offset": 22,
        "slot": "19",
        "type": "t_uint8"
      },
      {
        "astId": 444,
        "contract": "contracts/core/Pool.sol:Pool",
        "label": "_initializing",
        "offset": 23,
        "slot": "19",
        "type": "t_bool"
      },
      {
        "astId": 1196,
        "contract": "contracts/core/Pool.sol:Pool",
        "label": "__gap",
        "offset": 0,
        "slot": "20",
        "type": "t_array(t_uint256)50_storage"
      },
      {
        "astId": 2124,
        "contract": "contracts/core/Pool.sol:Pool",
        "label": "__gap",
        "offset": 0,
        "slot": "70",
        "type": "t_array(t_uint256)50_storage"
      },
      {
        "astId": 28,
        "contract": "contracts/core/Pool.sol:Pool",
        "label": "_roles",
        "offset": 0,
        "slot": "120",
        "type": "t_mapping(t_bytes32,t_struct(RoleData)23_storage)"
      },
      {
        "astId": 335,
        "contract": "contracts/core/Pool.sol:Pool",
        "label": "__gap",
        "offset": 0,
        "slot": "121",
        "type": "t_array(t_uint256)49_storage"
      },
      {
        "astId": 625,
        "contract": "contracts/core/Pool.sol:Pool",
        "label": "_paused",
        "offset": 0,
        "slot": "170",
        "type": "t_bool"
      },
      {
        "astId": 730,
        "contract": "contracts/core/Pool.sol:Pool",
        "label": "__gap",
        "offset": 0,
        "slot": "171",
        "type": "t_array(t_uint256)49_storage"
      },
      {
        "astId": 746,
        "contract": "contracts/core/Pool.sol:Pool",
        "label": "_status",
        "offset": 0,
        "slot": "220",
        "type": "t_uint256"
      },
      {
        "astId": 815,
        "contract": "contracts/core/Pool.sol:Pool",
        "label": "__gap",
        "offset": 0,
        "slot": "221",
        "type": "t_array(t_uint256)49_storage"
      },
      {
        "astId": 1811,
        "contract": "contracts/core/Pool.sol:Pool",
        "label": "_hashedName",
        "offset": 0,
        "slot": "270",
        "type": "t_bytes32"
      },
      {
        "astId": 1814,
        "contract": "contracts/core/Pool.sol:Pool",
        "label": "_hashedVersion",
        "offset": 0,
        "slot": "271",
        "type": "t_bytes32"
      },
      {
        "astId": 1816,
        "contract": "contracts/core/Pool.sol:Pool",
        "label": "_name",
        "offset": 0,
        "slot": "272",
        "type": "t_string_storage"
      },
      {
        "astId": 1818,
        "contract": "contracts/core/Pool.sol:Pool",
        "label": "_version",
        "offset": 0,
        "slot": "273",
        "type": "t_string_storage"
      },
      {
        "astId": 2076,
        "contract": "contracts/core/Pool.sol:Pool",
        "label": "__gap",
        "offset": 0,
        "slot": "274",
        "type": "t_array(t_uint256)48_storage"
      }
    ],
    "types": {
      "t_address": {
        "encoding": "inplace",
        "label": "address",
        "numberOfBytes": "20"
      },
      "t_array(t_uint256)48_storage": {
        "base": "t_uint256",
        "encoding": "inplace",
        "label": "uint256[48]",
        "numberOfBytes": "1536"
      },
      "t_array(t_uint256)49_storage": {
        "base": "t_uint256",
        "encoding": "inplace",
        "label": "uint256[49]",
        "numberOfBytes": "1568"
      },
      "t_array(t_uint256)50_storage": {
        "base": "t_uint256",
        "encoding": "inplace",
        "label": "uint256[50]",
        "numberOfBytes": "1600"
      },
      "t_bool": {
        "encoding": "inplace",
        "label": "bool",
        "numberOfBytes": "1"
      },
      "t_bytes32": {
        "encoding": "inplace",
        "label": "bytes32",
        "numberOfBytes": "32"
      },
      "t_contract(IERC20)3186": {
        "encoding": "inplace",
        "label": "contract IERC20",
        "numberOfBytes": "20"
      },
      "t_contract(IIgnitionFactory)10093": {
        "encoding": "inplace",
        "label": "contract IIgnitionFactory",
        "numberOfBytes": "20"
      },
      "t_contract(IVesting)10230": {
        "encoding": "inplace",
        "label": "contract IVesting",
        "numberOfBytes": "20"
      },
      "t_mapping(t_address,t_bool)": {
        "encoding": "mapping",
        "key": "t_address",
        "label": "mapping(address => bool)",
        "numberOfBytes": "32",
        "value": "t_bool"
      },
      "t_mapping(t_address,t_struct(PurchaseAmount)9721_storage)": {
        "encoding": "mapping",
        "key": "t_address",
        "label": "mapping(address => struct PoolStorage.PurchaseAmount)",
        "numberOfBytes": "32",
        "value": "t_struct(PurchaseAmount)9721_storage"
      },
      "t_mapping(t_address,t_uint256)": {
        "encoding": "mapping",
        "key": "t_address",
        "label": "mapping(address => uint256)",
        "numberOfBytes": "32",
        "value": "t_uint256"
      },
      "t_mapping(t_bytes32,t_struct(RoleData)23_storage)": {
        "encoding": "mapping",
        "key": "t_bytes32",
        "label": "mapping(bytes32 => struct AccessControlUpgradeable.RoleData)",
        "numberOfBytes": "32",
        "value": "t_struct(RoleData)23_storage"
      },
      "t_string_storage": {
        "encoding": "bytes",
        "label": "string",
        "numberOfBytes": "32"
      },
      "t_struct(OfferedCurrency)9713_storage": {
        "encoding": "inplace",
        "label": "struct PoolStorage.OfferedCurrency",
        "members": [
          {
            "astId": 9710,
            "contract": "contracts/core/Pool.sol:Pool",
            "label": "rate",
            "offset": 0,
            "slot": "0",
            "type": "t_uint256"
          },
          {
            "astId": 9712,
            "contract": "contracts/core/Pool.sol:Pool",
            "label": "decimal",
            "offset": 0,
            "slot": "1",
            "type": "t_uint256"
          }
        ],
        "numberOfBytes": "64"
      },
      "t_struct(PurchaseAmount)9721_storage": {
        "encoding": "inplace",
        "label": "struct PoolStorage.PurchaseAmount",
        "members": [
          {
            "astId": 9716,
            "contract": "contracts/core/Pool.sol:Pool",
            "label": "principal",
            "offset": 0,
            "slot": "0",
            "type": "t_uint256"
          },
          {
            "astId": 9718,
            "contract": "contracts/core/Pool.sol:Pool",
            "label": "fee",
            "offset": 0,
            "slot": "1",
            "type": "t_uint256"
          },
          {
            "astId": 9720,
            "contract": "contracts/core/Pool.sol:Pool",
            "label": "withdrawn",
            "offset": 0,
            "slot": "2",
            "type": "t_uint256"
          }
        ],
        "numberOfBytes": "96"
      },
      "t_struct(RoleData)23_storage": {
        "encoding": "inplace",
        "label": "struct AccessControlUpgradeable.RoleData",
        "members": [
          {
            "astId": 20,
            "contract": "contracts/core/Pool.sol:Pool",
            "label": "members",
            "offset": 0,
            "slot": "0",
            "type": "t_mapping(t_address,t_bool)"
          },
          {
            "astId": 22,
            "contract": "contracts/core/Pool.sol:Pool",
            "label": "adminRole",
            "offset": 0,
            "slot": "1",
            "type": "t_bytes32"
          }
        ],
        "numberOfBytes": "64"
      },
      "t_uint16": {
        "encoding": "inplace",
        "label": "uint16",
        "numberOfBytes": "2"
      },
      "t_uint256": {
        "encoding": "inplace",
        "label": "uint256",
        "numberOfBytes": "32"
      },
      "t_uint64": {
        "encoding": "inplace",
        "label": "uint64",
        "numberOfBytes": "8"
      },
      "t_uint8": {
        "encoding": "inplace",
        "label": "uint8",
        "numberOfBytes": "1"
      }
    }
  }
}