{
  "address": "0xF1Fd2C04Af1F3666f6248cd1cf80F93E3f9Ee23E",
  "abi": [
    {
      "inputs": [],
      "name": "InvalidEarlyAccessProportion",
      "type": "error"
    },
    {
      "inputs": [],
      "name": "InvalidGalaxyPoolProportion",
      "type": "error"
    },
    {
      "inputs": [],
      "name": "InvalidTime",
      "type": "error"
    },
    {
      "inputs": [],
      "name": "InvalidTokenFeePercentage",
      "type": "error"
    },
    {
      "inputs": [],
      "name": "ZeroAddressNotValid",
      "type": "error"
    },
    {
      "inputs": [],
      "name": "ZeroAmountNotValid",
      "type": "error"
    },
    {
      "inputs": [],
      "name": "PERCENTAGE_DENOMINATOR",
      "outputs": [
        {
          "internalType": "uint16",
          "name": "",
          "type": "uint16"
        }
      ],
      "stateMutability": "view",
      "type": "function"
    },
    {
      "inputs": [
        {
          "internalType": "uint256",
          "name": "_purchaseAmount",
          "type": "uint256"
        },
        {
          "internalType": "uint256",
          "name": "_participationFeePercentage",
          "type": "uint256"
        }
      ],
      "name": "calculateParticipantFee",
      "outputs": [
        {
          "internalType": "uint256",
          "name": "",
          "type": "uint256"
        }
      ],
      "stateMutability": "pure",
      "type": "function"
    },
    {
      "inputs": [
        {
          "internalType": "address",
          "name": "_address",
          "type": "address"
        }
      ],
      "name": "validAddress",
      "outputs": [],
      "stateMutability": "pure",
      "type": "function"
    },
    {
      "inputs": [
        {
          "internalType": "uint256",
          "name": "_amount",
          "type": "uint256"
        }
      ],
      "name": "validAmount",
      "outputs": [],
      "stateMutability": "pure",
      "type": "function"
    },
    {
      "inputs": [
        {
          "internalType": "address[2]",
          "name": "addrs",
          "type": "address[2]"
        },
        {
          "internalType": "uint256[18]",
          "name": "uints",
          "type": "uint256[18]"
        }
      ],
      "name": "verifyPoolInfo",
      "outputs": [],
      "stateMutability": "pure",
      "type": "function"
    }
  ],
  "transactionHash": "0xf6f9003ebc72ade5b873adcb2af903bec96ce83608808992444ade5705a53cd0",
  "args": [],
  "numDeployments": 1,
  "solcInputHash": "3f17f81d28b2277b875e901303fac68c",
  "bytecode": "0x61047661003a600b82828239805160001a60731461002d57634e487b7160e01b600052600060045260246000fd5b30600052607381538281f3fe73000000000000000000000000000000000000000030146080604052600436106100615760003560e01c80635c1c862114610066578063749a979a1461007b578063a77559421461008e578063b3cd4254146100b4578063b95f0a63146100d0575b600080fd5b610079610074366004610268565b6100e3565b005b610079610089366004610283565b61010d565b6100a161009c36600461029c565b61012e565b6040519081526020015b60405180910390f35b6100bd61271081565b60405161ffff90911681526020016100ab565b6100796100de366004610327565b610160565b6001600160a01b03811661010a57604051633bf95ba760e01b815260040160405180910390fd5b50565b8060000361010a57604051631a30ee4d60e11b815260040160405180910390fd5b6000816000036101405750600061015a565b61271061014d83856103f4565b610157919061040b565b90505b92915050565b602082015161016e906100e3565b60408101516127101015610195576040516384a9b02960e01b815260040160405180910390fd5b6101a68160055b602002015161010d565b60a0810151612710116101cc5760405163cd3445ed60e01b815260040160405180910390fd5b60c0810151612710116101f25760405163392fb6bb60e11b815260040160405180910390fd5b6101a0810151610140820151610120830151610100840151610214919061042d565b61021e919061042d565b111561023d576040516337bf561360e11b815260040160405180910390fd5b61024881600761019c565b5050565b80356001600160a01b038116811461026357600080fd5b919050565b60006020828403121561027a57600080fd5b6101578261024c565b60006020828403121561029557600080fd5b5035919050565b600080604083850312156102af57600080fd5b50508035926020909101359150565b6040805190810167ffffffffffffffff811182821017156102ef57634e487b7160e01b600052604160045260246000fd5b60405290565b604051610240810167ffffffffffffffff811182821017156102ef57634e487b7160e01b600052604160045260246000fd5b60008061028080848603121561033c57600080fd5b84601f85011261034b57600080fd5b6103536102be565b80604086018781111561036557600080fd5b865b81811015610386576103788161024c565b845260209384019301610367565b5081955087605f88011261039957600080fd5b6103a16102f5565b938701939250829150878411156103b757600080fd5b5b838110156103d05780358352602092830192016103b8565b508093505050509250929050565b634e487b7160e01b600052601160045260246000fd5b808202811582820484141761015a5761015a6103de565b60008261042857634e487b7160e01b600052601260045260246000fd5b500490565b8082018082111561015a5761015a6103de56fea2646970667358221220fdd2b6b5be79cf0b7a02b14901f61f5386f7553b64b2d684f82d417b41649c9764736f6c63430008170033",
  "devdoc": {
    "kind": "dev",
    "methods": {
      "calculateParticipantFee(uint256,uint256)": {
        "details": "Calculate fee when investor buy token",
        "params": {
          "_participationFeePercentage": "Fee percentage when buying token",
          "_purchaseAmount": "Purchase amount of investor"
        },
        "returns": {
          "_0": "Return amount of fee when investor buy token"
        }
      },
      "validAddress(address)": {
        "details": "Check whether or not an address is zero address",
        "params": {
          "_address": "An address"
        }
      },
      "validAmount(uint256)": {
        "details": "Check whether or not an amount greater than 0",
        "params": {
          "_amount": "An amount"
        }
      },
      "verifyPoolInfo(address[2],uint256[18])": {
        "details": "verify information of pool",
        "params": {
          "addrs": "Array of address includes: - address of IDO token, - address of purchase token",
          "uints": "Array of pool information includes: - max purchase amount for KYC user, - max purchase amount for Not KYC user, - token fee percentage, - galaxy participation fee percentage, - crowdfunding participation fee percentage, - galaxy pool proportion, - early access proportion, - total raise amount, - whale open time, - whale duration, - community duration, - rate of IDO token (based on README formula), - decimal of IDO token (based on README formula, is different from decimals in contract of IDO token), - TGE date, - TGE percentage, - vesting cliff, - vesting frequency, - number of vesting release"
        }
      }
    },
    "stateVariables": {
      "PERCENTAGE_DENOMINATOR": {
        "details": "Percentage denominator"
      }
    },
    "version": 1
  },
  "userdoc": {
    "kind": "user",
    "methods": {},
    "version": 1
  },
  "storageLayout": {
    "storage": [],
    "types": null
  }
}